{
  "_format": "hh-sol-artifact-1",
  "contractName": "TestAmericanBinaryOptions",
  "sourceName": "contracts/Test-helpers/TestAmericanBinaryOptions.sol",
  "abi": [
    {
      "inputs": [
        {
          "internalType": "int256",
          "name": "x",
          "type": "int256"
        }
      ],
      "name": "abs",
      "outputs": [
        {
          "internalType": "uint256",
          "name": "",
          "type": "uint256"
        }
      ],
      "stateMutability": "pure",
      "type": "function"
    },
    {
      "inputs": [
        {
          "internalType": "int256",
          "name": "x",
          "type": "int256"
        }
      ],
      "name": "abs_pub",
      "outputs": [
        {
          "internalType": "uint256",
          "name": "",
          "type": "uint256"
        }
      ],
      "stateMutability": "pure",
      "type": "function"
    },
    {
      "inputs": [
        {
          "internalType": "uint256",
          "name": "timeToExpirySec",
          "type": "uint256"
        },
        {
          "internalType": "uint256",
          "name": "volatilityDecimal",
          "type": "uint256"
        },
        {
          "internalType": "uint256",
          "name": "spotDecimal",
          "type": "uint256"
        },
        {
          "internalType": "uint256",
          "name": "strikeDecimal",
          "type": "uint256"
        },
        {
          "internalType": "int256",
          "name": "rateDecimal",
          "type": "int256"
        }
      ],
      "name": "americanBinaryOptionPrices",
      "outputs": [
        {
          "internalType": "int256",
          "name": "",
          "type": "int256"
        }
      ],
      "stateMutability": "pure",
      "type": "function"
    },
    {
      "inputs": [
        {
          "internalType": "uint256",
          "name": "secs",
          "type": "uint256"
        }
      ],
      "name": "annualise_pub",
      "outputs": [
        {
          "internalType": "uint256",
          "name": "yearFraction",
          "type": "uint256"
        }
      ],
      "stateMutability": "pure",
      "type": "function"
    },
    {
      "inputs": [
        {
          "internalType": "uint256",
          "name": "tAnnualised",
          "type": "uint256"
        },
        {
          "internalType": "uint256",
          "name": "volatility",
          "type": "uint256"
        },
        {
          "internalType": "uint256",
          "name": "spot",
          "type": "uint256"
        },
        {
          "internalType": "uint256",
          "name": "strike",
          "type": "uint256"
        },
        {
          "internalType": "int256",
          "name": "rate",
          "type": "int256"
        }
      ],
      "name": "d1d2_pub",
      "outputs": [
        {
          "internalType": "int256",
          "name": "d1",
          "type": "int256"
        },
        {
          "internalType": "int256",
          "name": "d2",
          "type": "int256"
        }
      ],
      "stateMutability": "pure",
      "type": "function"
    },
    {
      "inputs": [
        {
          "internalType": "int256",
          "name": "x",
          "type": "int256"
        }
      ],
      "name": "erf_pub",
      "outputs": [
        {
          "internalType": "int256",
          "name": "",
          "type": "int256"
        }
      ],
      "stateMutability": "pure",
      "type": "function"
    },
    {
      "inputs": [
        {
          "internalType": "uint256",
          "name": "x",
          "type": "uint256"
        }
      ],
      "name": "exp",
      "outputs": [
        {
          "internalType": "uint256",
          "name": "",
          "type": "uint256"
        }
      ],
      "stateMutability": "pure",
      "type": "function"
    },
    {
      "inputs": [
        {
          "internalType": "int256",
          "name": "x",
          "type": "int256"
        }
      ],
      "name": "exp",
      "outputs": [
        {
          "internalType": "uint256",
          "name": "",
          "type": "uint256"
        }
      ],
      "stateMutability": "pure",
      "type": "function"
    },
    {
      "inputs": [
        {
          "internalType": "int256",
          "name": "x",
          "type": "int256"
        }
      ],
      "name": "exp_pub",
      "outputs": [
        {
          "internalType": "uint256",
          "name": "",
          "type": "uint256"
        }
      ],
      "stateMutability": "pure",
      "type": "function"
    },
    {
      "inputs": [
        {
          "internalType": "uint256",
          "name": "x",
          "type": "uint256"
        }
      ],
      "name": "ln_pub",
      "outputs": [
        {
          "internalType": "int256",
          "name": "",
          "type": "int256"
        }
      ],
      "stateMutability": "pure",
      "type": "function"
    },
    {
      "inputs": [
        {
          "internalType": "uint256",
          "name": "x",
          "type": "uint256"
        }
      ],
      "name": "lnexternal",
      "outputs": [
        {
          "internalType": "int256",
          "name": "",
          "type": "int256"
        }
      ],
      "stateMutability": "pure",
      "type": "function"
    },
    {
      "inputs": [
        {
          "internalType": "uint256",
          "name": "timeToExpirySec",
          "type": "uint256"
        },
        {
          "internalType": "uint256",
          "name": "volatilityDecimal",
          "type": "uint256"
        },
        {
          "internalType": "uint256",
          "name": "spotDecimal",
          "type": "uint256"
        },
        {
          "internalType": "uint256",
          "name": "strikeDecimal",
          "type": "uint256"
        },
        {
          "internalType": "int256",
          "name": "rateDecimal",
          "type": "int256"
        }
      ],
      "name": "optionPrices",
      "outputs": [
        {
          "internalType": "uint256",
          "name": "call",
          "type": "uint256"
        },
        {
          "internalType": "uint256",
          "name": "put",
          "type": "uint256"
        }
      ],
      "stateMutability": "pure",
      "type": "function"
    },
    {
      "inputs": [
        {
          "internalType": "uint256",
          "name": "timeToExpirySec",
          "type": "uint256"
        },
        {
          "internalType": "uint256",
          "name": "volatilityDecimal",
          "type": "uint256"
        },
        {
          "internalType": "uint256",
          "name": "spotDecimal",
          "type": "uint256"
        },
        {
          "internalType": "uint256",
          "name": "strikeDecimal",
          "type": "uint256"
        },
        {
          "internalType": "int256",
          "name": "rateDecimal",
          "type": "int256"
        }
      ],
      "name": "pricesDeltaStdVega",
      "outputs": [
        {
          "components": [
            {
              "internalType": "uint256",
              "name": "callPrice",
              "type": "uint256"
            },
            {
              "internalType": "uint256",
              "name": "putPrice",
              "type": "uint256"
            },
            {
              "internalType": "int256",
              "name": "callDelta",
              "type": "int256"
            },
            {
              "internalType": "int256",
              "name": "putDelta",
              "type": "int256"
            },
            {
              "internalType": "uint256",
              "name": "stdVega",
              "type": "uint256"
            }
          ],
          "internalType": "struct IAmericanBinaryOptions.PricesDeltaStdVega",
          "name": "",
          "type": "tuple"
        }
      ],
      "stateMutability": "pure",
      "type": "function"
    },
    {
      "inputs": [
        {
          "internalType": "uint256",
          "name": "x",
          "type": "uint256"
        }
      ],
      "name": "sqrt",
      "outputs": [
        {
          "internalType": "uint256",
          "name": "y",
          "type": "uint256"
        }
      ],
      "stateMutability": "pure",
      "type": "function"
    },
    {
      "inputs": [
        {
          "internalType": "uint256",
          "name": "x",
          "type": "uint256"
        }
      ],
      "name": "sqrt_pub",
      "outputs": [
        {
          "internalType": "uint256",
          "name": "",
          "type": "uint256"
        }
      ],
      "stateMutability": "pure",
      "type": "function"
    },
    {
      "inputs": [
        {
          "internalType": "int256",
          "name": "x",
          "type": "int256"
        }
      ],
      "name": "stdNormalCDF_pub",
      "outputs": [
        {
          "internalType": "uint256",
          "name": "",
          "type": "uint256"
        }
      ],
      "stateMutability": "pure",
      "type": "function"
    },
    {
      "inputs": [
        {
          "internalType": "int256",
          "name": "x",
          "type": "int256"
        }
      ],
      "name": "stdNormal_pub",
      "outputs": [
        {
          "internalType": "uint256",
          "name": "",
          "type": "uint256"
        }
      ],
      "stateMutability": "pure",
      "type": "function"
    }
  ],
  "bytecode": "0x608060405234801561001057600080fd5b506116f3806100206000396000f3fe608060405234801561001057600080fd5b506004361061011b5760003560e01c8063938e8ba8116100b2578063c979cb9611610081578063d0bba37111610066578063d0bba37114610294578063e46751e3146102a7578063f9c3c7a6146102ba57600080fd5b8063c979cb961461026e578063d0763f601461028157600080fd5b8063938e8ba8146101e0578063a837fc3b146101f3578063ab65e8b914610206578063b581fbe31461025b57600080fd5b80635abd0149116100ee5780635abd014914610194578063677342ce146101a75780636eaf7ccb146101ba5780637278dbe4146101cd57600080fd5b80631b5ac4b5146101205780631c1227131461014657806327fc0ba81461015957806349a92c711461016c575b600080fd5b61013361012e36600461129b565b6102cd565b6040519081526020015b60405180910390f35b61013361015436600461129b565b6102eb565b61013361016736600461129b565b610302565b61017f61017a3660046112b4565b610315565b6040805192835260208301919091520161013d565b6101336101a236600461129b565b61034a565b6101336101b536600461129b565b610355565b6101336101c836600461129b565b6103ae565b6101336101db36600461129b565b6103c1565b61017f6101ee3660046112b4565b6103cf565b61013361020136600461129b565b61045b565b6102196102143660046112b4565b610469565b60405161013d9190600060a082019050825182526020830151602083015260408301516040830152606083015160608301526080830151608083015292915050565b61013361026936600461129b565b61057f565b61013361027c3660046112b4565b610731565b61013361028f36600461129b565b610937565b6101336102a236600461129b565b610942565b6101336102b536600461129b565b610950565b6101336102c836600461129b565b6109ca565b60008082126102dc57816102e5565b6102e58261131e565b92915050565b60006102e56101b583670de0b6b3a764000061133b565b60006102e5610310836109d8565b610a11565b6000806103258787878787610a78565b909250905061033382610b74565b61033c82610b74565b915091509550959350505050565b60006102e582610bd4565b6000806002610365846001610c4c565b61036f9190611389565b90508291505b818110156103a85790508060028161038d8186611389565b610397919061139d565b6103a19190611389565b9050610375565b50919050565b60006102e56103bc83610bd4565b610b74565b60006102e56103bc83610c58565b60008060006103dd88610c9a565b905060006103ea87610caa565b905060006103f787610caa565b9050600061040487610cd0565b905060008061041e866104168e610caa565b878787610a78565b91509150610430868686868686610cf6565b909850965061043e88610a11565b61044788610a11565b975097505050505050509550959350505050565b60006102e561031083610950565b61049b6040518060a0016040528060008152602001600081526020016000815260200160008152602001600081525090565b60006104a687610c9a565b905060006104b386610caa565b90506000806104dd846104c58b610caa565b856104cf8b610caa565b6104d88b610cd0565b610a78565b9150915060008061050286866104f28c610caa565b6104fb8c610cd0565b8888610cf6565b91509150600061051385878f610d8a565b905060008061052187610e32565b915091506040518060a0016040528061053987610a11565b815260200161054786610a11565b815260200161055584610b74565b815260200161056383610b74565b81526020019390935250909d9c50505050505050505050505050565b60008161059957506b033b2e3c9fd0803ce8000000919050565b6105b06b033b2e3c9fd0803ce8000000606461133b565b821115610643576040517f08c379a000000000000000000000000000000000000000000000000000000000815260206004820152602860248201527f63616e6e6f742068616e646c65206578706f6e656e747320677265617465722060448201527f7468616e20313030000000000000000000000000000000000000000000000000606482015260840160405180910390fd5b60006b033b2e3c9fd0803ce800000061067061066b856b023d5b9ff36551802aa5d6fa610e5d565b610e75565b61067a9190611389565b90506000610689826002611499565b905060006106ad6106a6846b023d5b9ff36551802aa5d6fa610e97565b8690610ea3565b90506b033b2e3c9fd0803ce8000000600060105b60ff81161561071b576106f76b033b2e3c9fd0803ce80000006106f16106ea60ff851688611389565b8690610eaf565b90610c4c565b9250818314156107065761071b565b82915080610713816114a5565b9150506106c1565b506107268483610e97565b979650505050505050565b60008061073d87610c9a565b9050600061074a86610caa565b9050600061075786610caa565b9050600061076489610caa565b9050600061077187610cd0565b905060006107918361078b6107868888610e5d565b610bd4565b90610ec7565b905060006107a06002856114c2565b6107aa8486610ec7565b6107b491906114f0565b905060006107df6107c6856002611548565b6107d08480610edf565b6107da91906115e8565b610ef7565b9050600061081161080c6107f76107da8c600261133b565b86610802868e610eaf565b61078b91906114f0565b610c58565b9050600061083e61080c6108296107da8d600261133b565b87610834878f610eaf565b61078b91906115e8565b90506000808613156108ce576108c7610884610866846b033b2e3c9fd0803ce80000006114f0565b61087e6108738a89610edf565b6102b5906002611548565b90610edf565b61089a856b033b2e3c9fd0803ce80000006115e8565b6108a491906115e8565b60026108bd6102b56108b6898b6114f0565b8b90610edf565b61087e9190611389565b9050610918565b6000861215610909576108c76108f3610866846b033b2e3c9fd0803ce80000006115e8565b61089a856b033b2e3c9fd0803ce80000006114f0565b506b033b2e3c9fd0803ce80000005b61092181610b74565b9b50505050505050505050505095945050505050565b60006102e5826102cd565b60006102e561031083610f12565b600081600013610963576102e58261057f565b6109996b033b2e3c9fd0803ce80000007fffffffffffffffffffffffffffffffffffffffffffffffffffffffffffffffc1611548565b8212156109a857506000919050565b6102e56109b76102698461131e565b6b033b2e3c9fd0803ce800000090610e5d565b60006102e561031083610c9a565b60006102e56b08196f2f0c65a776731daf25610a0b610a026109fb6002876114c2565b8690610edf565b6102b59061131e565b90610e5d565b600080600a610a226012601b611640565b610a309060ff16600a611499565b610a3a9190611389565b610a449084611389565b90506005610a53600a83611663565b10610a6657610a63600a8261139d565b90505b610a71600a82611389565b9392505050565b600080610a956301e133806b033b2e3c9fd0803ce8000000611389565b8710610aa15786610abb565b610abb6301e133806b033b2e3c9fd0803ce8000000611389565b9650610ad56127106b033b2e3c9fd0803ce8000000611389565b8610610ae15785610af9565b610af96127106b033b2e3c9fd0803ce8000000611389565b95506000610b10610b0989610ef7565b8890610eaf565b90506000610b216107868888610e5d565b90506000610b498a61087e886002610b398e80610eaf565b610b439190611389565b90611157565b9050610b598361078b8484611157565b9450610b658584611163565b93505050509550959350505050565b600080600a610b856012601b611640565b610b939060ff16600a611499565b610b9d91906114c2565b610ba790846114c2565b90506005610bb6600a83611677565b12610bc957610bc6600a826115e8565b90505b610a71600a826114c2565b60008080805b6008811015610c43576000610bee84610950565b9050610c1c610c15610c008884611157565b61078b6002610c0f8b87611163565b9061116f565b8590611157565b925083831415610c2c5750610c43565b829350508080610c3b9061168b565b915050610bda565b50909392505050565b6000610a71828461139d565b60006b033b2e3c9fd0803ce8000000610c85610c80846b0491cf5ed58c148755f01c94610edf565b610f12565b610c9090600261133b565b6102e591906114f0565b60006102e5826301e13380610e5d565b60006102e5610cbb6012601b611640565b610cc99060ff16600a611499565b8390610e97565b60006102e5610ce16012601b611640565b610cef9060ff16600a611499565b839061116f565b60008080610d0a610b09610a02888c610edf565b90506000610d21610d1a87610f12565b8a90610eaf565b90506000610d38610d3187610f12565b8490610eaf565b905081811115610d49576000610d53565b610d538282610ea3565b9450610d5f8584610c4c565b9350838a1115610d70576000610d7a565b610d7a848b610ea3565b9350505050965096945050505050565b600080610d9683610c9a565b905062093a808310610da85782610dad565b62093a805b9250600062015180610dcb856b033b2e3c9fd0803ce8000000610e97565b610dd59190611389565b90506000610df06b033b2e3c9fd0803ce8000000601e61133b565b90506000610e0c6064610e066107da8587610e5d565b9061117b565b9050610e2661031082610e20878b8d611187565b90610eaf565b98975050505050505050565b600080610e3e83610f12565b9150610e566b033b2e3c9fd0803ce8000000836114f0565b9050915091565b6000610a718383610e70601b600a611499565b6111aa565b6000610e8d6b033b2e3c9fd0803ce800000083611663565b6102e590836116a6565b6000610a71828461133b565b6000610a7182846116a6565b6000610a718383610ec2601b600a611499565b6111fc565b6000610a718383610eda601b600a611499565b61121e565b6000610a718383610ef2601b600a611499565b61126d565b60006102e56101b5836b033b2e3c9fd0803ce8000000610e97565b6000600a610f4c6b033b2e3c9fd0803ce80000007fffffffffffffffffffffffffffffffffffffffffffffffffffffffffffffffd3611548565b610f5691906114c2565b821215610f6557506000919050565b610f7c6b033b2e3c9fd0803ce8000000600a611548565b821315610f9657506b033b2e3c9fd0803ce8000000919050565b60006b033b2e3c9fd0803ce8000000610fae846102cd565b610fbb906223549b61133b565b610fc59190611389565b610fd290629896806115e8565b90506000610feb610fe46002866114c2565b8590610edf565b90506000610ff88261057f565b6110116b033b2e3c9fd0803ce8000000623cdfaf61133b565b61101b9190611389565b9050600083808080611033816578fcdaec22006114c2565b61105d907ffffffffffffffffffffffffffffffffffffffffffffffffffffffffffeea19306115e8565b61106a9062989680611548565b61107491906114c2565b6110829063010fd4fc6115e8565b61108f9062989680611548565b61109991906114c2565b6110c3907fffffffffffffffffffffffffffffffffffffffffffffffffffffffffffc997ba6115e8565b6110d09062989680611548565b6110da91906114c2565b6110e7906230bbd76115e8565b6110f19084611548565b6110fe9062989680611548565b61110891906114c2565b905060008613156111265761112381655af3107a40006116a6565b90505b655af3107a4000611143826b033b2e3c9fd0803ce800000061133b565b61114d9190611389565b9695505050505050565b6000610a7182846115e8565b6000610a7182846114f0565b6000610a718284611548565b6000610a718284611389565b60006111a261119984610e20856109d8565b610e2086610ef7565b949350505050565b6000806111c684610e066111bf86600a61133b565b8890610e97565b905060056111d5600a83611663565b106111e8576111e5600a8261139d565b90505b6111f3600a82611389565b95945050505050565b60008061120a600a84611389565b6112148686610e97565b6111c69190611389565b6000806112408461123a61123386600a611548565b889061116f565b9061128f565b9050600561124f600a83611677565b126112625761125f600a826115e8565b90505b6111f3600a826114c2565b60008061127b600a846114c2565b611285868661116f565b61124091906114c2565b6000610a7182846114c2565b6000602082840312156112ad57600080fd5b5035919050565b600080600080600060a086880312156112cc57600080fd5b505083359560208501359550604085013594606081013594506080013592509050565b7f4e487b7100000000000000000000000000000000000000000000000000000000600052601160045260246000fd5b6000600160ff1b821415611334576113346112ef565b5060000390565b6000816000190483118215151615611355576113556112ef565b500290565b7f4e487b7100000000000000000000000000000000000000000000000000000000600052601260045260246000fd5b6000826113985761139861135a565b500490565b600082198211156113b0576113b06112ef565b500190565b600181815b808511156113f05781600019048211156113d6576113d66112ef565b808516156113e357918102915b93841c93908002906113ba565b509250929050565b600082611407575060016102e5565b81611414575060006102e5565b816001811461142a576002811461143457611450565b60019150506102e5565b60ff841115611445576114456112ef565b50506001821b6102e5565b5060208310610133831016604e8410600b8410161715611473575081810a6102e5565b61147d83836113b5565b8060001904821115611491576114916112ef565b029392505050565b6000610a7183836113f8565b600060ff8216806114b8576114b86112ef565b6000190192915050565b6000826114d1576114d161135a565b6000198314600160ff1b831416156114eb576114eb6112ef565b500590565b600080831283600160ff1b0183128115161561150e5761150e6112ef565b837f7fffffffffffffffffffffffffffffffffffffffffffffffffffffffffffffff018313811615611542576115426112ef565b50500390565b60007f7fffffffffffffffffffffffffffffffffffffffffffffffffffffffffffffff600084136000841385830485118282161615611589576115896112ef565b600160ff1b60008712868205881281841616156115a8576115a86112ef565b600087129250878205871284841616156115c4576115c46112ef565b878505871281841616156115da576115da6112ef565b505050929093029392505050565b6000808212827f7fffffffffffffffffffffffffffffffffffffffffffffffffffffffffffffff03841381151615611622576116226112ef565b82600160ff1b03841281161561163a5761163a6112ef565b50500190565b600060ff821660ff84168082101561165a5761165a6112ef565b90039392505050565b6000826116725761167261135a565b500690565b6000826116865761168661135a565b500790565b600060001982141561169f5761169f6112ef565b5060010190565b6000828210156116b8576116b86112ef565b50039056fea2646970667358221220f6c6af3db5b7ef68fdde9208fbef2cee78cb90d96f1cdc1fe32a74745bbd194b64736f6c63430008090033",
  "linkReferences": {},
  "deployedLinkReferences": {}
}