{
  "_format": "hh-sol-artifact-1",
  "contractName": "GlobalsViewer",
  "sourceName": "contracts/periphery/GlobalsViewer.sol",
  "abi": [
    {
      "inputs": [],
      "stateMutability": "nonpayable",
      "type": "constructor"
    },
    {
      "inputs": [],
      "name": "BASE_POINT",
      "outputs": [
        {
          "internalType": "uint256",
          "name": "",
          "type": "uint256"
        }
      ],
      "stateMutability": "view",
      "type": "function"
    },
    {
      "inputs": [],
      "name": "DECIMAL_CONVERT",
      "outputs": [
        {
          "internalType": "uint256",
          "name": "",
          "type": "uint256"
        }
      ],
      "stateMutability": "view",
      "type": "function"
    },
    {
      "inputs": [],
      "name": "DURATION",
      "outputs": [
        {
          "internalType": "uint256",
          "name": "",
          "type": "uint256"
        }
      ],
      "stateMutability": "view",
      "type": "function"
    },
    {
      "inputs": [],
      "name": "getGlobals",
      "outputs": [
        {
          "components": [
            {
              "internalType": "uint256",
              "name": "totalValidCertificateLiquidity",
              "type": "uint256"
            },
            {
              "internalType": "uint256",
              "name": "totalPendingCertificateLiquidity",
              "type": "uint256"
            },
            {
              "internalType": "uint256",
              "name": "totalCoverage",
              "type": "uint256"
            },
            {
              "internalType": "uint256",
              "name": "totalPendingCoverage",
              "type": "uint256"
            },
            {
              "internalType": "address",
              "name": "protocol",
              "type": "address"
            }
          ],
          "internalType": "struct GlobalsViewer.GlobalsView[]",
          "name": "",
          "type": "tuple[]"
        }
      ],
      "stateMutability": "view",
      "type": "function"
    },
    {
      "inputs": [
        {
          "internalType": "uint256",
          "name": "coverage",
          "type": "uint256"
        },
        {
          "internalType": "address",
          "name": "_metaDefender",
          "type": "address"
        }
      ],
      "name": "getPremium",
      "outputs": [
        {
          "components": [
            {
              "internalType": "uint256",
              "name": "premium",
              "type": "uint256"
            },
            {
              "internalType": "uint256",
              "name": "fee",
              "type": "uint256"
            },
            {
              "internalType": "uint256",
              "name": "newRisk",
              "type": "uint256"
            }
          ],
          "internalType": "struct GlobalsViewer.TradeInsuranceView",
          "name": "",
          "type": "tuple"
        }
      ],
      "stateMutability": "view",
      "type": "function"
    },
    {
      "inputs": [
        {
          "internalType": "contract IMetaDefenderMarketsRegistry",
          "name": "_metaDefenderMarketsRegistry",
          "type": "address"
        },
        {
          "internalType": "contract IAmericanBinaryOptions",
          "name": "_americanBinaryOptions",
          "type": "address"
        }
      ],
      "name": "init",
      "outputs": [],
      "stateMutability": "nonpayable",
      "type": "function"
    },
    {
      "inputs": [],
      "name": "initialized",
      "outputs": [
        {
          "internalType": "bool",
          "name": "",
          "type": "bool"
        }
      ],
      "stateMutability": "view",
      "type": "function"
    }
  ],
  "bytecode": "0x60806040526004805460ff60a01b1916905534801561001d57600080fd5b506115148061002d6000396000f3fe608060405234801561001057600080fd5b506004361061007d5760003560e01c80631be052891161005b5780631be052891461010d57806323b0545314610115578063d9f38c9914610126578063f09a40161461013b57600080fd5b806302ac98c8146100825780631135daeb146100bc578063158ef93e146100d8575b600080fd5b610095610090366004610c8a565b610150565b60408051825181526020808401519082015291810151908201526060015b60405180910390f35b6100ca662386f26fc1000081565b6040519081526020016100b3565b6004546100fd9074010000000000000000000000000000000000000000900460ff1681565b60405190151581526020016100b3565b6100ca601981565b6100ca69d3c21bcecceda100000081565b61012e6103ae565b6040516100b39190610cba565b61014e610149366004610d31565b610afb565b005b61017460405180606001604052806000815260200160008152602001600081525090565b6000826001600160a01b031663dab680dc6040518163ffffffff1660e01b81526004016101006040518083038186803b1580156101b057600080fd5b505afa1580156101c4573d6000803e3d6000fd5b505050506040513d601f19601f820116820180604052508101906101e89190610df2565b9050600061023661022b662386f26fc100006102258560a0015161021f69d3c21bcecceda10000008b610c0990919063ffffffff16565b90610c32565b90610c09565b606084015190610c4e565b6001549091506000906001600160a01b031663c979cb9661025b601962015180610e98565b84683635c9adc5dea000006102868860c00151683635c9adc5dea00000610c0990919063ffffffff16565b6040517fffffffff0000000000000000000000000000000000000000000000000000000060e087901b168152600481019490945260248401929092526044830152606482015266d529ae9e860000608482015260a40160206040518083038186803b1580156102f457600080fd5b505afa158015610308573d6000803e3d6000fd5b505050506040513d601f19601f8201168201806040525081019061032c9190610eb7565b9050600081121561033b575060005b60006103606103e861035a8660e001518a610c5a90919063ffffffff16565b90610c66565b9050604051806060016040528061038a836103848b87610c0990919063ffffffff16565b90610c4e565b8152602001678ac7230489e800008152602001848152509450505050505b92915050565b60606000600360009054906101000a90046001600160a01b03166001600160a01b031663197987e86040518163ffffffff1660e01b815260040160006040518083038186803b15801561040057600080fd5b505afa158015610414573d6000803e3d6000fd5b505050506040513d6000823e601f3d908101601f1916820160405261043c9190810190611010565b506003546040517f80c0e1af0000000000000000000000000000000000000000000000000000000081529192506000916001600160a01b03909116906380c0e1af9061048c9085906004016110d5565b60006040518083038186803b1580156104a457600080fd5b505afa1580156104b8573d6000803e3d6000fd5b505050506040513d6000823e601f3d908101601f191682016040526104e09190810190611289565b5090506000806000806000865160016104f99190611383565b67ffffffffffffffff81111561051157610511610d5f565b60405190808252806020026020018201604052801561057d57816020015b61056a6040518060a001604052806000815260200160008152602001600081526020016000815260200160006001600160a01b031681525090565b81526020019060019003908161052f5790505b50905060005b8651811015610aa0576040518060a001604052808883815181106105a9576105a961139b565b6020026020010151600001516001600160a01b031663e71392ed6040518163ffffffff1660e01b815260040160206040518083038186803b1580156105ed57600080fd5b505afa158015610601573d6000803e3d6000fd5b505050506040513d601f19601f820116820180604052508101906106259190610eb7565b815260200188838151811061063c5761063c61139b565b6020026020010151600001516001600160a01b0316632485167a6040518163ffffffff1660e01b815260040160206040518083038186803b15801561068057600080fd5b505afa158015610694573d6000803e3d6000fd5b505050506040513d601f19601f820116820180604052508101906106b89190610eb7565b81526020018883815181106106cf576106cf61139b565b6020026020010151602001516001600160a01b031663d51942e26040518163ffffffff1660e01b815260040160206040518083038186803b15801561071357600080fd5b505afa158015610727573d6000803e3d6000fd5b505050506040513d601f19601f8201168201806040525081019061074b9190610eb7565b81526020018883815181106107625761076261139b565b6020026020010151602001516001600160a01b03166304f1cb106040518163ffffffff1660e01b815260040160206040518083038186803b1580156107a657600080fd5b505afa1580156107ba573d6000803e3d6000fd5b505050506040513d601f19601f820116820180604052508101906107de9190610eb7565b81526020018983815181106107f5576107f561139b565b60200260200101516001600160a01b031681525082828151811061081b5761081b61139b565b60200260200101819052506108be87828151811061083b5761083b61139b565b6020026020010151600001516001600160a01b031663e71392ed6040518163ffffffff1660e01b815260040160206040518083038186803b15801561087f57600080fd5b505afa158015610893573d6000803e3d6000fd5b505050506040513d601f19601f820116820180604052508101906108b79190610eb7565b8790610c4e565b95506109588782815181106108d5576108d561139b565b6020026020010151600001516001600160a01b0316632485167a6040518163ffffffff1660e01b815260040160206040518083038186803b15801561091957600080fd5b505afa15801561092d573d6000803e3d6000fd5b505050506040513d601f19601f820116820180604052508101906109519190610eb7565b8690610c4e565b94506109f287828151811061096f5761096f61139b565b6020026020010151602001516001600160a01b031663d51942e26040518163ffffffff1660e01b815260040160206040518083038186803b1580156109b357600080fd5b505afa1580156109c7573d6000803e3d6000fd5b505050506040513d601f19601f820116820180604052508101906109eb9190610eb7565b8590610c4e565b9350610a8c878281518110610a0957610a0961139b565b6020026020010151602001516001600160a01b03166304f1cb106040518163ffffffff1660e01b815260040160206040518083038186803b158015610a4d57600080fd5b505afa158015610a61573d6000803e3d6000fd5b505050506040513d601f19601f82011682018060405250810190610a859190610eb7565b8490610c4e565b925080610a98816113b1565b915050610583565b506040518060a0016040528086815260200185815260200184815260200183815260200160006001600160a01b031681525081885181518110610ae557610ae561139b565b6020908102919091010152979650505050505050565b60045474010000000000000000000000000000000000000000900460ff1615610b84576040517f08c379a000000000000000000000000000000000000000000000000000000000815260206004820152601c60248201527f436f6e747261637420616c726561647920696e697469616c697a656400000000604482015260640160405180910390fd5b600380546001600160a01b039384167fffffffffffffffffffffffff00000000000000000000000000000000000000009182161790915560018054929093169116179055600480547fffffffffffffffffffffff00ffffffffffffffffffffffffffffffffffffffff1674010000000000000000000000000000000000000000179055565b6000610c176012600a6114b0565b610c218484610c5a565b610c2b91906114bc565b9392505050565b6000610c2b8261035a610c476012600a6114b0565b8690610c5a565b6000610c2b8284611383565b6000610c2b8284610e98565b6000610c2b82846114bc565b6001600160a01b0381168114610c8757600080fd5b50565b60008060408385031215610c9d57600080fd5b823591506020830135610caf81610c72565b809150509250929050565b602080825282518282018190526000919060409081850190868401855b82811015610d245781518051855286810151878601528581015186860152606080820151908601526080908101516001600160a01b03169085015260a09093019290850190600101610cd7565b5091979650505050505050565b60008060408385031215610d4457600080fd5b8235610d4f81610c72565b91506020830135610caf81610c72565b634e487b7160e01b600052604160045260246000fd5b60405160c0810167ffffffffffffffff81118282101715610d9857610d98610d5f565b60405290565b6040516060810167ffffffffffffffff81118282101715610d9857610d98610d5f565b604051601f8201601f1916810167ffffffffffffffff81118282101715610dea57610dea610d5f565b604052919050565b6000610100808385031215610e0657600080fd5b6040519081019067ffffffffffffffff82118183101715610e2957610e29610d5f565b81604052835181526020840151602082015260408401516040820152606084015160608201526080840151608082015260a084015160a082015260c084015160c082015260e084015160e0820152809250505092915050565b634e487b7160e01b600052601160045260246000fd5b6000816000190483118215151615610eb257610eb2610e82565b500290565b600060208284031215610ec957600080fd5b5051919050565b600067ffffffffffffffff821115610eea57610eea610d5f565b5060051b60200190565b600082601f830112610f0557600080fd5b815167ffffffffffffffff811115610f1f57610f1f610d5f565b6020610f3381601f19601f85011601610dc1565b8281528582848701011115610f4757600080fd5b60005b83811015610f65578581018301518282018401528201610f4a565b83811115610f765760008385840101525b5095945050505050565b600082601f830112610f9157600080fd5b81516020610fa6610fa183610ed0565b610dc1565b82815260059290921b84018101918181019086841115610fc557600080fd5b8286015b8481101561100557805167ffffffffffffffff811115610fe95760008081fd5b610ff78986838b0101610ef4565b845250918301918301610fc9565b509695505050505050565b6000806040838503121561102357600080fd5b825167ffffffffffffffff8082111561103b57600080fd5b818501915085601f83011261104f57600080fd5b8151602061105f610fa183610ed0565b82815260059290921b8401810191818101908984111561107e57600080fd5b948201945b838610156110a557855161109681610c72565b82529482019490820190611083565b918801519196509093505050808211156110be57600080fd5b506110cb85828601610f80565b9150509250929050565b6020808252825182820181905260009190848201906040850190845b818110156111165783516001600160a01b0316835292840192918401916001016110f1565b50909695505050505050565b600082601f83011261113357600080fd5b81516020611143610fa183610ed0565b82815260059290921b8401810191818101908684111561116257600080fd5b8286015b8481101561100557805167ffffffffffffffff808211156111875760008081fd5b818901915060c080601f19848d030112156111a25760008081fd5b6111aa610d75565b87840151838111156111bc5760008081fd5b6111ca8d8a83880101610ef4565b825250604080850151848111156111e15760008081fd5b6111ef8e8b83890101610ef4565b8a84015250606080860151858111156112085760008081fd5b6112168f8c838a0101610ef4565b83850152506080915081860151858111156112315760008081fd5b61123f8f8c838a0101610ef4565b82850152505060a080860151858111156112595760008081fd5b6112678f8c838a0101610ef4565b9284019290925294909201519381019390935250508352918301918301611166565b600080604080848603121561129d57600080fd5b835167ffffffffffffffff808211156112b557600080fd5b818601915086601f8301126112c957600080fd5b815160206112d9610fa183610ed0565b8281526060928302850182019282820191908b8511156112f857600080fd5b958301955b8487101561135b5780878d0312156113155760008081fd5b61131d610d9e565b875161132881610c72565b81528785015161133781610c72565b818601528789015161134881610c72565b818a0152835295860195918301916112fd565b509189015191975090945050508083111561137557600080fd5b50506110cb85828601611122565b6000821982111561139657611396610e82565b500190565b634e487b7160e01b600052603260045260246000fd5b60006000198214156113c5576113c5610e82565b5060010190565b600181815b808511156114075781600019048211156113ed576113ed610e82565b808516156113fa57918102915b93841c93908002906113d1565b509250929050565b60008261141e575060016103a8565b8161142b575060006103a8565b8160018114611441576002811461144b57611467565b60019150506103a8565b60ff84111561145c5761145c610e82565b50506001821b6103a8565b5060208310610133831016604e8410600b841016171561148a575081810a6103a8565b61149483836113cc565b80600019048211156114a8576114a8610e82565b029392505050565b6000610c2b838361140f565b6000826114d957634e487b7160e01b600052601260045260246000fd5b50049056fea26469706673582212200db8e34962ae14da475f56554bc3f21bde0fa9f278f6ffa4af32b4e21828493d64736f6c63430008090033",
  "linkReferences": {},
  "deployedLinkReferences": {}
}