{
  "_format": "hh-sol-artifact-1",
  "contractName": "Policy",
  "sourceName": "contracts/Policy.sol",
  "abi": [
    {
      "inputs": [
        {
          "internalType": "string",
          "name": "_name",
          "type": "string"
        },
        {
          "internalType": "string",
          "name": "_symbol",
          "type": "string"
        }
      ],
      "stateMutability": "nonpayable",
      "type": "constructor"
    },
    {
      "inputs": [],
      "name": "InsufficientCoverage",
      "type": "error"
    },
    {
      "inputs": [],
      "name": "InsufficientPrivilege",
      "type": "error"
    },
    {
      "anonymous": false,
      "inputs": [
        {
          "indexed": true,
          "internalType": "address",
          "name": "owner",
          "type": "address"
        },
        {
          "indexed": true,
          "internalType": "address",
          "name": "approved",
          "type": "address"
        },
        {
          "indexed": true,
          "internalType": "uint256",
          "name": "tokenId",
          "type": "uint256"
        }
      ],
      "name": "Approval",
      "type": "event"
    },
    {
      "anonymous": false,
      "inputs": [
        {
          "indexed": true,
          "internalType": "address",
          "name": "owner",
          "type": "address"
        },
        {
          "indexed": true,
          "internalType": "address",
          "name": "operator",
          "type": "address"
        },
        {
          "indexed": false,
          "internalType": "bool",
          "name": "approved",
          "type": "bool"
        }
      ],
      "name": "ApprovalForAll",
      "type": "event"
    },
    {
      "anonymous": false,
      "inputs": [
        {
          "indexed": false,
          "internalType": "address",
          "name": "beneficiary",
          "type": "address"
        },
        {
          "indexed": false,
          "internalType": "uint256",
          "name": "policyId",
          "type": "uint256"
        },
        {
          "indexed": false,
          "internalType": "uint256",
          "name": "timestamp",
          "type": "uint256"
        },
        {
          "indexed": false,
          "internalType": "uint256",
          "name": "coverage",
          "type": "uint256"
        },
        {
          "indexed": false,
          "internalType": "uint256",
          "name": "fee",
          "type": "uint256"
        },
        {
          "indexed": false,
          "internalType": "uint256",
          "name": "duration",
          "type": "uint256"
        },
        {
          "indexed": false,
          "internalType": "uint256",
          "name": "standardRisk",
          "type": "uint256"
        },
        {
          "indexed": false,
          "internalType": "uint256",
          "name": "enteredEpochIndex",
          "type": "uint256"
        },
        {
          "indexed": false,
          "internalType": "uint256",
          "name": "SPS",
          "type": "uint256"
        },
        {
          "indexed": false,
          "internalType": "address",
          "name": "protocol",
          "type": "address"
        },
        {
          "indexed": false,
          "internalType": "address",
          "name": "epochManage",
          "type": "address"
        }
      ],
      "name": "NewPolicyMinted",
      "type": "event"
    },
    {
      "anonymous": false,
      "inputs": [
        {
          "indexed": false,
          "internalType": "uint256",
          "name": "policyId",
          "type": "uint256"
        },
        {
          "indexed": false,
          "internalType": "bool",
          "name": "status",
          "type": "bool"
        }
      ],
      "name": "PolicyClaimed",
      "type": "event"
    },
    {
      "anonymous": false,
      "inputs": [
        {
          "indexed": false,
          "internalType": "uint256",
          "name": "policyId",
          "type": "uint256"
        },
        {
          "indexed": false,
          "internalType": "bool",
          "name": "status",
          "type": "bool"
        }
      ],
      "name": "PolicySettled",
      "type": "event"
    },
    {
      "anonymous": false,
      "inputs": [
        {
          "indexed": false,
          "internalType": "uint256",
          "name": "policyId",
          "type": "uint256"
        },
        {
          "indexed": false,
          "internalType": "bool",
          "name": "status",
          "type": "bool"
        }
      ],
      "name": "PolicyUnderClaimApplying",
      "type": "event"
    },
    {
      "anonymous": false,
      "inputs": [
        {
          "indexed": true,
          "internalType": "address",
          "name": "from",
          "type": "address"
        },
        {
          "indexed": true,
          "internalType": "address",
          "name": "to",
          "type": "address"
        },
        {
          "indexed": true,
          "internalType": "uint256",
          "name": "tokenId",
          "type": "uint256"
        }
      ],
      "name": "Transfer",
      "type": "event"
    },
    {
      "inputs": [],
      "name": "MIN_COVERAGE",
      "outputs": [
        {
          "internalType": "uint256",
          "name": "",
          "type": "uint256"
        }
      ],
      "stateMutability": "view",
      "type": "function"
    },
    {
      "inputs": [
        {
          "internalType": "address",
          "name": "to",
          "type": "address"
        },
        {
          "internalType": "uint256",
          "name": "tokenId",
          "type": "uint256"
        }
      ],
      "name": "approve",
      "outputs": [],
      "stateMutability": "nonpayable",
      "type": "function"
    },
    {
      "inputs": [
        {
          "internalType": "address",
          "name": "owner",
          "type": "address"
        }
      ],
      "name": "balanceOf",
      "outputs": [
        {
          "internalType": "uint256",
          "name": "",
          "type": "uint256"
        }
      ],
      "stateMutability": "view",
      "type": "function"
    },
    {
      "inputs": [
        {
          "internalType": "uint256",
          "name": "policyId",
          "type": "uint256"
        }
      ],
      "name": "belongsTo",
      "outputs": [
        {
          "internalType": "address",
          "name": "",
          "type": "address"
        }
      ],
      "stateMutability": "view",
      "type": "function"
    },
    {
      "inputs": [
        {
          "internalType": "address",
          "name": "spender",
          "type": "address"
        },
        {
          "internalType": "uint256",
          "name": "policyId",
          "type": "uint256"
        }
      ],
      "name": "burn",
      "outputs": [],
      "stateMutability": "nonpayable",
      "type": "function"
    },
    {
      "inputs": [
        {
          "internalType": "uint256",
          "name": "policyId",
          "type": "uint256"
        },
        {
          "internalType": "bool",
          "name": "status",
          "type": "bool"
        }
      ],
      "name": "changeStatusIsClaimed",
      "outputs": [],
      "stateMutability": "nonpayable",
      "type": "function"
    },
    {
      "inputs": [
        {
          "internalType": "uint256",
          "name": "tokenId",
          "type": "uint256"
        }
      ],
      "name": "getApproved",
      "outputs": [
        {
          "internalType": "address",
          "name": "",
          "type": "address"
        }
      ],
      "stateMutability": "view",
      "type": "function"
    },
    {
      "inputs": [
        {
          "internalType": "address",
          "name": "beneficiary",
          "type": "address"
        }
      ],
      "name": "getPolicies",
      "outputs": [
        {
          "internalType": "uint256[]",
          "name": "",
          "type": "uint256[]"
        }
      ],
      "stateMutability": "view",
      "type": "function"
    },
    {
      "inputs": [
        {
          "internalType": "uint256",
          "name": "policyId",
          "type": "uint256"
        }
      ],
      "name": "getPolicyInfo",
      "outputs": [
        {
          "components": [
            {
              "internalType": "address",
              "name": "beneficiary",
              "type": "address"
            },
            {
              "internalType": "uint256",
              "name": "coverage",
              "type": "uint256"
            },
            {
              "internalType": "uint256",
              "name": "fee",
              "type": "uint256"
            },
            {
              "internalType": "uint256",
              "name": "timestamp",
              "type": "uint256"
            },
            {
              "internalType": "uint256",
              "name": "duration",
              "type": "uint256"
            },
            {
              "internalType": "uint256",
              "name": "standardRisk",
              "type": "uint256"
            },
            {
              "internalType": "uint64",
              "name": "enteredEpochIndex",
              "type": "uint64"
            },
            {
              "internalType": "uint256",
              "name": "SPS",
              "type": "uint256"
            },
            {
              "internalType": "bool",
              "name": "isClaimed",
              "type": "bool"
            },
            {
              "internalType": "bool",
              "name": "isClaimApplying",
              "type": "bool"
            },
            {
              "internalType": "bool",
              "name": "isSettled",
              "type": "bool"
            }
          ],
          "internalType": "struct IPolicy.PolicyInfo",
          "name": "",
          "type": "tuple"
        }
      ],
      "stateMutability": "view",
      "type": "function"
    },
    {
      "inputs": [
        {
          "internalType": "address",
          "name": "_metaDefender",
          "type": "address"
        },
        {
          "internalType": "contract IEpochManage",
          "name": "_epochManage",
          "type": "address"
        }
      ],
      "name": "init",
      "outputs": [],
      "stateMutability": "nonpayable",
      "type": "function"
    },
    {
      "inputs": [
        {
          "internalType": "address",
          "name": "owner",
          "type": "address"
        },
        {
          "internalType": "address",
          "name": "operator",
          "type": "address"
        }
      ],
      "name": "isApprovedForAll",
      "outputs": [
        {
          "internalType": "bool",
          "name": "",
          "type": "bool"
        }
      ],
      "stateMutability": "view",
      "type": "function"
    },
    {
      "inputs": [
        {
          "internalType": "uint256",
          "name": "policyId",
          "type": "uint256"
        }
      ],
      "name": "isClaimAvailable",
      "outputs": [
        {
          "internalType": "bool",
          "name": "",
          "type": "bool"
        }
      ],
      "stateMutability": "view",
      "type": "function"
    },
    {
      "inputs": [
        {
          "internalType": "uint256",
          "name": "policyId",
          "type": "uint256"
        }
      ],
      "name": "isSettleAvailable",
      "outputs": [
        {
          "internalType": "bool",
          "name": "",
          "type": "bool"
        }
      ],
      "stateMutability": "view",
      "type": "function"
    },
    {
      "inputs": [],
      "name": "metaDefender",
      "outputs": [
        {
          "internalType": "address",
          "name": "",
          "type": "address"
        }
      ],
      "stateMutability": "view",
      "type": "function"
    },
    {
      "inputs": [
        {
          "internalType": "address",
          "name": "beneficiary",
          "type": "address"
        },
        {
          "internalType": "uint256",
          "name": "coverage",
          "type": "uint256"
        },
        {
          "internalType": "uint256",
          "name": "fee",
          "type": "uint256"
        },
        {
          "internalType": "uint64",
          "name": "enteredEpochIndex",
          "type": "uint64"
        },
        {
          "internalType": "uint256",
          "name": "duration",
          "type": "uint256"
        },
        {
          "internalType": "uint256",
          "name": "SPS",
          "type": "uint256"
        },
        {
          "internalType": "uint256",
          "name": "standardRisk",
          "type": "uint256"
        },
        {
          "internalType": "uint256",
          "name": "timestamp",
          "type": "uint256"
        }
      ],
      "name": "mint",
      "outputs": [
        {
          "internalType": "uint256",
          "name": "",
          "type": "uint256"
        }
      ],
      "stateMutability": "nonpayable",
      "type": "function"
    },
    {
      "inputs": [],
      "name": "name",
      "outputs": [
        {
          "internalType": "string",
          "name": "",
          "type": "string"
        }
      ],
      "stateMutability": "view",
      "type": "function"
    },
    {
      "inputs": [],
      "name": "newEpochCreated",
      "outputs": [],
      "stateMutability": "nonpayable",
      "type": "function"
    },
    {
      "inputs": [
        {
          "internalType": "uint256",
          "name": "tokenId",
          "type": "uint256"
        }
      ],
      "name": "ownerOf",
      "outputs": [
        {
          "internalType": "address",
          "name": "",
          "type": "address"
        }
      ],
      "stateMutability": "view",
      "type": "function"
    },
    {
      "inputs": [
        {
          "internalType": "address",
          "name": "from",
          "type": "address"
        },
        {
          "internalType": "address",
          "name": "to",
          "type": "address"
        },
        {
          "internalType": "uint256",
          "name": "tokenId",
          "type": "uint256"
        }
      ],
      "name": "safeTransferFrom",
      "outputs": [],
      "stateMutability": "nonpayable",
      "type": "function"
    },
    {
      "inputs": [
        {
          "internalType": "address",
          "name": "from",
          "type": "address"
        },
        {
          "internalType": "address",
          "name": "to",
          "type": "address"
        },
        {
          "internalType": "uint256",
          "name": "tokenId",
          "type": "uint256"
        },
        {
          "internalType": "bytes",
          "name": "data",
          "type": "bytes"
        }
      ],
      "name": "safeTransferFrom",
      "outputs": [],
      "stateMutability": "nonpayable",
      "type": "function"
    },
    {
      "inputs": [
        {
          "internalType": "address",
          "name": "operator",
          "type": "address"
        },
        {
          "internalType": "bool",
          "name": "approved",
          "type": "bool"
        }
      ],
      "name": "setApprovalForAll",
      "outputs": [],
      "stateMutability": "nonpayable",
      "type": "function"
    },
    {
      "inputs": [
        {
          "internalType": "bytes4",
          "name": "interfaceId",
          "type": "bytes4"
        }
      ],
      "name": "supportsInterface",
      "outputs": [
        {
          "internalType": "bool",
          "name": "",
          "type": "bool"
        }
      ],
      "stateMutability": "view",
      "type": "function"
    },
    {
      "inputs": [],
      "name": "symbol",
      "outputs": [
        {
          "internalType": "string",
          "name": "",
          "type": "string"
        }
      ],
      "stateMutability": "view",
      "type": "function"
    },
    {
      "inputs": [
        {
          "internalType": "uint256",
          "name": "index",
          "type": "uint256"
        }
      ],
      "name": "tokenByIndex",
      "outputs": [
        {
          "internalType": "uint256",
          "name": "",
          "type": "uint256"
        }
      ],
      "stateMutability": "view",
      "type": "function"
    },
    {
      "inputs": [
        {
          "internalType": "address",
          "name": "owner",
          "type": "address"
        },
        {
          "internalType": "uint256",
          "name": "index",
          "type": "uint256"
        }
      ],
      "name": "tokenOfOwnerByIndex",
      "outputs": [
        {
          "internalType": "uint256",
          "name": "",
          "type": "uint256"
        }
      ],
      "stateMutability": "view",
      "type": "function"
    },
    {
      "inputs": [
        {
          "internalType": "uint256",
          "name": "tokenId",
          "type": "uint256"
        }
      ],
      "name": "tokenURI",
      "outputs": [
        {
          "internalType": "string",
          "name": "",
          "type": "string"
        }
      ],
      "stateMutability": "view",
      "type": "function"
    },
    {
      "inputs": [],
      "name": "totalCoverage",
      "outputs": [
        {
          "internalType": "uint256",
          "name": "",
          "type": "uint256"
        }
      ],
      "stateMutability": "view",
      "type": "function"
    },
    {
      "inputs": [],
      "name": "totalPendingCoverage",
      "outputs": [
        {
          "internalType": "uint256",
          "name": "",
          "type": "uint256"
        }
      ],
      "stateMutability": "view",
      "type": "function"
    },
    {
      "inputs": [],
      "name": "totalSupply",
      "outputs": [
        {
          "internalType": "uint256",
          "name": "",
          "type": "uint256"
        }
      ],
      "stateMutability": "view",
      "type": "function"
    },
    {
      "inputs": [
        {
          "internalType": "address",
          "name": "from",
          "type": "address"
        },
        {
          "internalType": "address",
          "name": "to",
          "type": "address"
        },
        {
          "internalType": "uint256",
          "name": "tokenId",
          "type": "uint256"
        }
      ],
      "name": "transferFrom",
      "outputs": [],
      "stateMutability": "nonpayable",
      "type": "function"
    }
  ],
  "bytecode": "0x60806040523480156200001157600080fd5b5060405162002d5e38038062002d5e8339810160408190526200003491620001e1565b8151829082906200004d9060009060208501906200006e565b508051620000639060019060208401906200006e565b505050505062000288565b8280546200007c906200024b565b90600052602060002090601f016020900481019282620000a05760008555620000eb565b82601f10620000bb57805160ff1916838001178555620000eb565b82800160010185558215620000eb579182015b82811115620000eb578251825591602001919060010190620000ce565b50620000f9929150620000fd565b5090565b5b80821115620000f95760008155600101620000fe565b634e487b7160e01b600052604160045260246000fd5b600082601f8301126200013c57600080fd5b81516001600160401b038082111562000159576200015962000114565b604051601f8301601f19908116603f0116810190828211818310171562000184576200018462000114565b81604052838152602092508683858801011115620001a157600080fd5b600091505b83821015620001c55785820183015181830184015290820190620001a6565b83821115620001d75760008385830101525b9695505050505050565b60008060408385031215620001f557600080fd5b82516001600160401b03808211156200020d57600080fd5b6200021b868387016200012a565b935060208501519150808211156200023257600080fd5b5062000241858286016200012a565b9150509250929050565b600181811c908216806200026057607f821691505b602082108114156200028257634e487b7160e01b600052602260045260246000fd5b50919050565b612ac680620002986000396000f3fe608060405234801561001057600080fd5b50600436106101da5760003560e01c806370a0823111610104578063a22cb465116100a2578063d51942e211610071578063d51942e2146103fa578063da567d4014610403578063e985e9c514610416578063f09a40161461045257600080fd5b8063a22cb465146103ae578063b88d4fde146103c1578063c0281a50146103d4578063c87b56dd146103e757600080fd5b80639588d85b116100de5780639588d85b1461036857806395d89b41146103885780639b0e77b5146103905780639dc29fac1461039b57600080fd5b806370a082311461032f57806375df36651461034257806377d982f71461035557600080fd5b80632925993d1161017c578063338ebf211161014b578063338ebf21146102d657806342842e0e146102f65780634f6ccce7146103095780636352211e1461031c57600080fd5b80632925993d1461028e5780632f745c591461029d5780632fc767e2146102b05780633069218e146102c357600080fd5b8063081812fc116101b8578063081812fc14610233578063095ea7b31461025e57806318160ddd1461027357806323b872dd1461027b57600080fd5b806301ffc9a7146101df57806304f1cb101461020757806306fdde031461021e575b600080fd5b6101f26101ed3660046124e6565b610465565b60405190151581526020015b60405180910390f35b610210600f5481565b6040519081526020016101fe565b6102266104c1565b6040516101fe919061255b565b61024661024136600461256e565b610553565b6040516001600160a01b0390911681526020016101fe565b61027161026c36600461259c565b61057a565b005b600854610210565b6102716102893660046125c8565b6106b1565b610210670de0b6b3a764000081565b6102106102ab36600461259c565b610738565b6102716102be36600461261e565b6107e0565b600c54610246906001600160a01b031681565b6102e96102e436600461264a565b610896565b6040516101fe9190612667565b6102716103043660046125c8565b610938565b61021061031736600461256e565b610953565b61024661032a36600461256e565b6109f7565b61021061033d36600461264a565b610a5c565b6102106103503660046126ab565b610af6565b61024661036336600461256e565b610de4565b61037b61037636600461256e565b610def565b6040516101fe9190612726565b610226610f80565b610271600f54600e55565b6102716103a936600461259c565b610f8f565b6102716103bc3660046127c7565b611119565b6102716103cf366004612809565b611124565b6101f26103e236600461256e565b6111b2565b6102266103f536600461256e565b6112ec565b610210600e5481565b6101f261041136600461256e565b611360565b6101f26104243660046128e9565b6001600160a01b03918216600090815260056020908152604080832093909416825291909152205460ff1690565b6102716104603660046128e9565b611521565b60007fffffffff0000000000000000000000000000000000000000000000000000000082167f780e9d630000000000000000000000000000000000000000000000000000000014806104bb57506104bb8261167a565b92915050565b6060600080546104d090612922565b80601f01602080910402602001604051908101604052809291908181526020018280546104fc90612922565b80156105495780601f1061051e57610100808354040283529160200191610549565b820191906000526020600020905b81548152906001019060200180831161052c57829003601f168201915b5050505050905090565b600061055e8261175d565b506000908152600460205260409020546001600160a01b031690565b6000610585826109f7565b9050806001600160a01b0316836001600160a01b031614156106145760405162461bcd60e51b815260206004820152602160248201527f4552433732313a20617070726f76616c20746f2063757272656e74206f776e6560448201527f720000000000000000000000000000000000000000000000000000000000000060648201526084015b60405180910390fd5b336001600160a01b038216148061063057506106308133610424565b6106a25760405162461bcd60e51b815260206004820152603d60248201527f4552433732313a20617070726f76652063616c6c6572206973206e6f7420746f60448201527f6b656e206f776e6572206f7220617070726f76656420666f7220616c6c000000606482015260840161060b565b6106ac83836117c4565b505050565b6106bb338261183f565b61072d5760405162461bcd60e51b815260206004820152602d60248201527f4552433732313a2063616c6c6572206973206e6f7420746f6b656e206f776e6560448201527f72206f7220617070726f76656400000000000000000000000000000000000000606482015260840161060b565b6106ac8383836118be565b600061074383610a5c565b82106107b75760405162461bcd60e51b815260206004820152602b60248201527f455243373231456e756d657261626c653a206f776e657220696e646578206f7560448201527f74206f6620626f756e6473000000000000000000000000000000000000000000606482015260840161060b565b506001600160a01b03919091166000908152600660209081526040808320938352929052205490565b600c546001600160a01b0316331461083a5760405162461bcd60e51b815260206004820152601160248201527f4f6e6c79204d657461446566656e646572000000000000000000000000000000604482015260640161060b565b6000828152600b6020908152604091829020600801805460ff19168415159081179091558251858152918201527f375011a5d8aaa6e67c8f2222e64284f75c67993b9e0b40075c24e57cfb65ec61910160405180910390a15050565b606060006108a383610a5c565b905060008167ffffffffffffffff8111156108c0576108c06127f3565b6040519080825280602002602001820160405280156108e9578160200160208202803683370190505b50905060005b82811015610930576109018582610738565b8282815181106109135761091361295d565b60209081029190910101528061092881612989565b9150506108ef565b509392505050565b6106ac83838360405180602001604052806000815250611124565b600061095e60085490565b82106109d25760405162461bcd60e51b815260206004820152602c60248201527f455243373231456e756d657261626c653a20676c6f62616c20696e646578206f60448201527f7574206f6620626f756e64730000000000000000000000000000000000000000606482015260840161060b565b600882815481106109e5576109e561295d565b90600052602060002001549050919050565b6000818152600260205260408120546001600160a01b0316806104bb5760405162461bcd60e51b815260206004820152601860248201527f4552433732313a20696e76616c696420746f6b656e2049440000000000000000604482015260640161060b565b60006001600160a01b038216610ada5760405162461bcd60e51b815260206004820152602960248201527f4552433732313a2061646472657373207a65726f206973206e6f74206120766160448201527f6c6964206f776e65720000000000000000000000000000000000000000000000606482015260840161060b565b506001600160a01b031660009081526003602052604090205490565b600c546000906001600160a01b03163314610b535760405162461bcd60e51b815260206004820152601160248201527f4f6e6c79204d657461446566656e646572000000000000000000000000000000604482015260640161060b565b600c546001600160a01b03163314610b97576040517fe2c1813000000000000000000000000000000000000000000000000000000000815260040160405180910390fd5b600f54610ba49089611b01565b600f55600a805460009182610bb883612989565b9190505590506040518061016001604052808b6001600160a01b031681526020018a81526020018981526020018481526020018781526020018581526020018867ffffffffffffffff16815260200186815260200160001515815260200160001515815260200160001515815250600b600083815260200190815260200160002060008201518160000160006101000a8154816001600160a01b0302191690836001600160a01b031602179055506020820151816001015560408201518160020155606082015181600301556080820151816004015560a0820151816005015560c08201518160060160006101000a81548167ffffffffffffffff021916908367ffffffffffffffff16021790555060e082015181600701556101008201518160080160006101000a81548160ff0219169083151502179055506101208201518160080160016101000a81548160ff0219169083151502179055506101408201518160080160026101000a81548160ff021916908315150217905550905050610d418a82611b0d565b600c54600d54604080516001600160a01b03808f16825260208201869052918101879052606081018d9052608081018c905260a081018a905260c0810188905267ffffffffffffffff8b1660e08201526101008101899052928116610120840152166101408201527f8527613f7a4fc51cb2c8d3575de17567ce885bab40f0c6e3752c25bcddd77734906101600160405180910390a19998505050505050505050565b60006104bb826109f7565b610e6560405180610160016040528060006001600160a01b031681526020016000815260200160008152602001600081526020016000815260200160008152602001600067ffffffffffffffff168152602001600081526020016000151581526020016000151581526020016000151581525090565b6000828152600b602052604090206006015467ffffffffffffffff16610ecd5760405162461bcd60e51b815260206004820152601560248201527f706f6c69637920646f6573206e6f742065786973740000000000000000000000604482015260640161060b565b506000908152600b602090815260409182902082516101608101845281546001600160a01b031681526001820154928101929092526002810154928201929092526003820154606082015260048201546080820152600582015460a0820152600682015467ffffffffffffffff1660c0820152600782015460e082015260089091015460ff8082161515610100808501919091528204811615156101208401526201000090910416151561014082015290565b6060600180546104d090612922565b600c546001600160a01b03163314610fe95760405162461bcd60e51b815260206004820152601160248201527f4f6e6c79204d657461446566656e646572000000000000000000000000000000604482015260640161060b565b610ff3828261183f565b6110655760405162461bcd60e51b815260206004820152603760248201527f617474656d7074656420746f206275726e206e6f6e6578697374656e7420636560448201527f7274696669636174652c206f72206e6f74206f776e6572000000000000000000606482015260840161060b565b6000818152600b60205260408120805473ffffffffffffffffffffffffffffffffffffffff1916815560018101829055600281018290556003810182905560048101829055600581018290556006810180547fffffffffffffffffffffffffffffffffffffffffffffffff0000000000000000169055600781019190915560080180547fffffffffffffffffffffffffffffffffffffffffffffffffffffffffff00000016905561111581611cb3565b5050565b611115338383611d63565b61112e338361183f565b6111a05760405162461bcd60e51b815260206004820152602d60248201527f4552433732313a2063616c6c6572206973206e6f7420746f6b656e206f776e6560448201527f72206f7220617070726f76656400000000000000000000000000000000000000606482015260840161060b565b6111ac84848484611e32565b50505050565b6000818152600b602052604081206006015467ffffffffffffffff1661121a5760405162461bcd60e51b815260206004820152601560248201527f706f6c69637920646f6573206e6f742065786973740000000000000000000000604482015260640161060b565b6000828152600b602052604090206008015462010000900460ff16156112825760405162461bcd60e51b815260206004820152601b60248201527f706f6c69637920697320616c72656164792063616e63656c6c65640000000000604482015260640161060b565b6000828152600b602052604090206008015460ff16156112e45760405162461bcd60e51b815260206004820152601960248201527f706f6c69637920697320616c726561647920636c61696d656400000000000000604482015260640161060b565b506001919050565b60606112f78261175d565b600061130e60408051602081019091526000815290565b9050600081511161132e5760405180602001604052806000815250611359565b8061133884611ebb565b6040516020016113499291906129a4565b6040516020818303038152906040525b9392505050565b6000818152600b6020526040812060040154429061139d9061138590620151806129d3565b6000858152600b602052604090206003015490611b01565b106113ea5760405162461bcd60e51b815260206004820152601560248201527f706f6c696379206973206e6f7420657870697265640000000000000000000000604482015260640161060b565b6000828152600b602052604090206006015467ffffffffffffffff166114525760405162461bcd60e51b815260206004820152601560248201527f706f6c69637920646f6573206e6f742065786973740000000000000000000000604482015260640161060b565b6000828152600b602052604090206008015462010000900460ff16156114ba5760405162461bcd60e51b815260206004820152601b60248201527f706f6c69637920697320616c72656164792063616e63656c6c65640000000000604482015260640161060b565b6000828152600b6020526040902060080154610100900460ff16156112825760405162461bcd60e51b815260206004820152601c60248201527f706f6c696379206973206170706c79696e6720666f7220636c61696d00000000604482015260640161060b565b600c5474010000000000000000000000000000000000000000900460ff161561158c5760405162461bcd60e51b815260206004820152601360248201527f616c726561647920696e697469616c697a656400000000000000000000000000604482015260640161060b565b6001600160a01b0382166116085760405162461bcd60e51b815260206004820152602160248201527f6c6971756964697479506f6f6c2063616e6e6f7420626520302061646472657360448201527f7300000000000000000000000000000000000000000000000000000000000000606482015260840161060b565b600c8054600d80546001600160a01b0394851673ffffffffffffffffffffffffffffffffffffffff19919091161790557fffffffffffffffffffffff00000000000000000000000000000000000000000016919092161774010000000000000000000000000000000000000000179055565b60007fffffffff0000000000000000000000000000000000000000000000000000000082167f80ac58cd00000000000000000000000000000000000000000000000000000000148061170d57507fffffffff0000000000000000000000000000000000000000000000000000000082167f5b5e139f00000000000000000000000000000000000000000000000000000000145b806104bb57507f01ffc9a7000000000000000000000000000000000000000000000000000000007fffffffff000000000000000000000000000000000000000000000000000000008316146104bb565b6000818152600260205260409020546001600160a01b03166117c15760405162461bcd60e51b815260206004820152601860248201527f4552433732313a20696e76616c696420746f6b656e2049440000000000000000604482015260640161060b565b50565b6000818152600460205260409020805473ffffffffffffffffffffffffffffffffffffffff19166001600160a01b0384169081179091558190611806826109f7565b6001600160a01b03167f8c5be1e5ebec7d5bd14f71427d1e84f3dd0314c0f7b2291e5b200ac8c7c3b92560405160405180910390a45050565b60008061184b836109f7565b9050806001600160a01b0316846001600160a01b0316148061189257506001600160a01b0380821660009081526005602090815260408083209388168352929052205460ff165b806118b65750836001600160a01b03166118ab84610553565b6001600160a01b0316145b949350505050565b826001600160a01b03166118d1826109f7565b6001600160a01b03161461194d5760405162461bcd60e51b815260206004820152602560248201527f4552433732313a207472616e736665722066726f6d20696e636f72726563742060448201527f6f776e6572000000000000000000000000000000000000000000000000000000606482015260840161060b565b6001600160a01b0382166119c85760405162461bcd60e51b8152602060048201526024808201527f4552433732313a207472616e7366657220746f20746865207a65726f2061646460448201527f7265737300000000000000000000000000000000000000000000000000000000606482015260840161060b565b6119d58383836001611f5d565b826001600160a01b03166119e8826109f7565b6001600160a01b031614611a645760405162461bcd60e51b815260206004820152602560248201527f4552433732313a207472616e736665722066726f6d20696e636f72726563742060448201527f6f776e6572000000000000000000000000000000000000000000000000000000606482015260840161060b565b6000818152600460209081526040808320805473ffffffffffffffffffffffffffffffffffffffff199081169091556001600160a01b0387811680865260038552838620805460001901905590871680865283862080546001019055868652600290945282852080549092168417909155905184937fddf252ad1be2c89b69c2b068fc378daa952ba7f163c4a11628f55a4df523b3ef91a4505050565b600061135982846129f2565b6001600160a01b038216611b635760405162461bcd60e51b815260206004820181905260248201527f4552433732313a206d696e7420746f20746865207a65726f2061646472657373604482015260640161060b565b6000818152600260205260409020546001600160a01b031615611bc85760405162461bcd60e51b815260206004820152601c60248201527f4552433732313a20746f6b656e20616c7265616479206d696e74656400000000604482015260640161060b565b611bd6600083836001611f5d565b6000818152600260205260409020546001600160a01b031615611c3b5760405162461bcd60e51b815260206004820152601c60248201527f4552433732313a20746f6b656e20616c7265616479206d696e74656400000000604482015260640161060b565b6001600160a01b0382166000818152600360209081526040808320805460010190558483526002909152808220805473ffffffffffffffffffffffffffffffffffffffff19168417905551839291907fddf252ad1be2c89b69c2b068fc378daa952ba7f163c4a11628f55a4df523b3ef908290a45050565b6000611cbe826109f7565b9050611cce816000846001611f5d565b611cd7826109f7565b6000838152600460209081526040808320805473ffffffffffffffffffffffffffffffffffffffff199081169091556001600160a01b0385168085526003845282852080546000190190558785526002909352818420805490911690555192935084927fddf252ad1be2c89b69c2b068fc378daa952ba7f163c4a11628f55a4df523b3ef908390a45050565b816001600160a01b0316836001600160a01b03161415611dc55760405162461bcd60e51b815260206004820152601960248201527f4552433732313a20617070726f766520746f2063616c6c657200000000000000604482015260640161060b565b6001600160a01b03838116600081815260056020908152604080832094871680845294825291829020805460ff191686151590811790915591519182527f17307eab39ab6107e8899845ad3d59bd9653f200f220920489ca2b5937696c31910160405180910390a3505050565b611e3d8484846118be565b611e4984848484612099565b6111ac5760405162461bcd60e51b815260206004820152603260248201527f4552433732313a207472616e7366657220746f206e6f6e20455243373231526560448201527f63656976657220696d706c656d656e7465720000000000000000000000000000606482015260840161060b565b60606000611ec883612246565b600101905060008167ffffffffffffffff811115611ee857611ee86127f3565b6040519080825280601f01601f191660200182016040528015611f12576020820181803683370190505b5090508181016020015b600019017f3031323334353637383961626364656600000000000000000000000000000000600a86061a8153600a8504945084611f5857610930565b611f1c565b6001811115611fd45760405162461bcd60e51b815260206004820152603560248201527f455243373231456e756d657261626c653a20636f6e736563757469766520747260448201527f616e7366657273206e6f7420737570706f727465640000000000000000000000606482015260840161060b565b816001600160a01b0385166120305761202b81600880546000838152600960205260408120829055600182018355919091527ff3f7a9fe364faab93b216da50a3214154f22a0a2b415b23a84c8169e8b636ee30155565b612053565b836001600160a01b0316856001600160a01b031614612053576120538582612328565b6001600160a01b03841661206f5761206a816123c5565b612092565b846001600160a01b0316846001600160a01b031614612092576120928482612474565b5050505050565b60006001600160a01b0384163b1561223b576040517f150b7a020000000000000000000000000000000000000000000000000000000081526001600160a01b0385169063150b7a02906120f6903390899088908890600401612a0a565b602060405180830381600087803b15801561211057600080fd5b505af1925050508015612140575060408051601f3d908101601f1916820190925261213d91810190612a46565b60015b6121f0573d80801561216e576040519150601f19603f3d011682016040523d82523d6000602084013e612173565b606091505b5080516121e85760405162461bcd60e51b815260206004820152603260248201527f4552433732313a207472616e7366657220746f206e6f6e20455243373231526560448201527f63656976657220696d706c656d656e7465720000000000000000000000000000606482015260840161060b565b805181602001fd5b7fffffffff00000000000000000000000000000000000000000000000000000000167f150b7a02000000000000000000000000000000000000000000000000000000001490506118b6565b506001949350505050565b6000807a184f03e93ff9f4daa797ed6e38ed64bf6a1f010000000000000000831061228f577a184f03e93ff9f4daa797ed6e38ed64bf6a1f010000000000000000830492506040015b6d04ee2d6d415b85acef810000000083106122bb576d04ee2d6d415b85acef8100000000830492506020015b662386f26fc1000083106122d957662386f26fc10000830492506010015b6305f5e10083106122f1576305f5e100830492506008015b612710831061230557612710830492506004015b60648310612317576064830492506002015b600a83106104bb5760010192915050565b6000600161233584610a5c565b61233f9190612a63565b600083815260076020526040902054909150808214612392576001600160a01b03841660009081526006602090815260408083208584528252808320548484528184208190558352600790915290208190555b5060009182526007602090815260408084208490556001600160a01b039094168352600681528383209183525290812055565b6008546000906123d790600190612a63565b600083815260096020526040812054600880549394509092849081106123ff576123ff61295d565b9060005260206000200154905080600883815481106124205761242061295d565b600091825260208083209091019290925582815260099091526040808220849055858252812055600880548061245857612458612a7a565b6001900381819060005260206000200160009055905550505050565b600061247f83610a5c565b6001600160a01b039093166000908152600660209081526040808320868452825280832085905593825260079052919091209190915550565b7fffffffff00000000000000000000000000000000000000000000000000000000811681146117c157600080fd5b6000602082840312156124f857600080fd5b8135611359816124b8565b60005b8381101561251e578181015183820152602001612506565b838111156111ac5750506000910152565b60008151808452612547816020860160208601612503565b601f01601f19169290920160200192915050565b602081526000611359602083018461252f565b60006020828403121561258057600080fd5b5035919050565b6001600160a01b03811681146117c157600080fd5b600080604083850312156125af57600080fd5b82356125ba81612587565b946020939093013593505050565b6000806000606084860312156125dd57600080fd5b83356125e881612587565b925060208401356125f881612587565b929592945050506040919091013590565b8035801515811461261957600080fd5b919050565b6000806040838503121561263157600080fd5b8235915061264160208401612609565b90509250929050565b60006020828403121561265c57600080fd5b813561135981612587565b6020808252825182820181905260009190848201906040850190845b8181101561269f57835183529284019291840191600101612683565b50909695505050505050565b600080600080600080600080610100898b0312156126c857600080fd5b88356126d381612587565b97506020890135965060408901359550606089013567ffffffffffffffff811681146126fe57600080fd5b979a969950949760808101359660a0820135965060c0820135955060e0909101359350915050565b81516001600160a01b0316815261016081016020830151602083015260408301516040830152606083015160608301526080830151608083015260a083015160a083015260c083015161278560c084018267ffffffffffffffff169052565b5060e083015160e0830152610100808401516127a48285018215159052565b505061012083810151151590830152610140928301511515929091019190915290565b600080604083850312156127da57600080fd5b82356127e581612587565b915061264160208401612609565b634e487b7160e01b600052604160045260246000fd5b6000806000806080858703121561281f57600080fd5b843561282a81612587565b9350602085013561283a81612587565b925060408501359150606085013567ffffffffffffffff8082111561285e57600080fd5b818701915087601f83011261287257600080fd5b813581811115612884576128846127f3565b604051601f8201601f19908116603f011681019083821181831017156128ac576128ac6127f3565b816040528281528a60208487010111156128c557600080fd5b82602086016020830137600060208483010152809550505050505092959194509250565b600080604083850312156128fc57600080fd5b823561290781612587565b9150602083013561291781612587565b809150509250929050565b600181811c9082168061293657607f821691505b6020821081141561295757634e487b7160e01b600052602260045260246000fd5b50919050565b634e487b7160e01b600052603260045260246000fd5b634e487b7160e01b600052601160045260246000fd5b600060001982141561299d5761299d612973565b5060010190565b600083516129b6818460208801612503565b8351908301906129ca818360208801612503565b01949350505050565b60008160001904831182151516156129ed576129ed612973565b500290565b60008219821115612a0557612a05612973565b500190565b60006001600160a01b03808716835280861660208401525083604083015260806060830152612a3c608083018461252f565b9695505050505050565b600060208284031215612a5857600080fd5b8151611359816124b8565b600082821015612a7557612a75612973565b500390565b634e487b7160e01b600052603160045260246000fdfea26469706673582212209d465f385bad43eaa2feda52568866857b22c56c6293d4a393716e50a5acb9cb64736f6c63430008090033",
  "linkReferences": {},
  "deployedLinkReferences": {}
}