{
  "_format": "hh-sol-artifact-1",
  "contractName": "MetaDefender",
  "sourceName": "contracts/MetaDefender.sol",
  "abi": [
    {
      "inputs": [],
      "stateMutability": "nonpayable",
      "type": "constructor"
    },
    {
      "inputs": [],
      "name": "CertificateExit",
      "type": "error"
    },
    {
      "inputs": [],
      "name": "CertificateNotExit",
      "type": "error"
    },
    {
      "inputs": [],
      "name": "CertificateNotSignalWithdraw",
      "type": "error"
    },
    {
      "inputs": [
        {
          "internalType": "uint256",
          "name": "id",
          "type": "uint256"
        }
      ],
      "name": "ClaimNotUnderProcessing",
      "type": "error"
    },
    {
      "inputs": [
        {
          "internalType": "uint256",
          "name": "id",
          "type": "uint256"
        }
      ],
      "name": "ClaimUnderProcessing",
      "type": "error"
    },
    {
      "inputs": [
        {
          "internalType": "uint256",
          "name": "coverage",
          "type": "uint256"
        }
      ],
      "name": "CoverageTooLarge",
      "type": "error"
    },
    {
      "inputs": [
        {
          "internalType": "uint256",
          "name": "id",
          "type": "uint256"
        }
      ],
      "name": "InsufficientLiquidity",
      "type": "error"
    },
    {
      "inputs": [],
      "name": "InsufficientPrivilege",
      "type": "error"
    },
    {
      "inputs": [],
      "name": "InsufficientUsableCapital",
      "type": "error"
    },
    {
      "inputs": [
        {
          "internalType": "address",
          "name": "addr",
          "type": "address"
        }
      ],
      "name": "InvalidAddress",
      "type": "error"
    },
    {
      "inputs": [
        {
          "internalType": "address",
          "name": "proxy",
          "type": "address"
        }
      ],
      "name": "InvalidMiningProxy",
      "type": "error"
    },
    {
      "inputs": [
        {
          "internalType": "uint256",
          "name": "id",
          "type": "uint256"
        }
      ],
      "name": "InvalidPolicy",
      "type": "error"
    },
    {
      "inputs": [],
      "name": "NoRewards",
      "type": "error"
    },
    {
      "inputs": [],
      "name": "NotClaimAvailable",
      "type": "error"
    },
    {
      "inputs": [],
      "name": "NotWithdrawDay",
      "type": "error"
    },
    {
      "inputs": [
        {
          "internalType": "uint256",
          "name": "id",
          "type": "uint256"
        }
      ],
      "name": "PolicyAlreadyCancelled",
      "type": "error"
    },
    {
      "inputs": [
        {
          "internalType": "uint256",
          "name": "id",
          "type": "uint256"
        }
      ],
      "name": "PolicyAlreadyClaimed",
      "type": "error"
    },
    {
      "inputs": [
        {
          "internalType": "uint256",
          "name": "id",
          "type": "uint256"
        }
      ],
      "name": "PolicyAlreadySettled",
      "type": "error"
    },
    {
      "inputs": [
        {
          "internalType": "uint256",
          "name": "id",
          "type": "uint256"
        }
      ],
      "name": "PolicyAlreadyStale",
      "type": "error"
    },
    {
      "inputs": [
        {
          "internalType": "uint256",
          "name": "id",
          "type": "uint256"
        }
      ],
      "name": "PolicyCanNotBeCancelled",
      "type": "error"
    },
    {
      "inputs": [
        {
          "internalType": "uint256",
          "name": "id",
          "type": "uint256"
        }
      ],
      "name": "PolicyCanOnlyCancelledByHolder",
      "type": "error"
    },
    {
      "inputs": [
        {
          "internalType": "uint256",
          "name": "id",
          "type": "uint256"
        }
      ],
      "name": "PreviousPolicyNotCancelled",
      "type": "error"
    },
    {
      "inputs": [
        {
          "internalType": "address",
          "name": "providerAddress",
          "type": "address"
        }
      ],
      "name": "ProviderDetected",
      "type": "error"
    },
    {
      "inputs": [
        {
          "internalType": "uint256",
          "name": "_certificateId",
          "type": "uint256"
        }
      ],
      "name": "ProviderNotExist",
      "type": "error"
    },
    {
      "inputs": [
        {
          "internalType": "uint256",
          "name": "id",
          "type": "uint256"
        }
      ],
      "name": "ProviderNotStale",
      "type": "error"
    },
    {
      "inputs": [
        {
          "internalType": "address",
          "name": "sender",
          "type": "address"
        },
        {
          "internalType": "address",
          "name": "beneficiary",
          "type": "address"
        }
      ],
      "name": "SenderNotBeneficiary",
      "type": "error"
    },
    {
      "inputs": [],
      "name": "ShouldNotDelete",
      "type": "error"
    },
    {
      "inputs": [],
      "name": "WithdrawDay",
      "type": "error"
    },
    {
      "inputs": [],
      "name": "exerciseNotAvailable",
      "type": "error"
    },
    {
      "inputs": [],
      "name": "invalidAseedOptionPeriod",
      "type": "error"
    },
    {
      "inputs": [],
      "name": "optionTradeDurationPassed",
      "type": "error"
    },
    {
      "inputs": [],
      "name": "priceStrike",
      "type": "error"
    },
    {
      "inputs": [],
      "name": "totalCoverageExceed",
      "type": "error"
    },
    {
      "anonymous": false,
      "inputs": [
        {
          "indexed": false,
          "internalType": "uint256",
          "name": "id",
          "type": "uint256"
        },
        {
          "indexed": false,
          "internalType": "address",
          "name": "policyBuyer",
          "type": "address"
        },
        {
          "indexed": false,
          "internalType": "uint256",
          "name": "coverage",
          "type": "uint256"
        }
      ],
      "name": "CoverageClaimedAndTransferred",
      "type": "event"
    },
    {
      "anonymous": false,
      "inputs": [
        {
          "indexed": false,
          "internalType": "uint256",
          "name": "policyId",
          "type": "uint256"
        },
        {
          "indexed": false,
          "internalType": "address",
          "name": "policyBuyer",
          "type": "address"
        },
        {
          "indexed": false,
          "internalType": "uint256",
          "name": "amount",
          "type": "uint256"
        }
      ],
      "name": "NewPolicyBought",
      "type": "event"
    },
    {
      "anonymous": false,
      "inputs": [
        {
          "indexed": false,
          "internalType": "address",
          "name": "official",
          "type": "address"
        }
      ],
      "name": "OfficialChanged",
      "type": "event"
    },
    {
      "anonymous": false,
      "inputs": [
        {
          "indexed": true,
          "internalType": "address",
          "name": "previousOwner",
          "type": "address"
        },
        {
          "indexed": true,
          "internalType": "address",
          "name": "newOwner",
          "type": "address"
        }
      ],
      "name": "OwnershipTransferred",
      "type": "event"
    },
    {
      "anonymous": false,
      "inputs": [
        {
          "indexed": false,
          "internalType": "uint256",
          "name": "id",
          "type": "uint256"
        }
      ],
      "name": "PolicyCancelled",
      "type": "event"
    },
    {
      "anonymous": false,
      "inputs": [
        {
          "indexed": false,
          "internalType": "uint256",
          "name": "provider",
          "type": "uint256"
        }
      ],
      "name": "ProviderEntered",
      "type": "event"
    },
    {
      "anonymous": false,
      "inputs": [
        {
          "indexed": false,
          "internalType": "address",
          "name": "providerAddress",
          "type": "address"
        }
      ],
      "name": "ProviderExit",
      "type": "event"
    },
    {
      "anonymous": false,
      "inputs": [
        {
          "indexed": false,
          "internalType": "address",
          "name": "provider",
          "type": "address"
        },
        {
          "indexed": false,
          "internalType": "uint256",
          "name": "amount",
          "type": "uint256"
        }
      ],
      "name": "RewardsClaimed",
      "type": "event"
    },
    {
      "anonymous": false,
      "inputs": [
        {
          "indexed": false,
          "internalType": "uint256",
          "name": "standardRisk",
          "type": "uint256"
        }
      ],
      "name": "StandardRiskUpdated",
      "type": "event"
    },
    {
      "anonymous": false,
      "inputs": [],
      "name": "TeamClaimed",
      "type": "event"
    },
    {
      "inputs": [],
      "name": "BASE_POINT",
      "outputs": [
        {
          "internalType": "uint256",
          "name": "",
          "type": "uint256"
        }
      ],
      "stateMutability": "view",
      "type": "function"
    },
    {
      "inputs": [],
      "name": "BUFFER",
      "outputs": [
        {
          "internalType": "uint256",
          "name": "",
          "type": "uint256"
        }
      ],
      "stateMutability": "view",
      "type": "function"
    },
    {
      "inputs": [],
      "name": "DECIMAL_CONVERT",
      "outputs": [
        {
          "internalType": "uint256",
          "name": "",
          "type": "uint256"
        }
      ],
      "stateMutability": "view",
      "type": "function"
    },
    {
      "inputs": [],
      "name": "DURATION",
      "outputs": [
        {
          "internalType": "uint256",
          "name": "",
          "type": "uint256"
        }
      ],
      "stateMutability": "view",
      "type": "function"
    },
    {
      "inputs": [],
      "name": "FEE",
      "outputs": [
        {
          "internalType": "uint256",
          "name": "",
          "type": "uint256"
        }
      ],
      "stateMutability": "view",
      "type": "function"
    },
    {
      "inputs": [],
      "name": "FEE_RATE",
      "outputs": [
        {
          "internalType": "uint256",
          "name": "",
          "type": "uint256"
        }
      ],
      "stateMutability": "view",
      "type": "function"
    },
    {
      "inputs": [],
      "name": "FREE_RATE",
      "outputs": [
        {
          "internalType": "int256",
          "name": "",
          "type": "int256"
        }
      ],
      "stateMutability": "view",
      "type": "function"
    },
    {
      "inputs": [],
      "name": "MAX_COVERAGE_PERCENTAGE",
      "outputs": [
        {
          "internalType": "uint256",
          "name": "",
          "type": "uint256"
        }
      ],
      "stateMutability": "view",
      "type": "function"
    },
    {
      "inputs": [],
      "name": "WITHDRAWAL_FEE_RATE",
      "outputs": [
        {
          "internalType": "uint256",
          "name": "",
          "type": "uint256"
        }
      ],
      "stateMutability": "view",
      "type": "function"
    },
    {
      "inputs": [
        {
          "internalType": "address",
          "name": "beneficiary",
          "type": "address"
        },
        {
          "internalType": "uint256",
          "name": "coverage",
          "type": "uint256"
        }
      ],
      "name": "buyPolicy",
      "outputs": [],
      "stateMutability": "nonpayable",
      "type": "function"
    },
    {
      "inputs": [
        {
          "internalType": "uint256",
          "name": "amount",
          "type": "uint256"
        }
      ],
      "name": "certificateProviderEntrance",
      "outputs": [],
      "stateMutability": "nonpayable",
      "type": "function"
    },
    {
      "inputs": [
        {
          "internalType": "uint256",
          "name": "certificateId",
          "type": "uint256"
        }
      ],
      "name": "certificateProviderExit",
      "outputs": [],
      "stateMutability": "nonpayable",
      "type": "function"
    },
    {
      "inputs": [
        {
          "internalType": "uint256",
          "name": "certificateId",
          "type": "uint256"
        }
      ],
      "name": "claimRewards",
      "outputs": [],
      "stateMutability": "nonpayable",
      "type": "function"
    },
    {
      "inputs": [],
      "name": "epochCheck",
      "outputs": [],
      "stateMutability": "nonpayable",
      "type": "function"
    },
    {
      "inputs": [],
      "name": "epochManage",
      "outputs": [
        {
          "internalType": "contract IEpochManage",
          "name": "",
          "type": "address"
        }
      ],
      "stateMutability": "view",
      "type": "function"
    },
    {
      "inputs": [],
      "name": "getGlobalInfo",
      "outputs": [
        {
          "components": [
            {
              "internalType": "uint256",
              "name": "accSPS",
              "type": "uint256"
            },
            {
              "internalType": "uint256",
              "name": "accRPS",
              "type": "uint256"
            },
            {
              "internalType": "uint256",
              "name": "accRealSPS",
              "type": "uint256"
            },
            {
              "internalType": "uint256",
              "name": "risk",
              "type": "uint256"
            },
            {
              "internalType": "uint256",
              "name": "reward4Team",
              "type": "uint256"
            },
            {
              "internalType": "uint256",
              "name": "standardRisk",
              "type": "uint256"
            },
            {
              "internalType": "uint256",
              "name": "strikeRate",
              "type": "uint256"
            },
            {
              "internalType": "uint256",
              "name": "baseRate",
              "type": "uint256"
            }
          ],
          "internalType": "struct IMetaDefender.GlobalInfo",
          "name": "",
          "type": "tuple"
        }
      ],
      "stateMutability": "view",
      "type": "function"
    },
    {
      "inputs": [
        {
          "internalType": "uint256",
          "name": "certificateId",
          "type": "uint256"
        },
        {
          "internalType": "bool",
          "name": "isExit",
          "type": "bool"
        }
      ],
      "name": "getRewards",
      "outputs": [
        {
          "internalType": "uint256",
          "name": "",
          "type": "uint256"
        }
      ],
      "stateMutability": "view",
      "type": "function"
    },
    {
      "inputs": [
        {
          "internalType": "uint256",
          "name": "certificateId",
          "type": "uint256"
        }
      ],
      "name": "getSPSLockedByCertificateId",
      "outputs": [
        {
          "internalType": "uint256",
          "name": "",
          "type": "uint256"
        },
        {
          "internalType": "uint256",
          "name": "",
          "type": "uint256"
        }
      ],
      "stateMutability": "view",
      "type": "function"
    },
    {
      "inputs": [],
      "name": "globalInfo",
      "outputs": [
        {
          "internalType": "uint256",
          "name": "accSPS",
          "type": "uint256"
        },
        {
          "internalType": "uint256",
          "name": "accRPS",
          "type": "uint256"
        },
        {
          "internalType": "uint256",
          "name": "accRealSPS",
          "type": "uint256"
        },
        {
          "internalType": "uint256",
          "name": "risk",
          "type": "uint256"
        },
        {
          "internalType": "uint256",
          "name": "reward4Team",
          "type": "uint256"
        },
        {
          "internalType": "uint256",
          "name": "standardRisk",
          "type": "uint256"
        },
        {
          "internalType": "uint256",
          "name": "strikeRate",
          "type": "uint256"
        },
        {
          "internalType": "uint256",
          "name": "baseRate",
          "type": "uint256"
        }
      ],
      "stateMutability": "view",
      "type": "function"
    },
    {
      "inputs": [
        {
          "internalType": "contract IERC20",
          "name": "_aUSD",
          "type": "address"
        },
        {
          "internalType": "address",
          "name": "_official",
          "type": "address"
        },
        {
          "internalType": "contract ILiquidityCertificate",
          "name": "_liquidityCertificate",
          "type": "address"
        },
        {
          "internalType": "contract IPolicy",
          "name": "_policy",
          "type": "address"
        },
        {
          "internalType": "contract IAmericanBinaryOptions",
          "name": "_americanBinaryOptions",
          "type": "address"
        },
        {
          "internalType": "contract IEpochManage",
          "name": "_epochManage",
          "type": "address"
        },
        {
          "internalType": "uint256",
          "name": "_initialRisk",
          "type": "uint256"
        },
        {
          "internalType": "uint256",
          "name": "_teamReserveRate",
          "type": "uint256"
        },
        {
          "internalType": "uint256",
          "name": "_standardRisk",
          "type": "uint256"
        },
        {
          "internalType": "uint256",
          "name": "_strikeRate",
          "type": "uint256"
        },
        {
          "internalType": "uint256",
          "name": "_baseRate",
          "type": "uint256"
        }
      ],
      "name": "init",
      "outputs": [],
      "stateMutability": "nonpayable",
      "type": "function"
    },
    {
      "inputs": [],
      "name": "judger",
      "outputs": [
        {
          "internalType": "address",
          "name": "",
          "type": "address"
        }
      ],
      "stateMutability": "view",
      "type": "function"
    },
    {
      "inputs": [],
      "name": "medalCount",
      "outputs": [
        {
          "internalType": "uint256",
          "name": "",
          "type": "uint256"
        }
      ],
      "stateMutability": "view",
      "type": "function"
    },
    {
      "inputs": [],
      "name": "official",
      "outputs": [
        {
          "internalType": "address",
          "name": "",
          "type": "address"
        }
      ],
      "stateMutability": "view",
      "type": "function"
    },
    {
      "inputs": [],
      "name": "owner",
      "outputs": [
        {
          "internalType": "address",
          "name": "",
          "type": "address"
        }
      ],
      "stateMutability": "view",
      "type": "function"
    },
    {
      "inputs": [
        {
          "internalType": "uint256",
          "name": "policyId",
          "type": "uint256"
        }
      ],
      "name": "policyClaimApply",
      "outputs": [],
      "stateMutability": "nonpayable",
      "type": "function"
    },
    {
      "inputs": [],
      "name": "protocol",
      "outputs": [
        {
          "internalType": "address",
          "name": "",
          "type": "address"
        }
      ],
      "stateMutability": "view",
      "type": "function"
    },
    {
      "inputs": [],
      "name": "providerCount",
      "outputs": [
        {
          "internalType": "uint256",
          "name": "",
          "type": "uint256"
        }
      ],
      "stateMutability": "view",
      "type": "function"
    },
    {
      "inputs": [],
      "name": "renounceOwnership",
      "outputs": [],
      "stateMutability": "nonpayable",
      "type": "function"
    },
    {
      "inputs": [],
      "name": "teamClaim",
      "outputs": [],
      "stateMutability": "nonpayable",
      "type": "function"
    },
    {
      "inputs": [],
      "name": "teamReserveRate",
      "outputs": [
        {
          "internalType": "uint256",
          "name": "",
          "type": "uint256"
        }
      ],
      "stateMutability": "view",
      "type": "function"
    },
    {
      "inputs": [],
      "name": "totalCoverage",
      "outputs": [
        {
          "internalType": "uint256",
          "name": "",
          "type": "uint256"
        }
      ],
      "stateMutability": "view",
      "type": "function"
    },
    {
      "inputs": [
        {
          "internalType": "address",
          "name": "_official",
          "type": "address"
        }
      ],
      "name": "transferOfficial",
      "outputs": [],
      "stateMutability": "nonpayable",
      "type": "function"
    },
    {
      "inputs": [
        {
          "internalType": "address",
          "name": "newOwner",
          "type": "address"
        }
      ],
      "name": "transferOwnership",
      "outputs": [],
      "stateMutability": "nonpayable",
      "type": "function"
    },
    {
      "inputs": [
        {
          "internalType": "uint256",
          "name": "standardRisk",
          "type": "uint256"
        }
      ],
      "name": "updateStandardRisk",
      "outputs": [],
      "stateMutability": "nonpayable",
      "type": "function"
    },
    {
      "inputs": [
        {
          "internalType": "uint256",
          "name": "certificateId",
          "type": "uint256"
        }
      ],
      "name": "withdrawAfterExit",
      "outputs": [],
      "stateMutability": "nonpayable",
      "type": "function"
    }
  ],
  "bytecode": "0x60806040526016805460ff191690553480156200001b57600080fd5b5060016000556200002c3362000032565b62000084565b600180546001600160a01b038381166001600160a01b0319831681179093556040519116919082907f8be0079c531659141344cd1fd0a4f28419497f9722a3daafe3b4186f6b6457e090600090a35050565b613d8a80620000946000396000f3fe608060405234801561001057600080fd5b50600436106102415760003560e01c8063841fb96c11610145578063c57981b5116100bd578063dab680dc1161008c578063f2fde38b11610071578063f2fde38b14610511578063fb01508d14610524578063fdd5e74f1461052c57600080fd5b8063dab680dc14610447578063f04b5fa0146104b057600080fd5b8063c57981b514610415578063d51942e21461041d578063d79253b514610426578063da9f509b1461043957600080fd5b80638fbc3ecd116101145780639e2a89d3116100f95780639e2a89d3146103dc578063a30e906c146103ef578063b8f7506d1461040257600080fd5b80638fbc3ecd146103c1578063980389e0146103c957600080fd5b8063841fb96c1461035f5780638890b28e146103725780638ce74426146103855780638da5cb5b146103b057600080fd5b80632f0f296c116101d85780636ecaf8f2116101a757806374c832681161018c57806374c83268146103305780637dd1d3f314610339578063835df17b1461034c57600080fd5b80636ecaf8f21461031a578063715018a61461032857600080fd5b80632f0f296c146102e35780634e165f34146102ec57806366596b52146102ff5780636ae146c21461031257600080fd5b80631b052450116102145780631b052450146102ad5780631be05289146102bc57806323b05453146102c45780632d11c58a146102d557600080fd5b8063088cf568146102465780630962ef79146102625780630a6c2d8d146102775780631135daeb1461029f575b600080fd5b61024f60145481565b6040519081526020015b60405180910390f35b610275610270366004613788565b61053f565b005b61028a610285366004613788565b610930565b60408051928352602083019190915201610259565b61024f662386f26fc1000081565b61024f6702c68af0bb14000081565b61024f601981565b61024f69d3c21bcecceda100000081565b61024f66b1a2bc2ec5000081565b61024f60125481565b6102756102fa366004613788565b610df5565b61027561030d3660046137b6565b6112e7565b610275611374565b61024f66d529ae9e86000081565b61027561145c565b61024f60135481565b610275610347366004613788565b611470565b61027561035a3660046137d3565b61174e565b61027561036d366004613788565b612024565b610275610380366004613788565b61236e565b601154610398906001600160a01b031681565b6040516001600160a01b039091168152602001610259565b6001546001600160a01b0316610398565b61024f600381565b601054610398906001600160a01b031681565b600d54610398906001600160a01b031681565b600f54610398906001600160a01b031681565b6102756104103660046137ff565b6123ce565b61024f600081565b61024f60155481565b610275610434366004613788565b61250e565b61024f660aa87bee53800081565b61044f612b7d565b6040516102599190600061010082019050825182526020830151602083015260408301516040830152606083015160608301526080830151608083015260a083015160a083015260c083015160c083015260e083015160e083015292915050565b6002546003546004546005546006546007546008546009546104d6979695949392919088565b604080519889526020890197909752958701949094526060860192909252608085015260a084015260c083015260e082015261010001610259565b61027561051f3660046137b6565b612c13565b610275612ca0565b61024f61053a3660046138c1565b612f93565b6105476132e2565b60165460ff166105db57600d60009054906101000a90046001600160a01b03166001600160a01b0316639b63039c6040518163ffffffff1660e01b8152600401602060405180830381600087803b1580156105a157600080fd5b505af11580156105b5573d6000803e3d6000fd5b505050506040513d601f19601f820116820180604052508101906105d99190613901565b505b600b546040516377d982f760e01b8152600481018390526001600160a01b03909116906377d982f79060240160206040518083038186803b15801561061f57600080fd5b505afa158015610633573d6000803e3d6000fd5b505050506040513d601f19601f820116820180604052508101906106579190613929565b6001600160a01b0316336001600160a01b03161461068857604051630e2c181360e41b815260040160405180910390fd5b6000610695826000612f93565b9050801561087d5760006001600d60009054906101000a90046001600160a01b03166001600160a01b031663b057edd16040518163ffffffff1660e01b815260040160206040518083038186803b1580156106ef57600080fd5b505afa158015610703573d6000803e3d6000fd5b505050506040513d601f19601f82011682018060405250810190610727919061395e565b610731919061398f565b600b546040517fdf49dc5e0000000000000000000000000000000000000000000000000000000081526004810186905267ffffffffffffffff831660248201529192506001600160a01b03169063df49dc5e90604401600060405180830381600087803b1580156107a157600080fd5b505af11580156107b5573d6000803e3d6000fd5b5050600a5460405163a9059cbb60e01b8152336004820152602481018690526001600160a01b03909116925063a9059cbb9150604401602060405180830381600087803b15801561080557600080fd5b505af1158015610819573d6000803e3d6000fd5b505050506040513d601f19601f8201168201806040525081019061083d9190613901565b5060408051338152602081018490527ffc30cddea38e2bf4d6ea7d3f9ed3b6ad7f176419f4963bd81318067a4aee73fe910160405180910390a1506108af565b6040517f3fb087f400000000000000000000000000000000000000000000000000000000815260040160405180910390fd5b5060165460ff1661092357600d60009054906101000a90046001600160a01b03166001600160a01b03166374d7e7c36040518163ffffffff1660e01b8152600401600060405180830381600087803b15801561090a57600080fd5b505af115801561091e573d6000803e3d6000fd5b505050505b61092d6001600055565b50565b600b5460405163e620f9e360e01b815260048101839052600091829182916001600160a01b03169063e620f9e39060240160c06040518083038186803b15801561097957600080fd5b505afa15801561098d573d6000803e3d6000fd5b505050506040513d601f19601f820116820180604052508101906109b191906139f0565b600d5481516040516355d467e760e01b815267ffffffffffffffff90911660048201529192506000916001600160a01b03909116906355d467e79060240160a06040518083038186803b158015610a0757600080fd5b505afa158015610a1b573d6000803e3d6000fd5b505050506040513d601f19601f82011682018060405250810190610a3f9190613a91565b600d5460208401516040516355d467e760e01b815267ffffffffffffffff90911660048201529192506000916001600160a01b03909116906355d467e79060240160a06040518083038186803b158015610a9857600080fd5b505afa158015610aac573d6000803e3d6000fd5b505050506040513d601f19601f82011682018060405250810190610ad09190613a91565b90506000600d60009054906101000a90046001600160a01b03166001600160a01b031663babc394f6040518163ffffffff1660e01b815260040160a06040518083038186803b158015610b2257600080fd5b505afa158015610b36573d6000803e3d6000fd5b505050506040513d601f19601f82011682018060405250810190610b5a9190613a91565b90506000846020015167ffffffffffffffff16600014610baa57610ba58460800151610b9f8560200151610b9f8860200151886080015161333c90919063ffffffff16565b9061334f565b610bd5565b610bd58460800151610b9f8460200151610b9f8860200151876080015161333c90919063ffffffff16565b9050600d60009054906101000a90046001600160a01b03166001600160a01b0316638862cca16040518163ffffffff1660e01b815260040160206040518083038186803b158015610c2557600080fd5b505afa158015610c39573d6000803e3d6000fd5b505050506040513d601f19601f82011682018060405250810190610c5d9190613b0f565b600d60009054906101000a90046001600160a01b03166001600160a01b03166378e979256040518163ffffffff1660e01b815260040160206040518083038186803b158015610cab57600080fd5b505afa158015610cbf573d6000803e3d6000fd5b505050506040513d601f19601f82011682018060405250810190610ce39190613b0f565b610ced9190613b28565b4210158015610d765750600d54604080516380d0824960e01b815290516007926001600160a01b0316916380d08249916004808301926020929190829003018186803b158015610d3c57600080fd5b505afa158015610d50573d6000803e3d6000fd5b505050506040513d601f19601f82011682018060405250810190610d749190613b0f565b105b15610d7f575060005b6000856020015167ffffffffffffffff16600014610db857610db3610da887608001518461335b565b6060880151906133aa565b610de5565b610de582610dc86012600a613c24565b1015610dd5576000610da8565b610da883610b9f6012600a613c24565b9199919850909650505050505050565b610dfd6132e2565b60165460ff16610e9157600d60009054906101000a90046001600160a01b03166001600160a01b0316639b63039c6040518163ffffffff1660e01b8152600401602060405180830381600087803b158015610e5757600080fd5b505af1158015610e6b573d6000803e3d6000fd5b505050506040513d601f19601f82011682018060405250810190610e8f9190613901565b505b600d54604080517fb97dd9e200000000000000000000000000000000000000000000000000000000815290516000926001600160a01b03169163b97dd9e2916004808301926020929190829003018186803b158015610eef57600080fd5b505afa158015610f03573d6000803e3d6000fd5b505050506040513d601f19601f82011682018060405250810190610f279190613b0f565b905060006110556201518061104f62015180600d60009054906101000a90046001600160a01b03166001600160a01b03166378e979256040518163ffffffff1660e01b815260040160206040518083038186803b158015610f8757600080fd5b505afa158015610f9b573d6000803e3d6000fd5b505050506040513d601f19601f82011682018060405250810190610fbf9190613b0f565b610fc99190613c46565b600d60009054906101000a90046001600160a01b03166001600160a01b03166378e979256040518163ffffffff1660e01b815260040160206040518083038186803b15801561101757600080fd5b505afa15801561102b573d6000803e3d6000fd5b505050506040513d601f19601f82011682018060405250810190610b9f9190613b0f565b906133cc565b905080821180156110705750600961106d838361334f565b10155b156110a7576040517f59407eb200000000000000000000000000000000000000000000000000000000815260040160405180910390fd5b600a546040517f23b872dd000000000000000000000000000000000000000000000000000000008152336004820152306024820152604481018590526001600160a01b03909116906323b872dd90606401602060405180830381600087803b15801561111257600080fd5b505af1158015611126573d6000803e3d6000fd5b505050506040513d601f19601f8201168201806040525081019061114a9190613901565b50600b54600d546040805163b057edd160e01b815290516001600160a01b03938416936372d056fd93169163b057edd1916004808301926020929190829003018186803b15801561119a57600080fd5b505afa1580156111ae573d6000803e3d6000fd5b505050506040513d601f19601f820116820180604052508101906111d2919061395e565b6040516001600160e01b031960e084901b16815267ffffffffffffffff909116600482015260248101869052604401602060405180830381600087803b15801561121b57600080fd5b505af115801561122f573d6000803e3d6000fd5b505050506040513d601f19601f820116820180604052508101906112539190613b0f565b60138190556040519081527f022025f9a9dd4fa49e55d9ffb57a7e6d70443b37532e73168b5b52833dd6429c9060200160405180910390a1505060165460ff1661092357600d60009054906101000a90046001600160a01b03166001600160a01b03166374d7e7c36040518163ffffffff1660e01b8152600401600060405180830381600087803b15801561090a57600080fd5b6010546001600160a01b0316331461131257604051630e2c181360e41b815260040160405180910390fd5b6010805473ffffffffffffffffffffffffffffffffffffffff19166001600160a01b0383169081179091556040519081527f40a487b1213bac600cfb5619b04508f896844bf721672878ce130c1325d10120906020015b60405180910390a150565b6010546001600160a01b0316331461139f57604051630e2c181360e41b815260040160405180910390fd5b600a5460105460065460405163a9059cbb60e01b81526001600160a01b039283166004820152602481019190915291169063a9059cbb90604401602060405180830381600087803b1580156113f357600080fd5b505af1158015611407573d6000803e3d6000fd5b505050506040513d601f19601f8201168201806040525081019061142b9190613901565b50600060068190556040517ffe7ba5d8210203049eb6a046b62f5f89b19b0a008586a771a153d4cc1cf3a9799190a1565b6114646133d8565b61146e6000613432565b565b6114786132e2565b600b5460405163e620f9e360e01b8152600481018390526000916001600160a01b03169063e620f9e39060240160c06040518083038186803b1580156114bd57600080fd5b505afa1580156114d1573d6000803e3d6000fd5b505050506040513d601f19601f820116820180604052508101906114f591906139f0565b600b546040516377d982f760e01b8152600481018590529192506001600160a01b0316906377d982f79060240160206040518083038186803b15801561153a57600080fd5b505afa15801561154e573d6000803e3d6000fd5b505050506040513d601f19601f820116820180604052508101906115729190613929565b6001600160a01b0316336001600160a01b0316146115a357604051630e2c181360e41b815260040160405180910390fd5b602081015167ffffffffffffffff166115e8576040517f6ad2573800000000000000000000000000000000000000000000000000000000815260040160405180910390fd5b6000806115f484610930565b600b546040517f9894720300000000000000000000000000000000000000000000000000000000815260048101889052602481018490529294509092506001600160a01b031690639894720390604401600060405180830381600087803b15801561165e57600080fd5b505af1158015611672573d6000803e3d6000fd5b505050506000611692660aa87bee538000836133aa90919063ffffffff16565b6006549091506116a2908261333c565b600655600a546001600160a01b031663a9059cbb336116c1858561334f565b6040516001600160e01b031960e085901b1681526001600160a01b0390921660048301526024820152604401602060405180830381600087803b15801561170757600080fd5b505af115801561171b573d6000803e3d6000fd5b505050506040513d601f19601f8201168201806040525081019061173f9190613901565b505050505061092d6001600055565b6117566132e2565b60165460ff166117ea57600d60009054906101000a90046001600160a01b03166001600160a01b0316639b63039c6040518163ffffffff1660e01b8152600401602060405180830381600087803b1580156117b057600080fd5b505af11580156117c4573d6000803e3d6000fd5b505050506040513d601f19601f820116820180604052508101906117e89190613901565b505b600d54604080516380d0824960e01b815290516007926001600160a01b0316916380d08249916004808301926020929190829003018186803b15801561182f57600080fd5b505afa158015611843573d6000803e3d6000fd5b505050506040513d601f19601f820116820180604052508101906118679190613b0f565b1061189e576040517f951907da00000000000000000000000000000000000000000000000000000000815260040160405180910390fd5b600d60009054906101000a90046001600160a01b03166001600160a01b031663e40d6cb86040518163ffffffff1660e01b815260040160206040518083038186803b1580156118ec57600080fd5b505afa158015611900573d6000803e3d6000fd5b505050506040513d601f19601f820116820180604052508101906119249190613901565b1561195b576040517fe626930800000000000000000000000000000000000000000000000000000000815260040160405180910390fd5b600754611969906064613c5a565b8111156119aa576040517f798f2024000000000000000000000000000000000000000000000000000000008152600481018290526024015b60405180910390fd5b600b60009054906101000a90046001600160a01b03166001600160a01b031663e71392ed6040518163ffffffff1660e01b815260040160206040518083038186803b1580156119f857600080fd5b505afa158015611a0c573d6000803e3d6000fd5b505050506040513d601f19601f82011682018060405250810190611a309190613b0f565b601554611a3d908361333c565b1115611a75576040517fa14f99d100000000000000000000000000000000000000000000000000000000815260040160405180910390fd5b601554611a82908261333c565b601555600754611ac690611abd90662386f26fc1000090611ab790611ab18669d3c21bcecceda10000006133aa565b90613491565b906133aa565b6005549061333c565b600555600e546000906001600160a01b031663c979cb96611aeb601962015180613c5a565b600554600854683635c9adc5dea0000090611b079082906133aa565b6040516001600160e01b031960e087901b168152600481019490945260248401929092526044830152606482015266d529ae9e860000608482015260a40160206040518083038186803b158015611b5d57600080fd5b505afa158015611b71573d6000803e3d6000fd5b505050506040513d601f19601f82011682018060405250810190611b959190613b0f565b90506000811215611ba4575060005b6000611bc46103e861104f600260070154866134a990919063ffffffff16565b90506000611bdc82611bd685876133aa565b9061333c565b90506000611bf5601254836133aa90919063ffffffff16565b600654909150611c05908261333c565b600655600a546001600160a01b03166323b872dd3330611c2a85611bd688600061333c565b6040516001600160e01b031960e086901b1681526001600160a01b0393841660048201529290911660248301526044820152606401602060405180830381600087803b158015611c7957600080fd5b505af1158015611c8d573d6000803e3d6000fd5b505050506040513d601f19601f82011682018060405250810190611cb19190613901565b506000611d44600b60009054906101000a90046001600160a01b03166001600160a01b031663e71392ed6040518163ffffffff1660e01b815260040160206040518083038186803b158015611d0557600080fd5b505afa158015611d19573d6000803e3d6000fd5b505050506040513d601f19601f82011682018060405250810190611d3d9190613b0f565b8490613491565b90506000611dd8600b60009054906101000a90046001600160a01b03166001600160a01b031663e71392ed6040518163ffffffff1660e01b815260040160206040518083038186803b158015611d9957600080fd5b505afa158015611dad573d6000803e3d6000fd5b505050506040513d601f19601f82011682018060405250810190611dd19190613b0f565b8890613491565b600254909150611de8908261333c565b600255600354611df8908361333c565b600355600c54600d546040805163b057edd160e01b815290516000936001600160a01b03908116936375df3665938e938e938893169163b057edd1916004808301926020929190829003018186803b158015611e5357600080fd5b505afa158015611e67573d6000803e3d6000fd5b505050506040513d601f19601f82011682018060405250810190611e8b919061395e565b60075460405160e087901b6001600160e01b03191681526001600160a01b0390951660048601526024850193909352604484019190915267ffffffffffffffff1660648301526019608483015260a4820186905260c48201524260e482015261010401602060405180830381600087803b158015611f0857600080fd5b505af1158015611f1c573d6000803e3d6000fd5b505050506040513d601f19601f82011682018060405250810190611f409190613b0f565b90507fb13c75b920428c43ae663433b4c74d905007d2ac0e07cb06cbc71957fd05306d8133611f7487611bd68a600061333c565b604080519384526001600160a01b0390921660208401529082015260600160405180910390a1505060165460ff169450612016935050505057600d60009054906101000a90046001600160a01b03166001600160a01b03166374d7e7c36040518163ffffffff1660e01b8152600401600060405180830381600087803b158015611ffd57600080fd5b505af1158015612011573d6000803e3d6000fd5b505050505b6120206001600055565b5050565b600d54604080516380d0824960e01b815290516007926001600160a01b0316916380d08249916004808301926020929190829003018186803b15801561206957600080fd5b505afa15801561207d573d6000803e3d6000fd5b505050506040513d601f19601f820116820180604052508101906120a19190613b0f565b10156120d9576040517f9a3a986b00000000000000000000000000000000000000000000000000000000815260040160405180910390fd5b600c546040517f9588d85b000000000000000000000000000000000000000000000000000000008152600481018390526000916001600160a01b031690639588d85b906024016101606040518083038186803b15801561213857600080fd5b505afa15801561214c573d6000803e3d6000fd5b505050506040513d601f19601f820116820180604052508101906121709190613c79565b905080610100015115156001151514156121b9576040517f33638b9a000000000000000000000000000000000000000000000000000000008152600481018390526024016119a1565b6101408101511515600114156121fe576040517f9137385c000000000000000000000000000000000000000000000000000000008152600481018390526024016119a1565b80516001600160a01b031633146122555780516040517f7eec1dd80000000000000000000000000000000000000000000000000000000081526001600160a01b0390911660048201523360248201526044016119a1565b61225e826134b5565b600a548151602083015160405163a9059cbb60e01b81526001600160a01b039283166004820152602481019190915291169063a9059cbb90604401602060405180830381600087803b1580156122b357600080fd5b505af11580156122c7573d6000803e3d6000fd5b505050506040513d601f19601f820116820180604052508101906122eb9190613901565b50600c546040517f2fc767e200000000000000000000000000000000000000000000000000000000815260048101849052600160248201526001600160a01b0390911690632fc767e290604401600060405180830381600087803b15801561235257600080fd5b505af1158015612366573d6000803e3d6000fd5b505050505050565b6010546001600160a01b0316331461239957604051630e2c181360e41b815260040160405180910390fd5b60078190556040518181527f99911fd22d6b6affcd32059c5f2fb20a908351a97597b0af43c7ca90eeb36f8990602001611369565b600e5474010000000000000000000000000000000000000000900460ff16156124395760405162461bcd60e51b815260206004820152601c60248201527f436f6e747261637420616c726561647920696e697469616c697a65640000000060448201526064016119a1565b600a80546001600160a01b039c8d1673ffffffffffffffffffffffffffffffffffffffff1991821617909155601080549b8d169b82169b909b17909a55600b8054998c16998b1699909917909855600c8054978b16978a1697909717909655600d8054948a169490981693909317909655600e80546005929092556007929092556008939093556009939093556012939093557fffffffffffffffffffffff00000000000000000000000000000000000000000016919092161774010000000000000000000000000000000000000000179055565b6125166132e2565b600d60009054906101000a90046001600160a01b03166001600160a01b031663e40d6cb86040518163ffffffff1660e01b815260040160206040518083038186803b15801561256457600080fd5b505afa158015612578573d6000803e3d6000fd5b505050506040513d601f19601f8201168201806040525081019061259c9190613901565b6125d2576040517fe816949400000000000000000000000000000000000000000000000000000000815260040160405180910390fd5b600b546040516377d982f760e01b8152600481018390526001600160a01b03909116906377d982f79060240160206040518083038186803b15801561261657600080fd5b505afa15801561262a573d6000803e3d6000fd5b505050506040513d601f19601f8201168201806040525081019061264e9190613929565b6001600160a01b0316336001600160a01b03161461267f57604051630e2c181360e41b815260040160405180910390fd5b600b5460405163e620f9e360e01b8152600481018390526000916001600160a01b03169063e620f9e39060240160c06040518083038186803b1580156126c457600080fd5b505afa1580156126d8573d6000803e3d6000fd5b505050506040513d601f19601f820116820180604052508101906126fc91906139f0565b60a081015190915061272157604051630e2c181360e41b815260040160405180910390fd5b600d546040805163b057edd160e01b815290516000926001600160a01b03169163b057edd1916004808301926020929190829003018186803b15801561276657600080fd5b505afa15801561277a573d6000803e3d6000fd5b505050506040513d601f19601f8201168201806040525081019061279e919061395e565b90506000806127ac85610930565b600b546040517f439c0e25000000000000000000000000000000000000000000000000000000008152600481018990529294509092506001600160a01b03169063439c0e2590602401600060405180830381600087803b15801561280f57600080fd5b505af1158015612823573d6000803e3d6000fd5b5050600b546040517f9894720300000000000000000000000000000000000000000000000000000000815260048101899052602481018690526001600160a01b03909116925063989472039150604401600060405180830381600087803b15801561288d57600080fd5b505af11580156128a1573d6000803e3d6000fd5b5050505060006128b2866001612f93565b600b546040517f977b08e30000000000000000000000000000000000000000000000000000000081526004810189905267ffffffffffffffff871660248201529192506001600160a01b03169063977b08e390604401600060405180830381600087803b15801561292257600080fd5b505af1158015612936573d6000803e3d6000fd5b505050506000612956660aa87bee538000846133aa90919063ffffffff16565b600654909150612966908261333c565b6006556000612975848461333c565b1115612b3a5760006001600d60009054906101000a90046001600160a01b03166001600160a01b031663b057edd16040518163ffffffff1660e01b815260040160206040518083038186803b1580156129cd57600080fd5b505afa1580156129e1573d6000803e3d6000fd5b505050506040513d601f19601f82011682018060405250810190612a05919061395e565b612a0f919061398f565b600b546040517fdf49dc5e000000000000000000000000000000000000000000000000000000008152600481018b905267ffffffffffffffff831660248201529192506001600160a01b03169063df49dc5e90604401600060405180830381600087803b158015612a7f57600080fd5b505af1158015612a93573d6000803e3d6000fd5b5050600a546001600160a01b0316915063a9059cbb905033612ab985610b9f898961333c565b6040516001600160e01b031960e085901b1681526001600160a01b0390921660048301526024820152604401602060405180830381600087803b158015612aff57600080fd5b505af1158015612b13573d6000803e3d6000fd5b505050506040513d601f19601f82011682018060405250810190612b379190613901565b50505b6040513381527fafb4f5373b6024003a3099e27a07247ab27cdb54951710a3757eea1efaf8e4ec9060200160405180910390a150505050505061092d6001600055565b612bc560405180610100016040528060008152602001600081526020016000815260200160008152602001600081526020016000815260200160008152602001600081525090565b50604080516101008101825260025481526003546020820152600454918101919091526005546060820152600654608082015260075460a082015260085460c082015260095460e082015290565b612c1b6133d8565b6001600160a01b038116612c975760405162461bcd60e51b815260206004820152602660248201527f4f776e61626c653a206e6577206f776e657220697320746865207a65726f206160448201527f646472657373000000000000000000000000000000000000000000000000000060648201526084016119a1565b61092d81613432565b60165460ff16612d3457600d60009054906101000a90046001600160a01b03166001600160a01b0316639b63039c6040518163ffffffff1660e01b8152600401602060405180830381600087803b158015612cfa57600080fd5b505af1158015612d0e573d6000803e3d6000fd5b505050506040513d601f19601f82011682018060405250810190612d329190613901565b505b6010546001600160a01b031633148015612d51575060165460ff16155b612d5a57600080fd5b600d60009054906101000a90046001600160a01b03166001600160a01b031663bc6078fb6040518163ffffffff1660e01b815260040160206040518083038186803b158015612da857600080fd5b505afa158015612dbc573d6000803e3d6000fd5b505050506040513d601f19601f82011682018060405250810190612de09190613b0f565b600d60009054906101000a90046001600160a01b03166001600160a01b03166378e979256040518163ffffffff1660e01b815260040160206040518083038186803b158015612e2e57600080fd5b505afa158015612e42573d6000803e3d6000fd5b505050506040513d601f19601f82011682018060405250810190612e669190613b0f565b612e709190613b28565b4211612e7b57600080fd5b601680547fffffffffffffffffffffffffffffffffffffffffffffffffffffffffffffff00166001179055600d54604080517f74d7e7c300000000000000000000000000000000000000000000000000000000815290516001600160a01b03909216916374d7e7c39160048082019260009290919082900301818387803b158015612f0557600080fd5b505af1158015612f19573d6000803e3d6000fd5b505060165460ff16915061146e905057600d60009054906101000a90046001600160a01b03166001600160a01b03166374d7e7c36040518163ffffffff1660e01b8152600401600060405180830381600087803b158015612f7957600080fd5b505af1158015612f8d573d6000803e3d6000fd5b50505050565b600b5460405163e620f9e360e01b81526004810184905260009182916001600160a01b039091169063e620f9e39060240160c06040518083038186803b158015612fdc57600080fd5b505afa158015612ff0573d6000803e3d6000fd5b505050506040513d601f19601f8201168201806040525081019061301491906139f0565b9050600d60009054906101000a90046001600160a01b03166001600160a01b031663b057edd16040518163ffffffff1660e01b815260040160206040518083038186803b15801561306457600080fd5b505afa158015613078573d6000803e3d6000fd5b505050506040513d601f19601f8201168201806040525081019061309c919061395e565b67ffffffffffffffff16816000015167ffffffffffffffff1614156130c55760009150506132dc565b821580156130d5575060a0810151155b156130e45760009150506132dc565b600d546000906001600160a01b03166355d467e785151560011461310957600161310c565b60005b60ff16600d60009054906101000a90046001600160a01b03166001600160a01b031663b057edd16040518163ffffffff1660e01b815260040160206040518083038186803b15801561315d57600080fd5b505afa158015613171573d6000803e3d6000fd5b505050506040513d601f19601f82011682018060405250810190613195919061395e565b61319f919061398f565b6040516001600160e01b031960e084901b16815267ffffffffffffffff909116600482015260240160a06040518083038186803b1580156131df57600080fd5b505afa1580156131f3573d6000803e3d6000fd5b505050506040513d601f19601f820116820180604052508101906132179190613a91565b600d5460408481015190516355d467e760e01b815267ffffffffffffffff90911660048201529192506000916001600160a01b03909116906355d467e79060240160a06040518083038186803b15801561327057600080fd5b505afa158015613284573d6000803e3d6000fd5b505050506040513d601f19601f820116820180604052508101906132a89190613a91565b905060006132d56132ca8360600151856060015161334f90919063ffffffff16565b6060860151906133aa565b9450505050505b92915050565b600260005414156133355760405162461bcd60e51b815260206004820152601f60248201527f5265656e7472616e637947756172643a207265656e7472616e742063616c6c0060448201526064016119a1565b6002600055565b60006133488284613b28565b9392505050565b60006133488284613d29565b60006133696012600a613c24565b8210613377575060006132dc565b6133836012600a613c24565b83106133a05761339982610b9f6012600a613c24565b90506132dc565b613399838361334f565b60006133b86012600a613c24565b6133c284846134a9565b6133489190613d40565b60006133488284613d40565b6001546001600160a01b0316331461146e5760405162461bcd60e51b815260206004820181905260248201527f4f776e61626c653a2063616c6c6572206973206e6f7420746865206f776e657260448201526064016119a1565b600180546001600160a01b0383811673ffffffffffffffffffffffffffffffffffffffff19831681179093556040519116919082907f8be0079c531659141344cd1fd0a4f28419497f9722a3daafe3b4186f6b6457e090600090a35050565b60006133488261104f6134a66012600a613c24565b86905b60006133488284613c5a565b600c546040517f9588d85b000000000000000000000000000000000000000000000000000000008152600481018390526000916001600160a01b031690639588d85b906024016101606040518083038186803b15801561351457600080fd5b505afa158015613528573d6000803e3d6000fd5b505050506040513d601f19601f8201168201806040525081019061354c9190613c79565b600c546040517fc0281a50000000000000000000000000000000000000000000000000000000008152600481018590529192506001600160a01b03169063c0281a509060240160206040518083038186803b1580156135aa57600080fd5b505afa1580156135be573d6000803e3d6000fd5b505050506040513d601f19601f820116820180604052508101906135e29190613901565b1561375657600d5460e082015160c08301516040517ff16717aa000000000000000000000000000000000000000000000000000000008152600481019290925267ffffffffffffffff166024820152600160448201526001600160a01b039091169063f16717aa90606401600060405180830381600087803b15801561366757600080fd5b505af115801561367b573d6000803e3d6000fd5b5050600a548351604080860151905163a9059cbb60e01b81526001600160a01b03928316600482015260248101919091529116925063a9059cbb9150604401602060405180830381600087803b1580156136d457600080fd5b505af11580156136e8573d6000803e3d6000fd5b505050506040513d601f19601f8201168201806040525081019061370c9190613901565b506020808201516040805185815233938101939093528201527fdb938d623105bb7cc82f001c69e2750058d710a05a5ecd2141f8a4d54230c7399060600160405180910390a15050565b6040517f2e596d2a00000000000000000000000000000000000000000000000000000000815260040160405180910390fd5b60006020828403121561379a57600080fd5b5035919050565b6001600160a01b038116811461092d57600080fd5b6000602082840312156137c857600080fd5b8135613348816137a1565b600080604083850312156137e657600080fd5b82356137f1816137a1565b946020939093013593505050565b60008060008060008060008060008060006101608c8e03121561382157600080fd5b8b3561382c816137a1565b9a5060208c013561383c816137a1565b995060408c013561384c816137a1565b985060608c013561385c816137a1565b975060808c013561386c816137a1565b965060a08c013561387c816137a1565b9a9d999c50979a9699959895975050505060c08401359360e081013593610100820135935061012082013592506101409091013590565b801515811461092d57600080fd5b600080604083850312156138d457600080fd5b8235915060208301356138e6816138b3565b809150509250929050565b80516138fc816138b3565b919050565b60006020828403121561391357600080fd5b8151613348816138b3565b80516138fc816137a1565b60006020828403121561393b57600080fd5b8151613348816137a1565b805167ffffffffffffffff811681146138fc57600080fd5b60006020828403121561397057600080fd5b61334882613946565b634e487b7160e01b600052601160045260246000fd5b600067ffffffffffffffff838116908316818110156139b0576139b0613979565b039392505050565b604051610160810167ffffffffffffffff811182821017156139ea57634e487b7160e01b600052604160045260246000fd5b60405290565b600060c08284031215613a0257600080fd5b60405160c0810181811067ffffffffffffffff82111715613a3357634e487b7160e01b600052604160045260246000fd5b604052613a3f83613946565b8152613a4d60208401613946565b6020820152613a5e60408401613946565b6040820152606083015160608201526080830151608082015260a0830151613a85816138b3565b60a08201529392505050565b600060a08284031215613aa357600080fd5b60405160a0810181811067ffffffffffffffff82111715613ad457634e487b7160e01b600052604160045260246000fd5b806040525082518152602083015160208201526040830151604082015260608301516060820152608083015160808201528091505092915050565b600060208284031215613b2157600080fd5b5051919050565b60008219821115613b3b57613b3b613979565b500190565b600181815b80851115613b7b578160001904821115613b6157613b61613979565b80851615613b6e57918102915b93841c9390800290613b45565b509250929050565b600082613b92575060016132dc565b81613b9f575060006132dc565b8160018114613bb55760028114613bbf57613bdb565b60019150506132dc565b60ff841115613bd057613bd0613979565b50506001821b6132dc565b5060208310610133831016604e8410600b8410161715613bfe575081810a6132dc565b613c088383613b40565b8060001904821115613c1c57613c1c613979565b029392505050565b60006133488383613b83565b634e487b7160e01b600052601260045260246000fd5b600082613c5557613c55613c30565b500690565b6000816000190483118215151615613c7457613c74613979565b500290565b60006101608284031215613c8c57600080fd5b613c946139b8565b613c9d8361391e565b81526020830151602082015260408301516040820152606083015160608201526080830151608082015260a083015160a0820152613cdd60c08401613946565b60c082015260e083015160e0820152610100613cfa8185016138f1565b90820152610120613d0c8482016138f1565b90820152610140613d1e8482016138f1565b908201529392505050565b600082821015613d3b57613d3b613979565b500390565b600082613d4f57613d4f613c30565b50049056fea2646970667358221220745408c59940bdec381018baa6798295afd68f15e328f403587a7317b1ad62c464736f6c63430008090033",
  "linkReferences": {},
  "deployedLinkReferences": {}
}