{
  "_format": "hh-sol-artifact-1",
  "contractName": "LiquidityCertificate",
  "sourceName": "contracts/LiquidityCertificate.sol",
  "abi": [
    {
      "inputs": [
        {
          "internalType": "string",
          "name": "_name",
          "type": "string"
        },
        {
          "internalType": "string",
          "name": "_symbol",
          "type": "string"
        }
      ],
      "stateMutability": "nonpayable",
      "type": "constructor"
    },
    {
      "inputs": [],
      "name": "InsufficientLiquidity",
      "type": "error"
    },
    {
      "inputs": [],
      "name": "InsufficientPrivilege",
      "type": "error"
    },
    {
      "anonymous": false,
      "inputs": [
        {
          "indexed": true,
          "internalType": "address",
          "name": "owner",
          "type": "address"
        },
        {
          "indexed": true,
          "internalType": "address",
          "name": "approved",
          "type": "address"
        },
        {
          "indexed": true,
          "internalType": "uint256",
          "name": "tokenId",
          "type": "uint256"
        }
      ],
      "name": "Approval",
      "type": "event"
    },
    {
      "anonymous": false,
      "inputs": [
        {
          "indexed": true,
          "internalType": "address",
          "name": "owner",
          "type": "address"
        },
        {
          "indexed": true,
          "internalType": "address",
          "name": "operator",
          "type": "address"
        },
        {
          "indexed": false,
          "internalType": "bool",
          "name": "approved",
          "type": "bool"
        }
      ],
      "name": "ApprovalForAll",
      "type": "event"
    },
    {
      "anonymous": false,
      "inputs": [
        {
          "indexed": false,
          "internalType": "uint256",
          "name": "certificateId",
          "type": "uint256"
        }
      ],
      "name": "Expired",
      "type": "event"
    },
    {
      "anonymous": false,
      "inputs": [
        {
          "indexed": false,
          "internalType": "address",
          "name": "owner",
          "type": "address"
        },
        {
          "indexed": false,
          "internalType": "uint256",
          "name": "certificateId",
          "type": "uint256"
        },
        {
          "indexed": false,
          "internalType": "uint256",
          "name": "enteredEpochIndex",
          "type": "uint256"
        },
        {
          "indexed": false,
          "internalType": "uint256",
          "name": "liquidity",
          "type": "uint256"
        },
        {
          "indexed": false,
          "internalType": "address",
          "name": "metaDefender",
          "type": "address"
        }
      ],
      "name": "NewLPMinted",
      "type": "event"
    },
    {
      "anonymous": false,
      "inputs": [
        {
          "indexed": true,
          "internalType": "address",
          "name": "from",
          "type": "address"
        },
        {
          "indexed": true,
          "internalType": "address",
          "name": "to",
          "type": "address"
        },
        {
          "indexed": true,
          "internalType": "uint256",
          "name": "tokenId",
          "type": "uint256"
        }
      ],
      "name": "Transfer",
      "type": "event"
    },
    {
      "inputs": [],
      "name": "MIN_LIQUIDITY",
      "outputs": [
        {
          "internalType": "uint256",
          "name": "",
          "type": "uint256"
        }
      ],
      "stateMutability": "view",
      "type": "function"
    },
    {
      "inputs": [
        {
          "internalType": "address",
          "name": "to",
          "type": "address"
        },
        {
          "internalType": "uint256",
          "name": "tokenId",
          "type": "uint256"
        }
      ],
      "name": "approve",
      "outputs": [],
      "stateMutability": "nonpayable",
      "type": "function"
    },
    {
      "inputs": [
        {
          "internalType": "address",
          "name": "owner",
          "type": "address"
        }
      ],
      "name": "balanceOf",
      "outputs": [
        {
          "internalType": "uint256",
          "name": "",
          "type": "uint256"
        }
      ],
      "stateMutability": "view",
      "type": "function"
    },
    {
      "inputs": [
        {
          "internalType": "uint256",
          "name": "certificateId",
          "type": "uint256"
        }
      ],
      "name": "belongsTo",
      "outputs": [
        {
          "internalType": "address",
          "name": "",
          "type": "address"
        }
      ],
      "stateMutability": "view",
      "type": "function"
    },
    {
      "inputs": [
        {
          "internalType": "uint256",
          "name": "certificateId",
          "type": "uint256"
        }
      ],
      "name": "decreaseLiquidity",
      "outputs": [],
      "stateMutability": "nonpayable",
      "type": "function"
    },
    {
      "inputs": [
        {
          "internalType": "uint256",
          "name": "certificateId",
          "type": "uint256"
        },
        {
          "internalType": "uint64",
          "name": "currentEpochIndex",
          "type": "uint64"
        }
      ],
      "name": "expire",
      "outputs": [],
      "stateMutability": "nonpayable",
      "type": "function"
    },
    {
      "inputs": [
        {
          "internalType": "uint256",
          "name": "tokenId",
          "type": "uint256"
        }
      ],
      "name": "getApproved",
      "outputs": [
        {
          "internalType": "address",
          "name": "",
          "type": "address"
        }
      ],
      "stateMutability": "view",
      "type": "function"
    },
    {
      "inputs": [
        {
          "internalType": "uint256",
          "name": "certificateId",
          "type": "uint256"
        }
      ],
      "name": "getCertificateInfo",
      "outputs": [
        {
          "components": [
            {
              "internalType": "uint64",
              "name": "enteredEpochIndex",
              "type": "uint64"
            },
            {
              "internalType": "uint64",
              "name": "exitedEpochIndex",
              "type": "uint64"
            },
            {
              "internalType": "uint64",
              "name": "rewardDebtEpochIndex",
              "type": "uint64"
            },
            {
              "internalType": "uint256",
              "name": "liquidity",
              "type": "uint256"
            },
            {
              "internalType": "uint256",
              "name": "SPSLocked",
              "type": "uint256"
            },
            {
              "internalType": "bool",
              "name": "isValid",
              "type": "bool"
            }
          ],
          "internalType": "struct ILiquidityCertificate.CertificateInfo",
          "name": "",
          "type": "tuple"
        }
      ],
      "stateMutability": "view",
      "type": "function"
    },
    {
      "inputs": [
        {
          "internalType": "uint256",
          "name": "certificateId",
          "type": "uint256"
        }
      ],
      "name": "getLiquidity",
      "outputs": [
        {
          "internalType": "uint256",
          "name": "",
          "type": "uint256"
        }
      ],
      "stateMutability": "view",
      "type": "function"
    },
    {
      "inputs": [
        {
          "internalType": "address",
          "name": "owner",
          "type": "address"
        }
      ],
      "name": "getLiquidityProviders",
      "outputs": [
        {
          "internalType": "uint256[]",
          "name": "",
          "type": "uint256[]"
        }
      ],
      "stateMutability": "view",
      "type": "function"
    },
    {
      "inputs": [
        {
          "internalType": "address",
          "name": "_metaDefender",
          "type": "address"
        }
      ],
      "name": "init",
      "outputs": [],
      "stateMutability": "nonpayable",
      "type": "function"
    },
    {
      "inputs": [
        {
          "internalType": "address",
          "name": "owner",
          "type": "address"
        },
        {
          "internalType": "address",
          "name": "operator",
          "type": "address"
        }
      ],
      "name": "isApprovedForAll",
      "outputs": [
        {
          "internalType": "bool",
          "name": "",
          "type": "bool"
        }
      ],
      "stateMutability": "view",
      "type": "function"
    },
    {
      "inputs": [],
      "name": "metaDefender",
      "outputs": [
        {
          "internalType": "address",
          "name": "",
          "type": "address"
        }
      ],
      "stateMutability": "view",
      "type": "function"
    },
    {
      "inputs": [
        {
          "internalType": "uint64",
          "name": "enteredEpochIndex",
          "type": "uint64"
        },
        {
          "internalType": "uint256",
          "name": "liquidity",
          "type": "uint256"
        }
      ],
      "name": "mint",
      "outputs": [
        {
          "internalType": "uint256",
          "name": "",
          "type": "uint256"
        }
      ],
      "stateMutability": "nonpayable",
      "type": "function"
    },
    {
      "inputs": [],
      "name": "name",
      "outputs": [
        {
          "internalType": "string",
          "name": "",
          "type": "string"
        }
      ],
      "stateMutability": "view",
      "type": "function"
    },
    {
      "inputs": [],
      "name": "newEpochCreated",
      "outputs": [],
      "stateMutability": "nonpayable",
      "type": "function"
    },
    {
      "inputs": [
        {
          "internalType": "uint256",
          "name": "tokenId",
          "type": "uint256"
        }
      ],
      "name": "ownerOf",
      "outputs": [
        {
          "internalType": "address",
          "name": "",
          "type": "address"
        }
      ],
      "stateMutability": "view",
      "type": "function"
    },
    {
      "inputs": [],
      "name": "protocol",
      "outputs": [
        {
          "internalType": "address",
          "name": "",
          "type": "address"
        }
      ],
      "stateMutability": "view",
      "type": "function"
    },
    {
      "inputs": [
        {
          "internalType": "address",
          "name": "from",
          "type": "address"
        },
        {
          "internalType": "address",
          "name": "to",
          "type": "address"
        },
        {
          "internalType": "uint256",
          "name": "tokenId",
          "type": "uint256"
        }
      ],
      "name": "safeTransferFrom",
      "outputs": [],
      "stateMutability": "nonpayable",
      "type": "function"
    },
    {
      "inputs": [
        {
          "internalType": "address",
          "name": "from",
          "type": "address"
        },
        {
          "internalType": "address",
          "name": "to",
          "type": "address"
        },
        {
          "internalType": "uint256",
          "name": "tokenId",
          "type": "uint256"
        },
        {
          "internalType": "bytes",
          "name": "data",
          "type": "bytes"
        }
      ],
      "name": "safeTransferFrom",
      "outputs": [],
      "stateMutability": "nonpayable",
      "type": "function"
    },
    {
      "inputs": [
        {
          "internalType": "address",
          "name": "operator",
          "type": "address"
        },
        {
          "internalType": "bool",
          "name": "approved",
          "type": "bool"
        }
      ],
      "name": "setApprovalForAll",
      "outputs": [],
      "stateMutability": "nonpayable",
      "type": "function"
    },
    {
      "inputs": [
        {
          "internalType": "bytes4",
          "name": "interfaceId",
          "type": "bytes4"
        }
      ],
      "name": "supportsInterface",
      "outputs": [
        {
          "internalType": "bool",
          "name": "",
          "type": "bool"
        }
      ],
      "stateMutability": "view",
      "type": "function"
    },
    {
      "inputs": [],
      "name": "symbol",
      "outputs": [
        {
          "internalType": "string",
          "name": "",
          "type": "string"
        }
      ],
      "stateMutability": "view",
      "type": "function"
    },
    {
      "inputs": [
        {
          "internalType": "uint256",
          "name": "index",
          "type": "uint256"
        }
      ],
      "name": "tokenByIndex",
      "outputs": [
        {
          "internalType": "uint256",
          "name": "",
          "type": "uint256"
        }
      ],
      "stateMutability": "view",
      "type": "function"
    },
    {
      "inputs": [
        {
          "internalType": "address",
          "name": "owner",
          "type": "address"
        },
        {
          "internalType": "uint256",
          "name": "index",
          "type": "uint256"
        }
      ],
      "name": "tokenOfOwnerByIndex",
      "outputs": [
        {
          "internalType": "uint256",
          "name": "",
          "type": "uint256"
        }
      ],
      "stateMutability": "view",
      "type": "function"
    },
    {
      "inputs": [
        {
          "internalType": "uint256",
          "name": "tokenId",
          "type": "uint256"
        }
      ],
      "name": "tokenURI",
      "outputs": [
        {
          "internalType": "string",
          "name": "",
          "type": "string"
        }
      ],
      "stateMutability": "view",
      "type": "function"
    },
    {
      "inputs": [],
      "name": "totalPendingCertificateLiquidity",
      "outputs": [
        {
          "internalType": "uint256",
          "name": "",
          "type": "uint256"
        }
      ],
      "stateMutability": "view",
      "type": "function"
    },
    {
      "inputs": [],
      "name": "totalSupply",
      "outputs": [
        {
          "internalType": "uint256",
          "name": "",
          "type": "uint256"
        }
      ],
      "stateMutability": "view",
      "type": "function"
    },
    {
      "inputs": [],
      "name": "totalValidCertificateLiquidity",
      "outputs": [
        {
          "internalType": "uint256",
          "name": "",
          "type": "uint256"
        }
      ],
      "stateMutability": "view",
      "type": "function"
    },
    {
      "inputs": [
        {
          "internalType": "address",
          "name": "from",
          "type": "address"
        },
        {
          "internalType": "address",
          "name": "to",
          "type": "address"
        },
        {
          "internalType": "uint256",
          "name": "tokenId",
          "type": "uint256"
        }
      ],
      "name": "transferFrom",
      "outputs": [],
      "stateMutability": "nonpayable",
      "type": "function"
    },
    {
      "inputs": [
        {
          "internalType": "uint256",
          "name": "certificateId",
          "type": "uint256"
        },
        {
          "internalType": "uint64",
          "name": "currentEpochIndex",
          "type": "uint64"
        }
      ],
      "name": "updateRewardDebtEpochIndex",
      "outputs": [],
      "stateMutability": "nonpayable",
      "type": "function"
    },
    {
      "inputs": [
        {
          "internalType": "uint256",
          "name": "certificateId",
          "type": "uint256"
        },
        {
          "internalType": "uint256",
          "name": "SPSLocked",
          "type": "uint256"
        }
      ],
      "name": "updateSPSLocked",
      "outputs": [],
      "stateMutability": "nonpayable",
      "type": "function"
    }
  ],
  "bytecode": "0x60806040523480156200001157600080fd5b5060405162002807380380620028078339810160408190526200003491620001e1565b8151829082906200004d9060009060208501906200006e565b508051620000639060019060208401906200006e565b505050505062000288565b8280546200007c906200024b565b90600052602060002090601f016020900481019282620000a05760008555620000eb565b82601f10620000bb57805160ff1916838001178555620000eb565b82800160010185558215620000eb579182015b82811115620000eb578251825591602001919060010190620000ce565b50620000f9929150620000fd565b5090565b5b80821115620000f95760008155600101620000fe565b634e487b7160e01b600052604160045260246000fd5b600082601f8301126200013c57600080fd5b81516001600160401b038082111562000159576200015962000114565b604051601f8301601f19908116603f0116810190828211818310171562000184576200018462000114565b81604052838152602092508683858801011115620001a157600080fd5b600091505b83821015620001c55785820183015181830184015290820190620001a6565b83821115620001d75760008385830101525b9695505050505050565b60008060408385031215620001f557600080fd5b82516001600160401b03808211156200020d57600080fd5b6200021b868387016200012a565b935060208501519150808211156200023257600080fd5b5062000241858286016200012a565b9150509250929050565b600181811c908216806200026057607f821691505b602082108114156200028257634e487b7160e01b600052602260045260246000fd5b50919050565b61256f80620002986000396000f3fe608060405234801561001057600080fd5b50600436106101f05760003560e01c806372d056fd1161010f5780639b0e77b5116100a2578063df49dc5e11610071578063df49dc5e14610435578063e620f9e314610448578063e71392ed146104b9578063e985e9c5146104c257600080fd5b80639b0e77b5146103f1578063a22cb465146103fc578063b88d4fde1461040f578063c87b56dd1461042257600080fd5b8063951583c3116100de578063951583c3146103a057806395d89b41146103c3578063977b08e3146103cb57806398947203146103de57600080fd5b806372d056fd1461034757806377d982f71461035a57806388c4b6ee1461036d5780638ce744261461038d57600080fd5b80632485167a11610187578063439c0e2511610156578063439c0e25146102fb5780634f6ccce71461030e5780636352211e1461032157806370a082311461033457600080fd5b80632485167a146102b95780632f745c59146102c25780633069218e146102d557806342842e0e146102e857600080fd5b806318160ddd116101c357806318160ddd1461027257806319ab453c1461028457806321b77d631461029757806323b872dd146102a657600080fd5b806301ffc9a7146101f557806306fdde031461021d578063081812fc14610232578063095ea7b31461025d575b600080fd5b61020861020336600461208e565b6104fe565b60405190151581526020015b60405180910390f35b61022561055a565b6040516102149190612103565b610245610240366004612116565b6105ec565b6040516001600160a01b039091168152602001610214565b61027061026b36600461214b565b610613565b005b6008545b604051908152602001610214565b610270610292366004612175565b61074a565b610276670de0b6b3a764000081565b6102706102b4366004612190565b610855565b610276600f5481565b6102766102d036600461214b565b6108dc565b600c54610245906001600160a01b031681565b6102706102f6366004612190565b610984565b610270610309366004612116565b61099f565b61027661031c366004612116565b610a3e565b61024561032f366004612116565b610ae2565b610276610342366004612175565b610b47565b6102766103553660046121e4565b610be1565b610245610368366004612116565b610dd0565b61038061037b366004612175565b610ddb565b6040516102149190612200565b600d54610245906001600160a01b031681565b6102766103ae366004612116565b6000908152600b602052604090206001015490565b610225610e7d565b6102706103d9366004612244565b610e8c565b6102706103ec366004612270565b610f74565b610270600f54600e55565b61027061040a366004612292565b610fe3565b61027061041d3660046122e4565b610ff2565b610225610430366004612116565b611080565b610270610443366004612244565b6110f4565b61045b610456366004612116565b6111aa565b6040516102149190600060c08201905067ffffffffffffffff80845116835280602085015116602084015280604085015116604084015250606083015160608301526080830151608083015260a0830151151560a083015292915050565b610276600e5481565b6102086104d03660046123c0565b6001600160a01b03918216600090815260056020908152604080832093909416825291909152205460ff1690565b60007fffffffff0000000000000000000000000000000000000000000000000000000082167f780e9d630000000000000000000000000000000000000000000000000000000014806105545750610554826112c6565b92915050565b606060008054610569906123ea565b80601f0160208091040260200160405190810160405280929190818152602001828054610595906123ea565b80156105e25780601f106105b7576101008083540402835291602001916105e2565b820191906000526020600020905b8154815290600101906020018083116105c557829003601f168201915b5050505050905090565b60006105f7826113a9565b506000908152600460205260409020546001600160a01b031690565b600061061e82610ae2565b9050806001600160a01b0316836001600160a01b031614156106ad5760405162461bcd60e51b815260206004820152602160248201527f4552433732313a20617070726f76616c20746f2063757272656e74206f776e6560448201527f720000000000000000000000000000000000000000000000000000000000000060648201526084015b60405180910390fd5b336001600160a01b03821614806106c957506106c981336104d0565b61073b5760405162461bcd60e51b815260206004820152603d60248201527f4552433732313a20617070726f76652063616c6c6572206973206e6f7420746f60448201527f6b656e206f776e6572206f7220617070726f76656420666f7220616c6c00000060648201526084016106a4565b6107458383611410565b505050565b6001600160a01b0381166107c65760405162461bcd60e51b815260206004820152602160248201527f6c6971756964697479506f6f6c2063616e6e6f7420626520302061646472657360448201527f730000000000000000000000000000000000000000000000000000000000000060648201526084016106a4565b60105460ff16156108195760405162461bcd60e51b815260206004820152601360248201527f616c726561647920696e697469616c697a65640000000000000000000000000060448201526064016106a4565b600c805473ffffffffffffffffffffffffffffffffffffffff19166001600160a01b03929092169190911790556010805460ff19166001179055565b61085f338261148b565b6108d15760405162461bcd60e51b815260206004820152602d60248201527f4552433732313a2063616c6c6572206973206e6f7420746f6b656e206f776e6560448201527f72206f7220617070726f7665640000000000000000000000000000000000000060648201526084016106a4565b61074583838361150a565b60006108e783610b47565b821061095b5760405162461bcd60e51b815260206004820152602b60248201527f455243373231456e756d657261626c653a206f776e657220696e646578206f7560448201527f74206f6620626f756e647300000000000000000000000000000000000000000060648201526084016106a4565b506001600160a01b03919091166000908152600660209081526040808320938352929052205490565b61074583838360405180602001604052806000815250610ff2565b600c546001600160a01b031633146109f95760405162461bcd60e51b815260206004820152601160248201527f4f6e6c79204d657461446566656e64657200000000000000000000000000000060448201526064016106a4565b6000818152600b6020526040902060010154600e54610a179161174d565b600e556000818152600b6020526040902060010154600f54610a389161174d565b600f5550565b6000610a4960085490565b8210610abd5760405162461bcd60e51b815260206004820152602c60248201527f455243373231456e756d657261626c653a20676c6f62616c20696e646578206f60448201527f7574206f6620626f756e6473000000000000000000000000000000000000000060648201526084016106a4565b60088281548110610ad057610ad0612425565b90600052602060002001549050919050565b6000818152600260205260408120546001600160a01b0316806105545760405162461bcd60e51b815260206004820152601860248201527f4552433732313a20696e76616c696420746f6b656e204944000000000000000060448201526064016106a4565b60006001600160a01b038216610bc55760405162461bcd60e51b815260206004820152602960248201527f4552433732313a2061646472657373207a65726f206973206e6f74206120766160448201527f6c6964206f776e6572000000000000000000000000000000000000000000000060648201526084016106a4565b506001600160a01b031660009081526003602052604090205490565b600c546000906001600160a01b03163314610c3e5760405162461bcd60e51b815260206004820152601160248201527f4f6e6c79204d657461446566656e64657200000000000000000000000000000060448201526064016106a4565b600a805460009182610c4f83612451565b909155506040805160c08101825267ffffffffffffffff80881680835260006020808501828152858701938452606086018b815260808701848152600160a089018181528b8752600b9095529890942096518754925195518716700100000000000000000000000000000000027fffffffffffffffff0000000000000000ffffffffffffffffffffffffffffffff96881668010000000000000000027fffffffffffffffffffffffffffffffff00000000000000000000000000000000909416919097161791909117939093169390931784559051938301939093559151600282015590516003909101805491151560ff19909216919091179055600f54909150610d5a9084611759565b600f55610d673282611765565b600c54604080513281526020810184905267ffffffffffffffff871681830152606081018690526001600160a01b039092166080830152517f37097023aaa20d10c7e6ac65831576ee4628e34590bf5d8876faad93e51cc8a79181900360a00190a19392505050565b600061055482610ae2565b60606000610de883610b47565b905060008167ffffffffffffffff811115610e0557610e056122ce565b604051908082528060200260200182016040528015610e2e578160200160208202803683370190505b50905060005b82811015610e7557610e4685826108dc565b828281518110610e5857610e58612425565b602090810291909101015280610e6d81612451565b915050610e34565b509392505050565b606060018054610569906123ea565b600c546001600160a01b03163314610ee65760405162461bcd60e51b815260206004820152601160248201527f4f6e6c79204d657461446566656e64657200000000000000000000000000000060448201526064016106a4565b6000828152600b602090815260409182902080547fffffffffffffffffffffffffffffffff0000000000000000ffffffffffffffff166801000000000000000067ffffffffffffffff861602178155600301805460ff1916905590518381527ff80dbaea4785589e52984ca36a31de106adc77759539a5c7d92883bf49692fe9910160405180910390a15050565b600c546001600160a01b03163314610fce5760405162461bcd60e51b815260206004820152601160248201527f4f6e6c79204d657461446566656e64657200000000000000000000000000000060448201526064016106a4565b6000918252600b602052604090912060020155565b610fee33838361190b565b5050565b610ffc338361148b565b61106e5760405162461bcd60e51b815260206004820152602d60248201527f4552433732313a2063616c6c6572206973206e6f7420746f6b656e206f776e6560448201527f72206f7220617070726f7665640000000000000000000000000000000000000060648201526084016106a4565b61107a848484846119da565b50505050565b606061108b826113a9565b60006110a260408051602081019091526000815290565b905060008151116110c257604051806020016040528060008152506110ed565b806110cc84611a63565b6040516020016110dd92919061246c565b6040516020818303038152906040525b9392505050565b600c546001600160a01b0316331461114e5760405162461bcd60e51b815260206004820152601160248201527f4f6e6c79204d657461446566656e64657200000000000000000000000000000060448201526064016106a4565b6000918252600b6020526040909120805467ffffffffffffffff909216700100000000000000000000000000000000027fffffffffffffffff0000000000000000ffffffffffffffffffffffffffffffff909216919091179055565b6040805160c081018252600080825260208201819052918101829052606081018290526080810182905260a08101919091526000828152600b602052604090205467ffffffffffffffff166112415760405162461bcd60e51b815260206004820152601a60248201527f636572746966696361746520646f6573206e6f7420657869737400000000000060448201526064016106a4565b506000908152600b6020908152604091829020825160c081018452815467ffffffffffffffff8082168352680100000000000000008204811694830194909452700100000000000000000000000000000000900490921692820192909252600182015460608201526002820154608082015260039091015460ff16151560a082015290565b60007fffffffff0000000000000000000000000000000000000000000000000000000082167f80ac58cd00000000000000000000000000000000000000000000000000000000148061135957507fffffffff0000000000000000000000000000000000000000000000000000000082167f5b5e139f00000000000000000000000000000000000000000000000000000000145b8061055457507f01ffc9a7000000000000000000000000000000000000000000000000000000007fffffffff00000000000000000000000000000000000000000000000000000000831614610554565b6000818152600260205260409020546001600160a01b031661140d5760405162461bcd60e51b815260206004820152601860248201527f4552433732313a20696e76616c696420746f6b656e204944000000000000000060448201526064016106a4565b50565b6000818152600460205260409020805473ffffffffffffffffffffffffffffffffffffffff19166001600160a01b038416908117909155819061145282610ae2565b6001600160a01b03167f8c5be1e5ebec7d5bd14f71427d1e84f3dd0314c0f7b2291e5b200ac8c7c3b92560405160405180910390a45050565b60008061149783610ae2565b9050806001600160a01b0316846001600160a01b031614806114de57506001600160a01b0380821660009081526005602090815260408083209388168352929052205460ff165b806115025750836001600160a01b03166114f7846105ec565b6001600160a01b0316145b949350505050565b826001600160a01b031661151d82610ae2565b6001600160a01b0316146115995760405162461bcd60e51b815260206004820152602560248201527f4552433732313a207472616e736665722066726f6d20696e636f72726563742060448201527f6f776e657200000000000000000000000000000000000000000000000000000060648201526084016106a4565b6001600160a01b0382166116145760405162461bcd60e51b8152602060048201526024808201527f4552433732313a207472616e7366657220746f20746865207a65726f2061646460448201527f726573730000000000000000000000000000000000000000000000000000000060648201526084016106a4565b6116218383836001611b05565b826001600160a01b031661163482610ae2565b6001600160a01b0316146116b05760405162461bcd60e51b815260206004820152602560248201527f4552433732313a207472616e736665722066726f6d20696e636f72726563742060448201527f6f776e657200000000000000000000000000000000000000000000000000000060648201526084016106a4565b6000818152600460209081526040808320805473ffffffffffffffffffffffffffffffffffffffff199081169091556001600160a01b0387811680865260038552838620805460001901905590871680865283862080546001019055868652600290945282852080549092168417909155905184937fddf252ad1be2c89b69c2b068fc378daa952ba7f163c4a11628f55a4df523b3ef91a4505050565b60006110ed828461249b565b60006110ed82846124b2565b6001600160a01b0382166117bb5760405162461bcd60e51b815260206004820181905260248201527f4552433732313a206d696e7420746f20746865207a65726f206164647265737360448201526064016106a4565b6000818152600260205260409020546001600160a01b0316156118205760405162461bcd60e51b815260206004820152601c60248201527f4552433732313a20746f6b656e20616c7265616479206d696e7465640000000060448201526064016106a4565b61182e600083836001611b05565b6000818152600260205260409020546001600160a01b0316156118935760405162461bcd60e51b815260206004820152601c60248201527f4552433732313a20746f6b656e20616c7265616479206d696e7465640000000060448201526064016106a4565b6001600160a01b0382166000818152600360209081526040808320805460010190558483526002909152808220805473ffffffffffffffffffffffffffffffffffffffff19168417905551839291907fddf252ad1be2c89b69c2b068fc378daa952ba7f163c4a11628f55a4df523b3ef908290a45050565b816001600160a01b0316836001600160a01b0316141561196d5760405162461bcd60e51b815260206004820152601960248201527f4552433732313a20617070726f766520746f2063616c6c65720000000000000060448201526064016106a4565b6001600160a01b03838116600081815260056020908152604080832094871680845294825291829020805460ff191686151590811790915591519182527f17307eab39ab6107e8899845ad3d59bd9653f200f220920489ca2b5937696c31910160405180910390a3505050565b6119e584848461150a565b6119f184848484611c41565b61107a5760405162461bcd60e51b815260206004820152603260248201527f4552433732313a207472616e7366657220746f206e6f6e20455243373231526560448201527f63656976657220696d706c656d656e746572000000000000000000000000000060648201526084016106a4565b60606000611a7083611dee565b600101905060008167ffffffffffffffff811115611a9057611a906122ce565b6040519080825280601f01601f191660200182016040528015611aba576020820181803683370190505b5090508181016020015b600019017f3031323334353637383961626364656600000000000000000000000000000000600a86061a8153600a8504945084611b0057610e75565b611ac4565b6001811115611b7c5760405162461bcd60e51b815260206004820152603560248201527f455243373231456e756d657261626c653a20636f6e736563757469766520747260448201527f616e7366657273206e6f7420737570706f72746564000000000000000000000060648201526084016106a4565b816001600160a01b038516611bd857611bd381600880546000838152600960205260408120829055600182018355919091527ff3f7a9fe364faab93b216da50a3214154f22a0a2b415b23a84c8169e8b636ee30155565b611bfb565b836001600160a01b0316856001600160a01b031614611bfb57611bfb8582611ed0565b6001600160a01b038416611c1757611c1281611f6d565b611c3a565b846001600160a01b0316846001600160a01b031614611c3a57611c3a848261201c565b5050505050565b60006001600160a01b0384163b15611de3576040517f150b7a020000000000000000000000000000000000000000000000000000000081526001600160a01b0385169063150b7a0290611c9e9033908990889088906004016124ca565b602060405180830381600087803b158015611cb857600080fd5b505af1925050508015611ce8575060408051601f3d908101601f19168201909252611ce591810190612506565b60015b611d98573d808015611d16576040519150601f19603f3d011682016040523d82523d6000602084013e611d1b565b606091505b508051611d905760405162461bcd60e51b815260206004820152603260248201527f4552433732313a207472616e7366657220746f206e6f6e20455243373231526560448201527f63656976657220696d706c656d656e746572000000000000000000000000000060648201526084016106a4565b805181602001fd5b7fffffffff00000000000000000000000000000000000000000000000000000000167f150b7a0200000000000000000000000000000000000000000000000000000000149050611502565b506001949350505050565b6000807a184f03e93ff9f4daa797ed6e38ed64bf6a1f0100000000000000008310611e37577a184f03e93ff9f4daa797ed6e38ed64bf6a1f010000000000000000830492506040015b6d04ee2d6d415b85acef81000000008310611e63576d04ee2d6d415b85acef8100000000830492506020015b662386f26fc100008310611e8157662386f26fc10000830492506010015b6305f5e1008310611e99576305f5e100830492506008015b6127108310611ead57612710830492506004015b60648310611ebf576064830492506002015b600a83106105545760010192915050565b60006001611edd84610b47565b611ee7919061249b565b600083815260076020526040902054909150808214611f3a576001600160a01b03841660009081526006602090815260408083208584528252808320548484528184208190558352600790915290208190555b5060009182526007602090815260408084208490556001600160a01b039094168352600681528383209183525290812055565b600854600090611f7f9060019061249b565b60008381526009602052604081205460088054939450909284908110611fa757611fa7612425565b906000526020600020015490508060088381548110611fc857611fc8612425565b600091825260208083209091019290925582815260099091526040808220849055858252812055600880548061200057612000612523565b6001900381819060005260206000200160009055905550505050565b600061202783610b47565b6001600160a01b039093166000908152600660209081526040808320868452825280832085905593825260079052919091209190915550565b7fffffffff000000000000000000000000000000000000000000000000000000008116811461140d57600080fd5b6000602082840312156120a057600080fd5b81356110ed81612060565b60005b838110156120c65781810151838201526020016120ae565b8381111561107a5750506000910152565b600081518084526120ef8160208601602086016120ab565b601f01601f19169290920160200192915050565b6020815260006110ed60208301846120d7565b60006020828403121561212857600080fd5b5035919050565b80356001600160a01b038116811461214657600080fd5b919050565b6000806040838503121561215e57600080fd5b6121678361212f565b946020939093013593505050565b60006020828403121561218757600080fd5b6110ed8261212f565b6000806000606084860312156121a557600080fd5b6121ae8461212f565b92506121bc6020850161212f565b9150604084013590509250925092565b803567ffffffffffffffff8116811461214657600080fd5b600080604083850312156121f757600080fd5b612167836121cc565b6020808252825182820181905260009190848201906040850190845b818110156122385783518352928401929184019160010161221c565b50909695505050505050565b6000806040838503121561225757600080fd5b82359150612267602084016121cc565b90509250929050565b6000806040838503121561228357600080fd5b50508035926020909101359150565b600080604083850312156122a557600080fd5b6122ae8361212f565b9150602083013580151581146122c357600080fd5b809150509250929050565b634e487b7160e01b600052604160045260246000fd5b600080600080608085870312156122fa57600080fd5b6123038561212f565b93506123116020860161212f565b925060408501359150606085013567ffffffffffffffff8082111561233557600080fd5b818701915087601f83011261234957600080fd5b81358181111561235b5761235b6122ce565b604051601f8201601f19908116603f01168101908382118183101715612383576123836122ce565b816040528281528a602084870101111561239c57600080fd5b82602086016020830137600060208483010152809550505050505092959194509250565b600080604083850312156123d357600080fd5b6123dc8361212f565b91506122676020840161212f565b600181811c908216806123fe57607f821691505b6020821081141561241f57634e487b7160e01b600052602260045260246000fd5b50919050565b634e487b7160e01b600052603260045260246000fd5b634e487b7160e01b600052601160045260246000fd5b60006000198214156124655761246561243b565b5060010190565b6000835161247e8184602088016120ab565b8351908301906124928183602088016120ab565b01949350505050565b6000828210156124ad576124ad61243b565b500390565b600082198211156124c5576124c561243b565b500190565b60006001600160a01b038087168352808616602084015250836040830152608060608301526124fc60808301846120d7565b9695505050505050565b60006020828403121561251857600080fd5b81516110ed81612060565b634e487b7160e01b600052603160045260246000fdfea264697066735822122077a871460c0fcc6f972c6d040b340a4de20d3024260489294da49ebf2218e13364736f6c63430008090033",
  "linkReferences": {},
  "deployedLinkReferences": {}
}