{
  "_format": "hh-sol-artifact-1",
  "contractName": "MetaDefenderMarketsRegistry",
  "sourceName": "contracts/periphery/MetaDefenderMarketsRegistry.sol",
  "abi": [
    {
      "anonymous": false,
      "inputs": [
        {
          "indexed": false,
          "internalType": "address",
          "name": "metaDefender",
          "type": "address"
        },
        {
          "indexed": false,
          "internalType": "address",
          "name": "liquidityCertificate",
          "type": "address"
        },
        {
          "indexed": false,
          "internalType": "address",
          "name": "policy",
          "type": "address"
        },
        {
          "indexed": false,
          "internalType": "address",
          "name": "epochManage",
          "type": "address"
        },
        {
          "indexed": false,
          "internalType": "string",
          "name": "marketName",
          "type": "string"
        },
        {
          "indexed": false,
          "internalType": "string",
          "name": "marketDescription",
          "type": "string"
        },
        {
          "indexed": false,
          "internalType": "string",
          "name": "marketPaymentToken",
          "type": "string"
        },
        {
          "indexed": false,
          "internalType": "string",
          "name": "marketProtectionType",
          "type": "string"
        },
        {
          "indexed": false,
          "internalType": "string",
          "name": "network",
          "type": "string"
        },
        {
          "indexed": false,
          "internalType": "uint256",
          "name": "timestamp",
          "type": "uint256"
        }
      ],
      "name": "MarketAdded",
      "type": "event"
    },
    {
      "anonymous": false,
      "inputs": [
        {
          "indexed": false,
          "internalType": "address",
          "name": "metaDefender",
          "type": "address"
        }
      ],
      "name": "MarketRemoved",
      "type": "event"
    },
    {
      "anonymous": false,
      "inputs": [
        {
          "indexed": true,
          "internalType": "address",
          "name": "previousOwner",
          "type": "address"
        },
        {
          "indexed": true,
          "internalType": "address",
          "name": "newOwner",
          "type": "address"
        }
      ],
      "name": "OwnershipTransferred",
      "type": "event"
    },
    {
      "inputs": [
        {
          "internalType": "address",
          "name": "metaDefender",
          "type": "address"
        },
        {
          "internalType": "address",
          "name": "liquidityCertificate",
          "type": "address"
        },
        {
          "internalType": "address",
          "name": "policy",
          "type": "address"
        },
        {
          "internalType": "address",
          "name": "epochManage",
          "type": "address"
        },
        {
          "internalType": "string",
          "name": "marketName",
          "type": "string"
        },
        {
          "internalType": "string",
          "name": "marketDescription",
          "type": "string"
        },
        {
          "internalType": "string",
          "name": "marketPaymentToken",
          "type": "string"
        },
        {
          "internalType": "string",
          "name": "marketProtectionType",
          "type": "string"
        },
        {
          "internalType": "string",
          "name": "network",
          "type": "string"
        },
        {
          "internalType": "uint256",
          "name": "timestamp",
          "type": "uint256"
        }
      ],
      "name": "addMarket",
      "outputs": [],
      "stateMutability": "nonpayable",
      "type": "function"
    },
    {
      "inputs": [],
      "name": "getInsuranceMarkets",
      "outputs": [
        {
          "internalType": "address[]",
          "name": "",
          "type": "address[]"
        },
        {
          "internalType": "string[]",
          "name": "",
          "type": "string[]"
        }
      ],
      "stateMutability": "view",
      "type": "function"
    },
    {
      "inputs": [
        {
          "internalType": "address[]",
          "name": "insuranceMarketList",
          "type": "address[]"
        }
      ],
      "name": "getInsuranceMarketsAddressesAndMessages",
      "outputs": [
        {
          "components": [
            {
              "internalType": "address",
              "name": "liquidityCertificate",
              "type": "address"
            },
            {
              "internalType": "address",
              "name": "policy",
              "type": "address"
            },
            {
              "internalType": "address",
              "name": "epochManage",
              "type": "address"
            }
          ],
          "internalType": "struct IMetaDefenderMarketsRegistry.MarketAddresses[]",
          "name": "",
          "type": "tuple[]"
        },
        {
          "components": [
            {
              "internalType": "string",
              "name": "marketName",
              "type": "string"
            },
            {
              "internalType": "string",
              "name": "marketDescription",
              "type": "string"
            },
            {
              "internalType": "string",
              "name": "marketPaymentToken",
              "type": "string"
            },
            {
              "internalType": "string",
              "name": "protectionType",
              "type": "string"
            },
            {
              "internalType": "string",
              "name": "network",
              "type": "string"
            },
            {
              "internalType": "uint256",
              "name": "timestamp",
              "type": "uint256"
            }
          ],
          "internalType": "struct IMetaDefenderMarketsRegistry.MarketMessages[]",
          "name": "",
          "type": "tuple[]"
        }
      ],
      "stateMutability": "view",
      "type": "function"
    },
    {
      "inputs": [
        {
          "internalType": "address",
          "name": "",
          "type": "address"
        }
      ],
      "name": "insuranceMarketsAddresses",
      "outputs": [
        {
          "internalType": "address",
          "name": "liquidityCertificate",
          "type": "address"
        },
        {
          "internalType": "address",
          "name": "policy",
          "type": "address"
        },
        {
          "internalType": "address",
          "name": "epochManage",
          "type": "address"
        }
      ],
      "stateMutability": "view",
      "type": "function"
    },
    {
      "inputs": [
        {
          "internalType": "address",
          "name": "",
          "type": "address"
        }
      ],
      "name": "insuranceMarketsMessages",
      "outputs": [
        {
          "internalType": "string",
          "name": "marketName",
          "type": "string"
        },
        {
          "internalType": "string",
          "name": "marketDescription",
          "type": "string"
        },
        {
          "internalType": "string",
          "name": "marketPaymentToken",
          "type": "string"
        },
        {
          "internalType": "string",
          "name": "protectionType",
          "type": "string"
        },
        {
          "internalType": "string",
          "name": "network",
          "type": "string"
        },
        {
          "internalType": "uint256",
          "name": "timestamp",
          "type": "uint256"
        }
      ],
      "stateMutability": "view",
      "type": "function"
    },
    {
      "inputs": [],
      "name": "owner",
      "outputs": [
        {
          "internalType": "address",
          "name": "",
          "type": "address"
        }
      ],
      "stateMutability": "view",
      "type": "function"
    },
    {
      "inputs": [
        {
          "internalType": "address",
          "name": "metaDefender",
          "type": "address"
        }
      ],
      "name": "removeMarket",
      "outputs": [],
      "stateMutability": "nonpayable",
      "type": "function"
    },
    {
      "inputs": [],
      "name": "renounceOwnership",
      "outputs": [],
      "stateMutability": "nonpayable",
      "type": "function"
    },
    {
      "inputs": [
        {
          "internalType": "address",
          "name": "newOwner",
          "type": "address"
        }
      ],
      "name": "transferOwnership",
      "outputs": [],
      "stateMutability": "nonpayable",
      "type": "function"
    }
  ],
  "bytecode": "0x608060405234801561001057600080fd5b5061001a3361001f565b61006f565b600080546001600160a01b038381166001600160a01b0319831681178455604051919092169283917f8be0079c531659141344cd1fd0a4f28419497f9722a3daafe3b4186f6b6457e09190a35050565b611a518061007e6000396000f3fe608060405234801561001057600080fd5b50600436106100a35760003560e01c806380c0e1af11610076578063db9132361161005b578063db91323614610198578063f2fde38b146101ab578063fde49d64146101be57600080fd5b806380c0e1af1461015c5780638da5cb5b1461017d57600080fd5b8063197987e8146100a85780635ee5a12e146100c7578063715018a61461012d5780637ed37ff214610137575b600080fd5b6100b06101d1565b6040516100be929190611408565b60405180910390f35b6101036100d53660046114c5565b6003602052600090815260409020805460018201546002909201546001600160a01b03918216928216911683565b604080516001600160a01b03948516815292841660208401529216918101919091526060016100be565b610135610419565b005b61014a6101453660046114c5565b61042d565b6040516100be969594939291906114e0565b61016f61016a366004611555565b610709565b6040516100be9291906115ca565b6000546040516001600160a01b0390911681526020016100be565b6101356101a63660046114c5565b610c0b565b6101356101b93660046114c5565b610d5b565b6101356101cc3660046117a5565b610deb565b60608060006101e0600161106d565b67ffffffffffffffff8111156101f8576101f8611702565b604051908082528060200260200182016040528015610221578160200160208202803683370190505b50905060005b610231600161106d565b81101561029f5761024360018261107d565b82826001610251600161106d565b61025b91906118db565b61026591906118db565b81518110610275576102756118f2565b6001600160a01b03909216602092830291909101909101528061029781611908565b915050610227565b5060006102ac600161106d565b67ffffffffffffffff8111156102c4576102c4611702565b6040519080825280602002602001820160405280156102f757816020015b60608152602001906001900390816102e25790505b50905060005b610307600161106d565b81101561040f576004600061031d60018461107d565b6001600160a01b031681526020810191909152604001600020805461034190611923565b80601f016020809104026020016040519081016040528092919081815260200182805461036d90611923565b80156103ba5780601f1061038f576101008083540402835291602001916103ba565b820191906000526020600020905b81548152906001019060200180831161039d57829003601f168201915b5050505050828260016103cd600161106d565b6103d791906118db565b6103e191906118db565b815181106103f1576103f16118f2565b6020026020010181905250808061040790611908565b9150506102fd565b5090939092509050565b610421611090565b61042b60006110ea565b565b60046020526000908152604090208054819061044890611923565b80601f016020809104026020016040519081016040528092919081815260200182805461047490611923565b80156104c15780601f10610496576101008083540402835291602001916104c1565b820191906000526020600020905b8154815290600101906020018083116104a457829003601f168201915b5050505050908060010180546104d690611923565b80601f016020809104026020016040519081016040528092919081815260200182805461050290611923565b801561054f5780601f106105245761010080835404028352916020019161054f565b820191906000526020600020905b81548152906001019060200180831161053257829003601f168201915b50505050509080600201805461056490611923565b80601f016020809104026020016040519081016040528092919081815260200182805461059090611923565b80156105dd5780601f106105b2576101008083540402835291602001916105dd565b820191906000526020600020905b8154815290600101906020018083116105c057829003601f168201915b5050505050908060030180546105f290611923565b80601f016020809104026020016040519081016040528092919081815260200182805461061e90611923565b801561066b5780601f106106405761010080835404028352916020019161066b565b820191906000526020600020905b81548152906001019060200180831161064e57829003601f168201915b50505050509080600401805461068090611923565b80601f01602080910402602001604051908101604052809291908181526020018280546106ac90611923565b80156106f95780601f106106ce576101008083540402835291602001916106f9565b820191906000526020600020905b8154815290600101906020018083116106dc57829003601f168201915b5050505050908060050154905086565b60608060008367ffffffffffffffff81111561072757610727611702565b60405190808252806020026020018201604052801561077257816020015b60408051606081018252600080825260208083018290529282015282526000199092019101816107455790505b50905060008467ffffffffffffffff81111561079057610790611702565b6040519080825280602002602001820160405280156107fa57816020015b6107e76040518060c001604052806060815260200160608152602001606081526020016060815260200160608152602001600081525090565b8152602001906001900390816107ae5790505b50905060005b85811015610bff576003600088888481811061081e5761081e6118f2565b905060200201602081019061083391906114c5565b6001600160a01b039081168252602080830193909352604091820160002082516060810184528154831681526001820154831694810194909452600201541690820152835184908390811061088a5761088a6118f2565b6020026020010181905250600460008888848181106108ab576108ab6118f2565b90506020020160208101906108c091906114c5565b6001600160a01b03166001600160a01b031681526020019081526020016000206040518060c00160405290816000820180546108fb90611923565b80601f016020809104026020016040519081016040528092919081815260200182805461092790611923565b80156109745780601f1061094957610100808354040283529160200191610974565b820191906000526020600020905b81548152906001019060200180831161095757829003601f168201915b5050505050815260200160018201805461098d90611923565b80601f01602080910402602001604051908101604052809291908181526020018280546109b990611923565b8015610a065780601f106109db57610100808354040283529160200191610a06565b820191906000526020600020905b8154815290600101906020018083116109e957829003601f168201915b50505050508152602001600282018054610a1f90611923565b80601f0160208091040260200160405190810160405280929190818152602001828054610a4b90611923565b8015610a985780601f10610a6d57610100808354040283529160200191610a98565b820191906000526020600020905b815481529060010190602001808311610a7b57829003601f168201915b50505050508152602001600382018054610ab190611923565b80601f0160208091040260200160405190810160405280929190818152602001828054610add90611923565b8015610b2a5780601f10610aff57610100808354040283529160200191610b2a565b820191906000526020600020905b815481529060010190602001808311610b0d57829003601f168201915b50505050508152602001600482018054610b4390611923565b80601f0160208091040260200160405190810160405280929190818152602001828054610b6f90611923565b8015610bbc5780601f10610b9157610100808354040283529160200191610bbc565b820191906000526020600020905b815481529060010190602001808311610b9f57829003601f168201915b50505050508152602001600582015481525050828281518110610be157610be16118f2565b60200260200101819052508080610bf790611908565b915050610800565b50909590945092505050565b610c13611090565b610c1e600182611152565b610c6f5760405162461bcd60e51b815260206004820152601260248201527f6d61726b6574206e6f742070726573656e74000000000000000000000000000060448201526064015b60405180910390fd5b6001600160a01b038116600090815260036020908152604080832080547fffffffffffffffffffffffff00000000000000000000000000000000000000009081168255600182018054821690556002909101805490911690556004909152812090610cda82826112e8565b610ce86001830160006112e8565b610cf66002830160006112e8565b610d046003830160006112e8565b610d126004830160006112e8565b506000600591909101556040516001600160a01b03821681527f59d7b1e52008dc342c9421dadfc773114b914a65682a4e4b53cf60a970df0d779060200160405180910390a150565b610d63611090565b6001600160a01b038116610ddf5760405162461bcd60e51b815260206004820152602660248201527f4f776e61626c653a206e6577206f776e657220697320746865207a65726f206160448201527f64647265737300000000000000000000000000000000000000000000000000006064820152608401610c66565b610de8816110ea565b50565b610df3611090565b610dfe60018b611167565b610e4a5760405162461bcd60e51b815260206004820152601660248201527f6d61726b657420616c72656164792070726573656e74000000000000000000006044820152606401610c66565b60405180606001604052808a6001600160a01b03168152602001896001600160a01b03168152602001886001600160a01b0316815250600360008c6001600160a01b03166001600160a01b0316815260200190815260200160002060008201518160000160006101000a8154816001600160a01b0302191690836001600160a01b0316021790555060208201518160010160006101000a8154816001600160a01b0302191690836001600160a01b0316021790555060408201518160020160006101000a8154816001600160a01b0302191690836001600160a01b031602179055509050506040518060c0016040528087815260200186815260200185815260200184815260200183815260200182815250600460008c6001600160a01b03166001600160a01b031681526020019081526020016000206000820151816000019080519060200190610f9d929190611322565b506020828101518051610fb69260018501920190611322565b5060408201518051610fd2916002840191602090910190611322565b5060608201518051610fee916003840191602090910190611322565b506080820151805161100a916004840191602090910190611322565b5060a082015181600501559050507f8bc49146ee51775b91e0c00a972e545c8376bf96879ddc057df92c2a50d355168a8a8a8a8a8a8a8a8a8a6040516110599a9998979695949392919061195e565b60405180910390a150505050505050505050565b6000611077825490565b92915050565b6000611089838361117c565b9392505050565b6000546001600160a01b0316331461042b5760405162461bcd60e51b815260206004820181905260248201527f4f776e61626c653a2063616c6c6572206973206e6f7420746865206f776e65726044820152606401610c66565b600080546001600160a01b038381167fffffffffffffffffffffffff0000000000000000000000000000000000000000831681178455604051919092169283917f8be0079c531659141344cd1fd0a4f28419497f9722a3daafe3b4186f6b6457e09190a35050565b6000611089836001600160a01b0384166111a6565b6000611089836001600160a01b038416611299565b6000826000018281548110611193576111936118f2565b9060005260206000200154905092915050565b6000818152600183016020526040812054801561128f5760006111ca6001836118db565b85549091506000906111de906001906118db565b90508181146112435760008660000182815481106111fe576111fe6118f2565b9060005260206000200154905080876000018481548110611221576112216118f2565b6000918252602080832090910192909255918252600188019052604090208390555b855486908061125457611254611a05565b600190038181906000526020600020016000905590558560010160008681526020019081526020016000206000905560019350505050611077565b6000915050611077565b60008181526001830160205260408120546112e057508154600181810184556000848152602080822090930184905584548482528286019093526040902091909155611077565b506000611077565b5080546112f490611923565b6000825580601f10611304575050565b601f016020900490600052602060002090810190610de891906113a6565b82805461132e90611923565b90600052602060002090601f0160209004810192826113505760008555611396565b82601f1061136957805160ff1916838001178555611396565b82800160010185558215611396579182015b8281111561139657825182559160200191906001019061137b565b506113a29291506113a6565b5090565b5b808211156113a257600081556001016113a7565b6000815180845260005b818110156113e1576020818501810151868301820152016113c5565b818111156113f3576000602083870101525b50601f01601f19169290920160200192915050565b604080825283519082018190526000906020906060840190828701845b8281101561144a5781516001600160a01b031684529284019290840190600101611425565b50505083810382850152845180825282820190600581901b8301840187850160005b8381101561149a57601f198684030185526114888383516113bb565b9487019492509086019060010161146c565b50909998505050505050505050565b80356001600160a01b03811681146114c057600080fd5b919050565b6000602082840312156114d757600080fd5b611089826114a9565b60c0815260006114f360c08301896113bb565b828103602084015261150581896113bb565b9050828103604084015261151981886113bb565b9050828103606084015261152d81876113bb565b9050828103608084015261154181866113bb565b9150508260a0830152979650505050505050565b6000806020838503121561156857600080fd5b823567ffffffffffffffff8082111561158057600080fd5b818501915085601f83011261159457600080fd5b8135818111156115a357600080fd5b8660208260051b85010111156115b857600080fd5b60209290920196919550909350505050565b6040808252835182820181905260009190606090818501906020808901865b8381101561162557815180516001600160a01b0390811687528482015181168588015290880151168786015293850193908201906001016115e9565b50508683038188015287518084528184019250600581901b8401820189830160005b838110156116f157601f19878403018652815160c0815181865261166d828701826113bb565b915050868201518582038887015261168582826113bb565b9150508a8201518582038c87015261169d82826113bb565b915050898201518582038b8701526116b582826113bb565b915050608080830151868303828801526116cf83826113bb565b60a0948501519790940196909652505095850195925090840190600101611647565b50909b9a5050505050505050505050565b634e487b7160e01b600052604160045260246000fd5b600082601f83011261172957600080fd5b813567ffffffffffffffff8082111561174457611744611702565b604051601f8301601f19908116603f0116810190828211818310171561176c5761176c611702565b8160405283815286602085880101111561178557600080fd5b836020870160208301376000602085830101528094505050505092915050565b6000806000806000806000806000806101408b8d0312156117c557600080fd5b6117ce8b6114a9565b99506117dc60208c016114a9565b98506117ea60408c016114a9565b97506117f860608c016114a9565b965060808b013567ffffffffffffffff8082111561181557600080fd5b6118218e838f01611718565b975060a08d013591508082111561183757600080fd5b6118438e838f01611718565b965060c08d013591508082111561185957600080fd5b6118658e838f01611718565b955060e08d013591508082111561187b57600080fd5b6118878e838f01611718565b94506101008d013591508082111561189e57600080fd5b506118ab8d828e01611718565b9250506101208b013590509295989b9194979a5092959850565b634e487b7160e01b600052601160045260246000fd5b6000828210156118ed576118ed6118c5565b500390565b634e487b7160e01b600052603260045260246000fd5b600060001982141561191c5761191c6118c5565b5060010190565b600181811c9082168061193757607f821691505b6020821081141561195857634e487b7160e01b600052602260045260246000fd5b50919050565b60006101406001600160a01b03808e168452808d166020850152808c166040850152808b1660608501525080608084015261199b8184018a6113bb565b905082810360a08401526119af81896113bb565b905082810360c08401526119c381886113bb565b905082810360e08401526119d781876113bb565b90508281036101008401526119ec81866113bb565b915050826101208301529b9a5050505050505050505050565b634e487b7160e01b600052603160045260246000fdfea264697066735822122075ad3a4c4005dce3ba1eeb0226b07175b6d72b0b3674b7a119c304f6cbdbafb564736f6c63430008090033",
  "linkReferences": {},
  "deployedLinkReferences": {}
}