{
  "_format": "hh-sol-artifact-1",
  "contractName": "EpochManage",
  "sourceName": "contracts/EpochManage.sol",
  "abi": [
    {
      "inputs": [],
      "name": "checkAndCreateNewEpochAndUpdateAccRPSAccSPS",
      "outputs": [],
      "stateMutability": "nonpayable",
      "type": "function"
    },
    {
      "inputs": [],
      "name": "checkAndCreateNewEpochAndUpdateLiquidity",
      "outputs": [
        {
          "internalType": "bool",
          "name": "",
          "type": "bool"
        }
      ],
      "stateMutability": "nonpayable",
      "type": "function"
    },
    {
      "inputs": [],
      "name": "contractPeriod",
      "outputs": [
        {
          "internalType": "uint256",
          "name": "",
          "type": "uint256"
        }
      ],
      "stateMutability": "view",
      "type": "function"
    },
    {
      "inputs": [],
      "name": "currentEpochIndex",
      "outputs": [
        {
          "internalType": "uint64",
          "name": "",
          "type": "uint64"
        }
      ],
      "stateMutability": "view",
      "type": "function"
    },
    {
      "inputs": [],
      "name": "daysAboveStrikePrice",
      "outputs": [
        {
          "internalType": "uint256",
          "name": "",
          "type": "uint256"
        }
      ],
      "stateMutability": "view",
      "type": "function"
    },
    {
      "inputs": [],
      "name": "feedPrice",
      "outputs": [],
      "stateMutability": "nonpayable",
      "type": "function"
    },
    {
      "inputs": [],
      "name": "getAcaOraclePrice",
      "outputs": [
        {
          "internalType": "uint256",
          "name": "",
          "type": "uint256"
        }
      ],
      "stateMutability": "view",
      "type": "function"
    },
    {
      "inputs": [],
      "name": "getAseedPrice",
      "outputs": [
        {
          "internalType": "uint256",
          "name": "",
          "type": "uint256"
        }
      ],
      "stateMutability": "view",
      "type": "function"
    },
    {
      "inputs": [],
      "name": "getCurrentEpoch",
      "outputs": [
        {
          "internalType": "uint256",
          "name": "",
          "type": "uint256"
        }
      ],
      "stateMutability": "view",
      "type": "function"
    },
    {
      "inputs": [],
      "name": "getCurrentEpochInfo",
      "outputs": [
        {
          "components": [
            {
              "internalType": "uint256",
              "name": "epochId",
              "type": "uint256"
            },
            {
              "internalType": "uint256",
              "name": "crossSPS",
              "type": "uint256"
            },
            {
              "internalType": "uint256",
              "name": "accRealSPSComp",
              "type": "uint256"
            },
            {
              "internalType": "uint256",
              "name": "accRPS",
              "type": "uint256"
            },
            {
              "internalType": "uint256",
              "name": "accSPS",
              "type": "uint256"
            }
          ],
          "internalType": "struct IEpochManage.EpochInfo",
          "name": "",
          "type": "tuple"
        }
      ],
      "stateMutability": "view",
      "type": "function"
    },
    {
      "inputs": [
        {
          "internalType": "uint64",
          "name": "epochIndex",
          "type": "uint64"
        }
      ],
      "name": "getEpochInfo",
      "outputs": [
        {
          "components": [
            {
              "internalType": "uint256",
              "name": "epochId",
              "type": "uint256"
            },
            {
              "internalType": "uint256",
              "name": "crossSPS",
              "type": "uint256"
            },
            {
              "internalType": "uint256",
              "name": "accRealSPSComp",
              "type": "uint256"
            },
            {
              "internalType": "uint256",
              "name": "accRPS",
              "type": "uint256"
            },
            {
              "internalType": "uint256",
              "name": "accSPS",
              "type": "uint256"
            }
          ],
          "internalType": "struct IEpochManage.EpochInfo",
          "name": "",
          "type": "tuple"
        }
      ],
      "stateMutability": "view",
      "type": "function"
    },
    {
      "inputs": [],
      "name": "getPriceList",
      "outputs": [
        {
          "internalType": "uint256[]",
          "name": "",
          "type": "uint256[]"
        }
      ],
      "stateMutability": "view",
      "type": "function"
    },
    {
      "inputs": [
        {
          "internalType": "uint64",
          "name": "epochIndex",
          "type": "uint64"
        }
      ],
      "name": "getTimestampFromEpoch",
      "outputs": [
        {
          "internalType": "uint256",
          "name": "",
          "type": "uint256"
        }
      ],
      "stateMutability": "view",
      "type": "function"
    },
    {
      "inputs": [
        {
          "internalType": "contract IMetaDefender",
          "name": "_metaDefender",
          "type": "address"
        },
        {
          "internalType": "contract ILiquidityCertificate",
          "name": "_liquidityCertificate",
          "type": "address"
        },
        {
          "internalType": "contract IPolicy",
          "name": "_policy",
          "type": "address"
        },
        {
          "internalType": "uint256",
          "name": "_startTime",
          "type": "uint256"
        },
        {
          "internalType": "address",
          "name": "_oracleOperator",
          "type": "address"
        },
        {
          "internalType": "address",
          "name": "_oracle",
          "type": "address"
        },
        {
          "internalType": "address",
          "name": "_dex",
          "type": "address"
        }
      ],
      "name": "init",
      "outputs": [],
      "stateMutability": "nonpayable",
      "type": "function"
    },
    {
      "inputs": [],
      "name": "initialized",
      "outputs": [
        {
          "internalType": "bool",
          "name": "",
          "type": "bool"
        }
      ],
      "stateMutability": "view",
      "type": "function"
    },
    {
      "inputs": [
        {
          "internalType": "uint256",
          "name": "",
          "type": "uint256"
        }
      ],
      "name": "isAboveStrike",
      "outputs": [
        {
          "internalType": "bool",
          "name": "",
          "type": "bool"
        }
      ],
      "stateMutability": "view",
      "type": "function"
    },
    {
      "inputs": [],
      "name": "isWithdrawDay",
      "outputs": [
        {
          "internalType": "bool",
          "name": "",
          "type": "bool"
        }
      ],
      "stateMutability": "view",
      "type": "function"
    },
    {
      "inputs": [],
      "name": "optionTradeDuration",
      "outputs": [
        {
          "internalType": "uint256",
          "name": "",
          "type": "uint256"
        }
      ],
      "stateMutability": "view",
      "type": "function"
    },
    {
      "inputs": [],
      "name": "oracleOperator",
      "outputs": [
        {
          "internalType": "address",
          "name": "",
          "type": "address"
        }
      ],
      "stateMutability": "view",
      "type": "function"
    },
    {
      "inputs": [
        {
          "internalType": "uint256",
          "name": "_price",
          "type": "uint256"
        }
      ],
      "name": "setStrikePrice",
      "outputs": [],
      "stateMutability": "nonpayable",
      "type": "function"
    },
    {
      "inputs": [],
      "name": "startTime",
      "outputs": [
        {
          "internalType": "uint256",
          "name": "",
          "type": "uint256"
        }
      ],
      "stateMutability": "view",
      "type": "function"
    },
    {
      "inputs": [],
      "name": "strikePrice",
      "outputs": [
        {
          "internalType": "uint256",
          "name": "",
          "type": "uint256"
        }
      ],
      "stateMutability": "view",
      "type": "function"
    },
    {
      "inputs": [
        {
          "internalType": "uint256",
          "name": "SPS",
          "type": "uint256"
        },
        {
          "internalType": "uint64",
          "name": "enteredEpochIndex",
          "type": "uint64"
        },
        {
          "internalType": "bool",
          "name": "isClaimed",
          "type": "bool"
        }
      ],
      "name": "updateCrossShadow",
      "outputs": [],
      "stateMutability": "nonpayable",
      "type": "function"
    },
    {
      "inputs": [],
      "name": "updatePriceList",
      "outputs": [],
      "stateMutability": "nonpayable",
      "type": "function"
    }
  ],
  "bytecode": "0x62278d006002556102006040526000608081815260a082905260c082905260e08290526101008290526101208290526101408290526101608290526101808290526101a08290526101c08290526101e0919091526200006390600f90600c62000078565b503480156200007157600080fd5b50620000e4565b828054828255906000526020600020908101928215620000bb579160200282015b82811115620000bb578251829060ff1690559160200191906001019062000099565b50620000c9929150620000cd565b5090565b5b80821115620000c95760008155600101620000ce565b61188d80620000f46000396000f3fe608060405234801561001057600080fd5b50600436106101985760003560e01c8063a04eecae116100e3578063babc394f1161008c578063e40d6cb811610066578063e40d6cb814610354578063e488cd9f1461035c578063f16717aa1461036f57600080fd5b8063babc394f14610339578063bc6078fb14610341578063c52987cf1461034b57600080fd5b8063b7029144116100bd578063b702914414610314578063b97dd9e214610329578063b97fe27f1461033157600080fd5b8063a04eecae146102d7578063a0ab49ce146102df578063b057edd1146102e757600080fd5b806378e97925116101455780638862cca11161011f5780638862cca1146102be5780638c1dbe5a146102c75780639b63039c146102cf57600080fd5b806378e97925146102995780637902fadf146102a257806380d08249146102b557600080fd5b806355d467e71161017657806355d467e7146102175780635e034fdb1461026c57806374d7e7c31461028f57600080fd5b806311679ef71461019d578063158ef93e146101cd5780631fac057e146101f6575b600080fd5b6004546101b0906001600160a01b031681565b6040516001600160a01b0390911681526020015b60405180910390f35b6000546101e69068010000000000000000900460ff1681565b60405190151581526020016101c4565b6102096102043660046114a0565b610382565b6040519081526020016101c4565b61022a6102253660046114a0565b6103af565b6040516101c49190600060a082019050825182526020830151602083015260408301516040830152606083015160608301526080830151608083015292915050565b6101e661027a3660046114bb565b60066020526000908152604090205460ff1681565b61029761043a565b005b61020960015481565b6102976102b03660046114e9565b6105d5565b61020960055481565b61020960025481565b610209610771565b6101e6610815565b610297610a73565b610297610be0565b6000546102fb9067ffffffffffffffff1681565b60405167ffffffffffffffff90911681526020016101c4565b61031c610d20565b6040516101c49190611576565b610209610d78565b610209610da0565b61022a6110ef565b610209620d2f0081565b61020960035481565b6101e661117b565b61029761036a3660046114bb565b6111c5565b61029761037d3660046115ba565b611240565b67ffffffffffffffff81166000908152600c60205260408120546103a990620151806113e7565b92915050565b6103e16040518060a0016040528060008152602001600081526020016000815260200160008152602001600081525090565b5067ffffffffffffffff166000908152600c6020908152604091829020825160a0810184528154815260018201549281019290925260028101549282019290925260038201546060820152600490910154608082015290565b600b546001600160a01b031633146104995760405162461bcd60e51b815260206004820152601160248201527f4f6e6c79204d657461446566656e64657200000000000000000000000000000060448201526064015b60405180910390fd5b600b54604080517fdab680dc00000000000000000000000000000000000000000000000000000000815290516000926001600160a01b03169163dab680dc91600480830192610100929190829003018186803b1580156104f857600080fd5b505afa15801561050c573d6000803e3d6000fd5b505050506040513d601f19601f8201168201806040525081019061053091906115ff565b9050600a60009054906101000a90046001600160a01b03166001600160a01b0316639b0e77b56040518163ffffffff1660e01b8152600401600060405180830381600087803b15801561058257600080fd5b505af1158015610596573d6000803e3d6000fd5b505050506020818101516000805467ffffffffffffffff9081168252600c90935260408082206003019290925592518354909216835290912060040155565b60005468010000000000000000900460ff16156106345760405162461bcd60e51b815260206004820152601360248201527f616c726561647920696e697469616c697a6564000000000000000000000000006044820152606401610490565b6001600160a01b0387166106b05760405162461bcd60e51b815260206004820152602160248201527f6c6971756964697479506f6f6c2063616e6e6f7420626520302061646472657360448201527f73000000000000000000000000000000000000000000000000000000000000006064820152608401610490565b600b80546001600160a01b039889167fffffffffffffffffffffffff0000000000000000000000000000000000000000918216179091556009805497891697821697909717909655600a805495881695871695909517909455600192909255600480549186169185169190911790556007805491851691841691909117905560088054919093169116179055600080547fffffffffffffffffffffffffffffffffffffffffffffff00ffffffffffffffff1668010000000000000000179055565b6007546040517f41976e090000000000000000000000000000000000000000000000000000000081526a0100000000000000000000600482015260009182916001600160a01b03909116906341976e099060240160206040518083038186803b1580156107dd57600080fd5b505afa1580156107f1573d6000803e3d6000fd5b505050506040513d601f19601f820116820180604052508101906103a9919061169d565b600b546000906001600160a01b031633146108725760405162461bcd60e51b815260206004820152601160248201527f4f6e6c79204d657461446566656e6465720000000000000000000000000000006044820152606401610490565b600061087c610d78565b6000805467ffffffffffffffff168152600c60205260409020549091508114610a6b576000546108b79067ffffffffffffffff1660016116cc565b600080547fffffffffffffffffffffffffffffffffffffffffffffffff00000000000000001667ffffffffffffffff92909216919091178155600954604080517f9b0e77b500000000000000000000000000000000000000000000000000000000815290516001600160a01b0390921692639b0e77b59260048084019382900301818387803b15801561094957600080fd5b505af115801561095d573d6000803e3d6000fd5b50506000805467ffffffffffffffff9081168252600c602081905260408320869055825490945091925061099491600191166116f8565b67ffffffffffffffff908116825260208083019390935260409182016000908120600390810154825484168352600c95869052938220019290925581546109de91600191166116f8565b67ffffffffffffffff908116825260208083019390935260409182016000908120600490810154825484168352600c9586905293822001929092558154610a2891600191166116f8565b67ffffffffffffffff90811682526020808301939093526040918201600090812060029081015482549093168252600c9094529190912090910155506001905090565b600091505090565b6004546001600160a01b031633148015610a905750610a9061117b565b610a9957600080fd5b61a8c0610ab1600d54426113fa90919063ffffffff16565b10158015610ade5750600f600b81548110610ace57610ace611721565b9060005260206000200154600014155b610ae757600080fd5b60076005541115610af457565b42600d556000610b02611406565b90506003548110610b8b5760066000610b19610d78565b815260208101919091526040016000205460ff16151560011415610b3a5750565b600160066000610b48610d78565b815260200190815260200160002060006101000a81548160ff021916908315150217905550600160056000828254610b809190611737565b90915550610bdd9050565b600060066000610b99610d78565b81526020810191909152604001600090812080547fffffffffffffffffffffffffffffffffffffffffffffffffffffffffffffff0016921515929092179091556005555b50565b6004546001600160a01b031633148015610bfd5750610bfd61117b565b610c6f5760405162461bcd60e51b815260206004820152602b60248201527f696e73756666696369656e74207065726d697373696f6e206f72206e6f74207760448201527f69746864726177206461790000000000000000000000000000000000000000006064820152608401610490565b610e10610c87600e54426113fa90919063ffffffff16565b1015610c9257600080fd5b600860055410610c9e57565b6000610ca8610da0565b9050601054600c1415610ce25780600f600081548110610cca57610cca611721565b60009182526020909120015542600e55600160105550565b80600f60105481548110610cf857610cf8611721565b600091825260208220019190915542600e556010805491610d188361174f565b919050555050565b6060600f805480602002602001604051908101604052809291908181526020018280548015610d6e57602002820191906000526020600020905b815481526020019060010190808311610d5a575b5050505050905090565b6000610d9b62015180610d95610d8e8242611780565b42906113fa565b9061146b565b905090565b604080516002808252606082018352600092839291906020830190803683370190505090506a010000000000000000000181600081518110610de457610de4611721565b60200260200101906001600160a01b031690816001600160a01b0316815250506a010000000000000000000081600181518110610e2357610e23611721565b6001600160a01b039290921660209283029190910182015260408051600280825260608201835260009391929091830190803683370190505090506a010000000000000000000081600081518110610e7d57610e7d611721565b60200260200101906001600160a01b031690816001600160a01b0316815250506a010000000000000000000181600181518110610ebc57610ebc611721565b6001600160a01b0392831660209182029290920101526008546040517f4d60beb10000000000000000000000000000000000000000000000000000000081526000929190911690634d60beb190610f1e90869064e8d4a5100090600401611794565b60206040518083038186803b158015610f3657600080fd5b505afa158015610f4a573d6000803e3d6000fd5b505050506040513d601f19601f82011682018060405250810190610f6e919061169d565b6008546040517fdbcd19a20000000000000000000000000000000000000000000000000000000081529192506000916001600160a01b039091169063dbcd19a290610fc490869064e8d4a5100090600401611794565b60206040518083038186803b158015610fdc57600080fd5b505afa158015610ff0573d6000803e3d6000fd5b505050506040513d601f19601f82011682018060405250810190611014919061169d565b905060006110276002610d958585611477565b6007546040517f41976e090000000000000000000000000000000000000000000000000000000081526a010000000000000000000060048201529192506000916001600160a01b03909116906341976e099060240160206040518083038186803b15801561109457600080fd5b505afa1580156110a8573d6000803e3d6000fd5b505050506040513d601f19601f820116820180604052508101906110cc919061169d565b905060006110e364e8d4a51000610d9585856113e7565b98975050505050505050565b6111216040518060a0016040528060008152602001600081526020016000815260200160008152602001600081525090565b506000805467ffffffffffffffff168152600c6020908152604091829020825160a0810184528154815260018201549281019290925260028101549282019290925260038201546060820152600490910154608082015290565b6000806111a262015180610d95620151806001546111999190611780565b600154906113fa565b905060006111ae610d78565b9050600a6111bc82846113fa565b10159250505090565b6004546001600160a01b0316331480156111ef57506000546901000000000000000000900460ff16155b80156111fe57506111fe61117b565b61120757600080fd5b600080547fffffffffffffffffffffffffffffffffffffffffffff00ffffffffffffffffff166901000000000000000000179055600355565b600b546001600160a01b0316331461129a5760405162461bcd60e51b815260206004820152601160248201527f4f6e6c79204d657461446566656e6465720000000000000000000000000000006044820152606401610490565b806113465760015b60005467ffffffffffffffff808516916112be918491166116f8565b67ffffffffffffffff161061134057600080546112e690839067ffffffffffffffff166116f8565b67ffffffffffffffff81166000908152600c60205260409020600101549091506113109086611477565b67ffffffffffffffff82166000908152600c602052604090206001015581611337816117e5565b925050506112a2565b50505050565b60005b60005467ffffffffffffffff80851691611365918491166116f8565b67ffffffffffffffff1610611340576000805461138d90839067ffffffffffffffff166116f8565b67ffffffffffffffff81166000908152600c60205260409020600201549091506113b79086611477565b67ffffffffffffffff82166000908152600c6020526040902060020155816113de816117e5565b92505050611349565b60006113f3828461180d565b9392505050565b60006113f3828461182c565b60008060005b600f5481101561145957611446600f828154811061142c5761142c611721565b90600052602060002001548361147790919063ffffffff16565b50806114518161174f565b91505061140c565b5061146581600c61146b565b91505090565b60006113f38284611843565b60006113f38284611737565b803567ffffffffffffffff8116811461149b57600080fd5b919050565b6000602082840312156114b257600080fd5b6113f382611483565b6000602082840312156114cd57600080fd5b5035919050565b6001600160a01b0381168114610bdd57600080fd5b600080600080600080600060e0888a03121561150457600080fd5b873561150f816114d4565b9650602088013561151f816114d4565b9550604088013561152f816114d4565b9450606088013593506080880135611546816114d4565b925060a0880135611556816114d4565b915060c0880135611566816114d4565b8091505092959891949750929550565b6020808252825182820181905260009190848201906040850190845b818110156115ae57835183529284019291840191600101611592565b50909695505050505050565b6000806000606084860312156115cf57600080fd5b833592506115df60208501611483565b9150604084013580151581146115f457600080fd5b809150509250925092565b600061010080838503121561161357600080fd5b6040519081019067ffffffffffffffff8211818310171561164457634e487b7160e01b600052604160045260246000fd5b81604052835181526020840151602082015260408401516040820152606084015160608201526080840151608082015260a084015160a082015260c084015160c082015260e084015160e0820152809250505092915050565b6000602082840312156116af57600080fd5b5051919050565b634e487b7160e01b600052601160045260246000fd5b600067ffffffffffffffff8083168185168083038211156116ef576116ef6116b6565b01949350505050565b600067ffffffffffffffff83811690831681811015611719576117196116b6565b039392505050565b634e487b7160e01b600052603260045260246000fd5b6000821982111561174a5761174a6116b6565b500190565b6000600019821415611763576117636116b6565b5060010190565b634e487b7160e01b600052601260045260246000fd5b60008261178f5761178f61176a565b500690565b604080825283519082018190526000906020906060840190828701845b828110156117d65781516001600160a01b0316845292840192908401906001016117b1565b50505092019290925292915050565b600067ffffffffffffffff80831681811415611803576118036116b6565b6001019392505050565b6000816000190483118215151615611827576118276116b6565b500290565b60008282101561183e5761183e6116b6565b500390565b6000826118525761185261176a565b50049056fea26469706673582212200888c5aee41daabcd98af1711d123b8c9fd36b7317706a8af8bbda4c33eb7d4864736f6c63430008090033",
  "linkReferences": {},
  "deployedLinkReferences": {}
}