{
  "_format": "hh-sol-artifact-1",
  "contractName": "Prices",
  "sourceName": "contracts/Prices.sol",
  "abi": [
    {
      "inputs": [],
      "name": "getAcaAusdPrice",
      "outputs": [
        {
          "internalType": "uint256",
          "name": "",
          "type": "uint256"
        }
      ],
      "stateMutability": "view",
      "type": "function"
    },
    {
      "inputs": [],
      "name": "getAcaPrice",
      "outputs": [
        {
          "internalType": "uint256",
          "name": "",
          "type": "uint256"
        }
      ],
      "stateMutability": "view",
      "type": "function"
    },
    {
      "inputs": [
        {
          "internalType": "address",
          "name": "_oracle",
          "type": "address"
        },
        {
          "internalType": "address",
          "name": "_dex",
          "type": "address"
        }
      ],
      "name": "init",
      "outputs": [],
      "stateMutability": "nonpayable",
      "type": "function"
    },
    {
      "inputs": [],
      "name": "initialized",
      "outputs": [
        {
          "internalType": "bool",
          "name": "",
          "type": "bool"
        }
      ],
      "stateMutability": "view",
      "type": "function"
    }
  ],
  "bytecode": "0x608060405234801561001057600080fd5b5061066c806100206000396000f3fe608060405234801561001057600080fd5b506004361061004c5760003560e01c8063158ef93e1461005157806388a96d531461008b578063f09a4016146100a1578063fb40c730146100b6575b600080fd5b6001546100769074010000000000000000000000000000000000000000900460ff1681565b60405190151581526020015b60405180910390f35b6100936100be565b604051908152602001610082565b6100b46100af36600461053b565b610355565b005b61009361045a565b604080516002808252606082018352600092839291906020830190803683370190505090506a0100000000000000000001816000815181106101025761010261056e565b60200260200101906001600160a01b031690816001600160a01b0316815250506a0100000000000000000000816001815181106101415761014161056e565b6001600160a01b039290921660209283029190910182015260408051600280825260608201835260009391929091830190803683370190505090506a01000000000000000000008160008151811061019b5761019b61056e565b60200260200101906001600160a01b031690816001600160a01b0316815250506a0100000000000000000001816001815181106101da576101da61056e565b6001600160a01b0392831660209182029290920101526001546040517f4d60beb10000000000000000000000000000000000000000000000000000000081526000929190911690634d60beb19061023c90869064e8d4a5100090600401610584565b60206040518083038186803b15801561025457600080fd5b505afa158015610268573d6000803e3d6000fd5b505050506040513d601f19601f8201168201806040525081019061028c91906105d5565b6001546040517fdbcd19a20000000000000000000000000000000000000000000000000000000081529192506000916001600160a01b039091169063dbcd19a2906102e290869064e8d4a5100090600401610584565b60206040518083038186803b1580156102fa57600080fd5b505afa15801561030e573d6000803e3d6000fd5b505050506040513d601f19601f8201168201806040525081019061033291906105d5565b9050600061034b60026103458585610500565b90610513565b9695505050505050565b60015474010000000000000000000000000000000000000000900460ff16156103de576040517f08c379a000000000000000000000000000000000000000000000000000000000815260206004820152601360248201527f616c726561647920696e697469616c697a656400000000000000000000000000604482015260640160405180910390fd5b600080546001600160a01b039384167fffffffffffffffffffffffff0000000000000000000000000000000000000000909116179055600180547fffffffffffffffffffffff00000000000000000000000000000000000000000016919092161774010000000000000000000000000000000000000000179055565b600080546040517f41976e090000000000000000000000000000000000000000000000000000000081526a0100000000000000000000600482015282916001600160a01b0316906341976e099060240160206040518083038186803b1580156104c257600080fd5b505afa1580156104d6573d6000803e3d6000fd5b505050506040513d601f19601f820116820180604052508101906104fa91906105d5565b92915050565b600061050c82846105ee565b9392505050565b600061050c8284610614565b80356001600160a01b038116811461053657600080fd5b919050565b6000806040838503121561054e57600080fd5b6105578361051f565b91506105656020840161051f565b90509250929050565b634e487b7160e01b600052603260045260246000fd5b604080825283519082018190526000906020906060840190828701845b828110156105c65781516001600160a01b0316845292840192908401906001016105a1565b50505092019290925292915050565b6000602082840312156105e757600080fd5b5051919050565b6000821982111561060f57634e487b7160e01b600052601160045260246000fd5b500190565b60008261063157634e487b7160e01b600052601260045260246000fd5b50049056fea2646970667358221220e2880b93c2a5558f5fe5dc4aa68248630c90e51df317b9d1911ee4098aba624764736f6c63430008090033",
  "linkReferences": {},
  "deployedLinkReferences": {}
}