{
  "_format": "hh-sol-artifact-1",
  "contractName": "AmericanBinaryOptions",
  "sourceName": "contracts/AmericanBinaryOptions.sol",
  "abi": [
    {
      "inputs": [
        {
          "internalType": "int256",
          "name": "x",
          "type": "int256"
        }
      ],
      "name": "abs",
      "outputs": [
        {
          "internalType": "uint256",
          "name": "",
          "type": "uint256"
        }
      ],
      "stateMutability": "pure",
      "type": "function"
    },
    {
      "inputs": [
        {
          "internalType": "uint256",
          "name": "timeToExpirySec",
          "type": "uint256"
        },
        {
          "internalType": "uint256",
          "name": "volatilityDecimal",
          "type": "uint256"
        },
        {
          "internalType": "uint256",
          "name": "spotDecimal",
          "type": "uint256"
        },
        {
          "internalType": "uint256",
          "name": "strikeDecimal",
          "type": "uint256"
        },
        {
          "internalType": "int256",
          "name": "rateDecimal",
          "type": "int256"
        }
      ],
      "name": "americanBinaryOptionPrices",
      "outputs": [
        {
          "internalType": "int256",
          "name": "",
          "type": "int256"
        }
      ],
      "stateMutability": "pure",
      "type": "function"
    },
    {
      "inputs": [
        {
          "internalType": "uint256",
          "name": "x",
          "type": "uint256"
        }
      ],
      "name": "exp",
      "outputs": [
        {
          "internalType": "uint256",
          "name": "",
          "type": "uint256"
        }
      ],
      "stateMutability": "pure",
      "type": "function"
    },
    {
      "inputs": [
        {
          "internalType": "int256",
          "name": "x",
          "type": "int256"
        }
      ],
      "name": "exp",
      "outputs": [
        {
          "internalType": "uint256",
          "name": "",
          "type": "uint256"
        }
      ],
      "stateMutability": "pure",
      "type": "function"
    },
    {
      "inputs": [
        {
          "internalType": "uint256",
          "name": "x",
          "type": "uint256"
        }
      ],
      "name": "lnexternal",
      "outputs": [
        {
          "internalType": "int256",
          "name": "",
          "type": "int256"
        }
      ],
      "stateMutability": "pure",
      "type": "function"
    },
    {
      "inputs": [
        {
          "internalType": "uint256",
          "name": "timeToExpirySec",
          "type": "uint256"
        },
        {
          "internalType": "uint256",
          "name": "volatilityDecimal",
          "type": "uint256"
        },
        {
          "internalType": "uint256",
          "name": "spotDecimal",
          "type": "uint256"
        },
        {
          "internalType": "uint256",
          "name": "strikeDecimal",
          "type": "uint256"
        },
        {
          "internalType": "int256",
          "name": "rateDecimal",
          "type": "int256"
        }
      ],
      "name": "optionPrices",
      "outputs": [
        {
          "internalType": "uint256",
          "name": "call",
          "type": "uint256"
        },
        {
          "internalType": "uint256",
          "name": "put",
          "type": "uint256"
        }
      ],
      "stateMutability": "pure",
      "type": "function"
    },
    {
      "inputs": [
        {
          "internalType": "uint256",
          "name": "timeToExpirySec",
          "type": "uint256"
        },
        {
          "internalType": "uint256",
          "name": "volatilityDecimal",
          "type": "uint256"
        },
        {
          "internalType": "uint256",
          "name": "spotDecimal",
          "type": "uint256"
        },
        {
          "internalType": "uint256",
          "name": "strikeDecimal",
          "type": "uint256"
        },
        {
          "internalType": "int256",
          "name": "rateDecimal",
          "type": "int256"
        }
      ],
      "name": "pricesDeltaStdVega",
      "outputs": [
        {
          "components": [
            {
              "internalType": "uint256",
              "name": "callPrice",
              "type": "uint256"
            },
            {
              "internalType": "uint256",
              "name": "putPrice",
              "type": "uint256"
            },
            {
              "internalType": "int256",
              "name": "callDelta",
              "type": "int256"
            },
            {
              "internalType": "int256",
              "name": "putDelta",
              "type": "int256"
            },
            {
              "internalType": "uint256",
              "name": "stdVega",
              "type": "uint256"
            }
          ],
          "internalType": "struct IAmericanBinaryOptions.PricesDeltaStdVega",
          "name": "",
          "type": "tuple"
        }
      ],
      "stateMutability": "pure",
      "type": "function"
    },
    {
      "inputs": [
        {
          "internalType": "uint256",
          "name": "x",
          "type": "uint256"
        }
      ],
      "name": "sqrt",
      "outputs": [
        {
          "internalType": "uint256",
          "name": "y",
          "type": "uint256"
        }
      ],
      "stateMutability": "pure",
      "type": "function"
    }
  ],
  "bytecode": "0x608060405234801561001057600080fd5b50611505806100206000396000f3fe608060405234801561001057600080fd5b50600436106100885760003560e01c8063ab65e8b91161005b578063ab65e8b914610101578063b581fbe314610156578063c979cb9614610169578063e46751e31461017c57600080fd5b80631b5ac4b51461008d5780635abd0149146100b3578063677342ce146100c6578063938e8ba8146100d9575b600080fd5b6100a061009b3660046110ad565b61018f565b6040519081526020015b60405180910390f35b6100a06100c13660046110ad565b6101ad565b6100a06100d43660046110ad565b6101b8565b6100ec6100e73660046110c6565b610211565b604080519283526020830191909152016100aa565b61011461010f3660046110c6565b61029d565b6040516100aa9190600060a082019050825182526020830151602083015260408301516040830152606083015160608301526080830151608083015292915050565b6100a06101643660046110ad565b6103b3565b6100a06101773660046110c6565b610565565b6100a061018a3660046110ad565b61076b565b600080821261019e57816101a7565b6101a782611130565b92915050565b60006101a7826107e5565b60008060026101c884600161085d565b6101d2919061117c565b90508291505b8181101561020b579050806002816101f0818661117c565b6101fa9190611190565b610204919061117c565b90506101d8565b50919050565b600080600061021f88610870565b9050600061022c87610880565b9050600061023987610880565b90506000610246876108a6565b9050600080610260866102588e610880565b8787876108cc565b915091506102728686868686866109c8565b909850965061028088610a65565b61028988610a65565b975097505050505050509550959350505050565b6102cf6040518060a0016040528060008152602001600081526020016000815260200160008152602001600081525090565b60006102da87610870565b905060006102e786610880565b9050600080610311846102f98b610880565b856103038b610880565b61030c8b6108a6565b6108cc565b9150915060008061033686866103268c610880565b61032f8c6108a6565b88886109c8565b91509150600061034785878f610ac5565b905060008061035587610b72565b915091506040518060a0016040528061036d87610a65565b815260200161037b86610a65565b815260200161038984610b9d565b815260200161039783610b9d565b81526020019390935250909d9c50505050505050505050505050565b6000816103cd57506b033b2e3c9fd0803ce8000000919050565b6103e46b033b2e3c9fd0803ce800000060646111a8565b821115610477576040517f08c379a000000000000000000000000000000000000000000000000000000000815260206004820152602860248201527f63616e6e6f742068616e646c65206578706f6e656e747320677265617465722060448201527f7468616e20313030000000000000000000000000000000000000000000000000606482015260840160405180910390fd5b60006b033b2e3c9fd0803ce80000006104a461049f856b023d5b9ff36551802aa5d6fa610bfd565b610c15565b6104ae919061117c565b905060006104bd8260026112ab565b905060006104e16104da846b023d5b9ff36551802aa5d6fa610c37565b8690610c43565b90506b033b2e3c9fd0803ce8000000600060105b60ff81161561054f5761052b6b033b2e3c9fd0803ce800000061052561051e60ff85168861117c565b8690610c4f565b9061085d565b92508183141561053a5761054f565b82915080610547816112b7565b9150506104f5565b5061055a8483610c37565b979650505050505050565b60008061057187610870565b9050600061057e86610880565b9050600061058b86610880565b9050600061059889610880565b905060006105a5876108a6565b905060006105c5836105bf6105ba8888610bfd565b6107e5565b90610c67565b905060006105d46002856112d4565b6105de8486610c67565b6105e89190611302565b905060006106136105fa85600261135a565b6106048480610c7f565b61060e91906113fa565b610c97565b9050600061064561064061062b61060e8c60026111a8565b86610636868e610c4f565b6105bf9190611302565b610cb2565b9050600061067261064061065d61060e8d60026111a8565b87610668878f610c4f565b6105bf91906113fa565b9050600080861315610702576106fb6106b861069a846b033b2e3c9fd0803ce8000000611302565b6106b26106a78a89610c7f565b61018a90600261135a565b90610c7f565b6106ce856b033b2e3c9fd0803ce80000006113fa565b6106d891906113fa565b60026106f161018a6106ea898b611302565b8b90610c7f565b6106b2919061117c565b905061074c565b600086121561073d576106fb61072761069a846b033b2e3c9fd0803ce80000006113fa565b6106ce856b033b2e3c9fd0803ce8000000611302565b506b033b2e3c9fd0803ce80000005b61075581610b9d565b9b50505050505050505050505095945050505050565b60008160001361077e576101a7826103b3565b6107b46b033b2e3c9fd0803ce80000007fffffffffffffffffffffffffffffffffffffffffffffffffffffffffffffffc161135a565b8212156107c357506000919050565b6101a76107d261016484611130565b6b033b2e3c9fd0803ce800000090610bfd565b60008080805b60088110156108545760006107ff8461076b565b905061082d6108266108118884610cf4565b6105bf60026108208b87610d00565b90610d0c565b8590610cf4565b92508383141561083d5750610854565b82935050808061084c90611452565b9150506107eb565b50909392505050565b60006108698284611190565b9392505050565b60006101a7826301e13380610bfd565b60006101a76108916012601b61146d565b61089f9060ff16600a6112ab565b8390610c37565b60006101a76108b76012601b61146d565b6108c59060ff16600a6112ab565b8390610d0c565b6000806108e96301e133806b033b2e3c9fd0803ce800000061117c565b87106108f5578661090f565b61090f6301e133806b033b2e3c9fd0803ce800000061117c565b96506109296127106b033b2e3c9fd0803ce800000061117c565b8610610935578561094d565b61094d6127106b033b2e3c9fd0803ce800000061117c565b9550600061096461095d89610c97565b8890610c4f565b905060006109756105ba8888610bfd565b9050600061099d8a6106b288600261098d8e80610c4f565b610997919061117c565b90610cf4565b90506109ad836105bf8484610cf4565b94506109b98584610d00565b93505050509550959350505050565b600080806109e561095d6109dc888c610c7f565b61018a90611130565b905060006109fc6109f587610d18565b8a90610c4f565b90506000610a13610a0c87610d18565b8490610c4f565b905081811115610a24576000610a2e565b610a2e8282610c43565b9450610a3a858461085d565b9350838a1115610a4b576000610a55565b610a55848b610c43565b9350505050965096945050505050565b600080600a610a766012601b61146d565b610a849060ff16600a6112ab565b610a8e919061117c565b610a98908461117c565b90506005610aa7600a83611490565b10610aba57610ab7600a82611190565b90505b610869600a8261117c565b600080610ad183610870565b905062093a808310610ae35782610ae8565b62093a805b9250600062015180610b06856b033b2e3c9fd0803ce8000000610c37565b610b10919061117c565b90506000610b2b6b033b2e3c9fd0803ce8000000601e6111a8565b90506000610b476064610b4161060e8587610bfd565b90610f5d565b9050610b66610b6182610b5b878b8d610f69565b90610c4f565b610a65565b98975050505050505050565b600080610b7e83610d18565b9150610b966b033b2e3c9fd0803ce800000083611302565b9050915091565b600080600a610bae6012601b61146d565b610bbc9060ff16600a6112ab565b610bc691906112d4565b610bd090846112d4565b90506005610bdf600a836114a4565b12610bf257610bef600a826113fa565b90505b610869600a826112d4565b60006108698383610c10601b600a6112ab565b610f8c565b6000610c2d6b033b2e3c9fd0803ce800000083611490565b6101a790836114b8565b600061086982846111a8565b600061086982846114b8565b60006108698383610c62601b600a6112ab565b610fde565b60006108698383610c7a601b600a6112ab565b611000565b60006108698383610c92601b600a6112ab565b61104f565b60006101a76100d4836b033b2e3c9fd0803ce8000000610c37565b60006b033b2e3c9fd0803ce8000000610cdf610cda846b0491cf5ed58c148755f01c94610c7f565b610d18565b610cea9060026111a8565b6101a79190611302565b600061086982846113fa565b60006108698284611302565b6000610869828461135a565b6000600a610d526b033b2e3c9fd0803ce80000007fffffffffffffffffffffffffffffffffffffffffffffffffffffffffffffffd361135a565b610d5c91906112d4565b821215610d6b57506000919050565b610d826b033b2e3c9fd0803ce8000000600a61135a565b821315610d9c57506b033b2e3c9fd0803ce8000000919050565b60006b033b2e3c9fd0803ce8000000610db48461018f565b610dc1906223549b6111a8565b610dcb919061117c565b610dd890629896806113fa565b90506000610df1610dea6002866112d4565b8590610c7f565b90506000610dfe826103b3565b610e176b033b2e3c9fd0803ce8000000623cdfaf6111a8565b610e21919061117c565b9050600083808080610e39816578fcdaec22006112d4565b610e63907ffffffffffffffffffffffffffffffffffffffffffffffffffffffffffeea19306113fa565b610e70906298968061135a565b610e7a91906112d4565b610e889063010fd4fc6113fa565b610e95906298968061135a565b610e9f91906112d4565b610ec9907fffffffffffffffffffffffffffffffffffffffffffffffffffffffffffc997ba6113fa565b610ed6906298968061135a565b610ee091906112d4565b610eed906230bbd76113fa565b610ef7908461135a565b610f04906298968061135a565b610f0e91906112d4565b90506000861315610f2c57610f2981655af3107a40006114b8565b90505b655af3107a4000610f49826b033b2e3c9fd0803ce80000006111a8565b610f53919061117c565b9695505050505050565b6000610869828461117c565b6000610f84610f7b84610b5b85611071565b610b5b86610c97565b949350505050565b600080610fa884610b41610fa186600a6111a8565b8890610c37565b90506005610fb7600a83611490565b10610fca57610fc7600a82611190565b90505b610fd5600a8261117c565b95945050505050565b600080610fec600a8461117c565b610ff68686610c37565b610fa8919061117c565b6000806110228461101c61101586600a61135a565b8890610d0c565b906110a1565b90506005611031600a836114a4565b1261104457611041600a826113fa565b90505b610fd5600a826112d4565b60008061105d600a846112d4565b6110678686610d0c565b61102291906112d4565b60006101a76b08196f2f0c65a776731daf2561109b6109dc6110946002876112d4565b8690610c7f565b90610bfd565b600061086982846112d4565b6000602082840312156110bf57600080fd5b5035919050565b600080600080600060a086880312156110de57600080fd5b505083359560208501359550604085013594606081013594506080013592509050565b7f4e487b7100000000000000000000000000000000000000000000000000000000600052601160045260246000fd5b6000600160ff1b82141561114657611146611101565b5060000390565b7f4e487b7100000000000000000000000000000000000000000000000000000000600052601260045260246000fd5b60008261118b5761118b61114d565b500490565b600082198211156111a3576111a3611101565b500190565b60008160001904831182151516156111c2576111c2611101565b500290565b600181815b808511156112025781600019048211156111e8576111e8611101565b808516156111f557918102915b93841c93908002906111cc565b509250929050565b600082611219575060016101a7565b81611226575060006101a7565b816001811461123c576002811461124657611262565b60019150506101a7565b60ff84111561125757611257611101565b50506001821b6101a7565b5060208310610133831016604e8410600b8410161715611285575081810a6101a7565b61128f83836111c7565b80600019048211156112a3576112a3611101565b029392505050565b6000610869838361120a565b600060ff8216806112ca576112ca611101565b6000190192915050565b6000826112e3576112e361114d565b6000198314600160ff1b831416156112fd576112fd611101565b500590565b600080831283600160ff1b0183128115161561132057611320611101565b837f7fffffffffffffffffffffffffffffffffffffffffffffffffffffffffffffff01831381161561135457611354611101565b50500390565b60007f7fffffffffffffffffffffffffffffffffffffffffffffffffffffffffffffff60008413600084138583048511828216161561139b5761139b611101565b600160ff1b60008712868205881281841616156113ba576113ba611101565b600087129250878205871284841616156113d6576113d6611101565b878505871281841616156113ec576113ec611101565b505050929093029392505050565b6000808212827f7fffffffffffffffffffffffffffffffffffffffffffffffffffffffffffffff0384138115161561143457611434611101565b82600160ff1b03841281161561144c5761144c611101565b50500190565b600060001982141561146657611466611101565b5060010190565b600060ff821660ff84168082101561148757611487611101565b90039392505050565b60008261149f5761149f61114d565b500690565b6000826114b3576114b361114d565b500790565b6000828210156114ca576114ca611101565b50039056fea26469706673582212201571521316bb6e5b23636ebb4df35c678344ae052b14b78a74a2487951a5cfda64736f6c63430008090033",
  "linkReferences": {},
  "deployedLinkReferences": {}
}