{
  "_format": "hh-sol-artifact-1",
  "contractName": "SignedSafeDecimalMath",
  "sourceName": "contracts/Lib/SignedSafeDecimalMath.sol",
  "abi": [
    {
      "inputs": [],
      "name": "PRECISE_UNIT",
      "outputs": [
        {
          "internalType": "int256",
          "name": "",
          "type": "int256"
        }
      ],
      "stateMutability": "view",
      "type": "function"
    },
    {
      "inputs": [],
      "name": "UNIT",
      "outputs": [
        {
          "internalType": "int256",
          "name": "",
          "type": "int256"
        }
      ],
      "stateMutability": "view",
      "type": "function"
    },
    {
      "inputs": [],
      "name": "decimals",
      "outputs": [
        {
          "internalType": "uint8",
          "name": "",
          "type": "uint8"
        }
      ],
      "stateMutability": "view",
      "type": "function"
    },
    {
      "inputs": [],
      "name": "highPrecisionDecimals",
      "outputs": [
        {
          "internalType": "uint8",
          "name": "",
          "type": "uint8"
        }
      ],
      "stateMutability": "view",
      "type": "function"
    },
    {
      "inputs": [],
      "name": "preciseUnit",
      "outputs": [
        {
          "internalType": "int256",
          "name": "",
          "type": "int256"
        }
      ],
      "stateMutability": "pure",
      "type": "function"
    },
    {
      "inputs": [],
      "name": "unit",
      "outputs": [
        {
          "internalType": "int256",
          "name": "",
          "type": "int256"
        }
      ],
      "stateMutability": "pure",
      "type": "function"
    }
  ],
  "bytecode": "0x61027061003a600b82828239805160001a60731461002d57634e487b7160e01b600052600060045260246000fd5b30600052607381538281f3fe730000000000000000000000000000000000000000301460806040526004361061007c5760003560e01c80639d8e21771161005a5780639d8e2177146100be578063d5e5e6e6146100c6578063def4419d146100ce57600080fd5b8063313ce56714610081578063864029e7146100a0578063907af6c0146100b6575b600080fd5b610089601281565b60405160ff90911681526020015b60405180910390f35b6100a86100d6565b604051908152602001610097565b6100a86100e5565b6100a86100f8565b6100a8610104565b610089601b81565b6100e2601b600a610227565b81565b60006100f36012600a610227565b905090565b6100e26012600a610227565b60006100f3601b600a610227565b7f4e487b7100000000000000000000000000000000000000000000000000000000600052601160045260246000fd5b600181815b8085111561017c57816000190482111561016257610162610112565b8085161561016f57918102915b93841c9390800290610146565b509250929050565b60008261019357506001610221565b816101a057506000610221565b81600181146101b657600281146101c0576101dc565b6001915050610221565b60ff8411156101d1576101d1610112565b50506001821b610221565b5060208310610133831016604e8410600b84101617156101ff575081810a610221565b6102098383610141565b806000190482111561021d5761021d610112565b0290505b92915050565b60006102338383610184565b939250505056fea26469706673582212200b98da1e33e60833c7942083749a53c7cc36cf8d2e2b0948f766d6f87783b63964736f6c63430008090033",
  "linkReferences": {},
  "deployedLinkReferences": {}
}